:020000040800F2
:10000000F84F0020F5010008B75B00080F36000824
:10001000B55B0008E70D0008BFA500080000000060
:10002000000000000000000000000000ED8D00084E
:10003000F3120008000000005F5F00083D8E00081A
:100040000F0200080F0200080F0200080F0200084C
:100050000F0200080F0200080F0200080F0200083C
:100060000F020008F51200080F0200080F02000836
:100070000F0200080F0200080F0200080F0200081C
:100080000F0200080F0200080F02000815A5000863
:1000900021A500080F0200080F0200080F02000847
:1000A0000F0200080F0200080F0200080F020008EC
:1000B0000F0200080F0200080F0200080F020008DC
:1000C0000F0200080F0200080F0200088D870008C9
:1000D0000F0200080F0200080F0200080F020008BC
:1000E0000F0200080F0200080F02000800F002F8DB
:1000F00000F071F80AA090E8000C82448344AAF151
:100100000107DA4501D100F066F8AFF2090EBAE84E
:100110000F0013F0010F18BFFB1A43F0010318473B
:1001200050A8000070A800000A444FF0000C10F81E
:10013000013B13F0070408BF10F8014B1D1108BF65
:1001400010F8015B641E05D010F8016B641E01F805
:10015000016BF9D113F0080F1EBF10F8014BAD1C55
:100160000C1B09D16D1E58BF01F801CBFAD505E073
:1001700014F8016B01F8016B6D1EF9D59142D6D3CD
:10018000704700000023002400250026103A28BFF5
:1001900078C1FBD8520728BF30C148BF0B607047F9
:1001A000642900F0B380752900F0B080782900F050
:1001B0001481732900F08B84002070471FB500F074
:1001C000F3FD0400002000210AF052FA401C606098
:1001D0001FBD10B510BD00F0C2FD1146FFF7EEFFC8
:1001E0000AF006FA00F0F2FD03B4FFF7F2FF03BCD9
:1001F00000F0F2FD0948804709480047FEE7FEE7A6
:10020000FEE7FEE7FEE7FEE7FEE7FEE7FEE7FEE7C6
:1002100004480549054A064B70470000B78E0008A0
:10022000ED000008F8470020F84F0020F84B0020B0
:10023000F84B00200FB47CB50C0009AA009001D047
:100240002044401E084B7B4469460190089800F00A
:100250000CFC05461CB10020694600F019FC28463C
:100260007CBC5DF814FB00005108000070B504462A
:1002700085690068C10601D5302600E02026C00748
:1002800007D070BDD4E9012130469047206A401C58
:1002900020626D1EF6D570BD70B504468569007884
:1002A000C00707D170BDD4E9012120209047206A02
:1002B000401C20626D1EF6D570BD70B50C4605461B
:1002C000012A05D02878800600D5EA69002302E0DB
:1002D000012305E05B1C934202D2E05C0028F9D1C7
:1002E000A869E618C01AA861286A18442862284636
:1002F000FFF7BCFF04E0D5E9012114F8010B90479A
:10030000B442F8D32846FFF7C7FF70BD2DE9F0418E
:100310000646002410687529314616A510D0AFF3A3
:100320000080002802DA404213A507E031688A07FE
:1003300001D512A502E0490704D511A5012401E069
:10034000AFF3008000210A2206F1240709E0B0FB88
:10035000F2FCB0FBF2F302FB1C003030785418467C
:10036000491C0028F3D123462A463046BDE8F04117
:1003700000F01DBB000000002D0000002B0000005D
:1003800020000000F0B40D460188090502D5214C7B
:100390007C4402E01F4C7C440E34002100F1240612
:1003A00008E002F00F071209E75D42EA03721B0939
:1003B0007754491C52EA0307F3D10278002312074D
:1003C00004D5702D06D009B1022311342246F0BCA9
:1003D00000F0EDBA01231034F8E770B504460D467D
:1003E00021461068AFF30080024629462046BDE84A
:1003F00070400023C6E7D21D22F00703D3E9002393
:10040000C0E70368126843F0200303600823C36158
:100410000023B7E736A300002DE9F05F89460446C4
:100420004FF0000ADFF874B1FB44C0F820A020466A
:10043000E1688847002874D0252806D0D4E9012136
:100440009047206A401C2062F1E700265F46204664
:10045000E16888472028054607DB312D05D2781949
:1004600010F8200C08B10643F1E7B00701D526F0DB
:100470000406C4F81CA00027C4F818A02A2D09D02F
:1004800028460AF0ADF838B304EB8708303DC8F8C9
:10049000185019E059F8041B204604EB87029161BB
:1004A000E1688847012F054618D1E069002820DA65
:1004B00026F020061DE0D8F8180000EB800005EBC0
:1004C00040003038C8F818002046E16888470546E3
:1004D0000AF086F80028EED1012F0AD02E2D08D17F
:1004E0002046E16888477F1C0546022F46F020061B
:1004F000C4DBA069002803DA404246F00106A0618F
:10050000F00701D026F010066C2D0BD0682D09D015
:100510004C2D39D06A2D35D0742D35D07A2D33D06D
:1005200016E038E0E1682F4620468847B842054685
:1005300009D16C2F26D04FF48060E1680643204635
:100540008847054604E06C2F1AD04FF480700643AC
:100550000DB3A5F14100192802D8203546F40066F4
:100560004A462946204626604E46FFF719FE80B1CE
:1005700001280BD0F61D26F0070000F1080956E708
:100580004020E4E78020D8E70020D6E706F1040900
:100590004DE7284652E7206ABDE8F09FC6A200005A
:1005A00070B5064600F0F2F90468054630460A22A6
:1005B000002100F090FA2C6070BD0000014A00F0AC
:1005C000C3BA000004020020401ECAB210F8011F86
:1005D0008A4202D00029F9D1002070472DE9F0416C
:1005E000054690460E460020044600E0641C444543
:1005F0000BD2285D00F0CEF90746305D00F0CAF955
:10060000381A02D1295D0029F0D1BDE8F0812DE929
:10061000F0410E460546002400E0641C285D00F011
:10062000B9F90746305D00F0B5F9381A02D1295DF5
:100630000029F2D1BDE8F08110B5431C02E010F8AA
:10064000011B71B18107FAD14FF0013202C88C1A37
:100650008C4314EAC211F9D0C01A0A0603D0C01E96
:1006600010BDC01A10BD0A0401D0801E10BD0902C1
:10067000FCD0401E10BD40EA010370B59B072ED18F
:100680004FF00136042A2AD308C810C99D1B9D4388
:10069000121F15EAC61517D0D8B2E1B2401A50EAB7
:1006A000056110D198B2A1B2401A50EA05410AD1B1
:1006B00023F07F4024F07F41401A50EA052102D107
:1006C000180EA0EB146070BDA342DBD018BA21BA9B
:1006D000884201D9012070BD4FF0FF3070BD0AB9CA
:1006E000002070BD10F8013B11F8014B63B1A3422B
:1006F0000AD1521E08D010F8013B11F8014B1BB172
:10070000A34201D1521EEDD1181B70BD032A40F245
:10071000308010F0030C00F0158011F8013BBCF1A3
:10072000020F624498BF11F801CB00F8013B38BFBB
:1007300011F8013BA2F1040298BF00F801CB38BFC9
:1007400000F8013B11F0030300F02082083AC0F0EA
:10075000088051F8043B083A51F804CBA0E808108F
:10076000F5E7121D5CBF51F8043B40F8043BAFF3C2
:100770000080D20724BF11F8013B11F801CB48BF1C
:1007800011F8012B24BF00F8013B00F801CB48BF52
:1007900000F8012B7047431A28BF9A427FF6B6AF84
:1007A000032A1044114440F2268010F0030F1EBFAC
:1007B00011F8013D521E00F8013D10F0030F7FF4C7
:1007C000F6AF11F0030300F02682083AC0F00B8068
:1007D00051F8043D083A51F804CD40F8043D40F882
:1007E00004CDFFF7F3BF121D5CBF51F8043D40F884
:1007F000043DAFF30080D20724BF11F8013D11F88A
:1008000001CD48BF11F8012C24BF00F8013D00F8CC
:1008100001CD48BF00F8012C70474FF000020429B9
:10082000C0F0128010F0030C00F01B80CCF1040C1F
:10083000BCF1020F18BF00F8012BA8BF20F8022B53
:10084000A1EB0C0100F00DB85FEAC17C24BF00F8F9
:10085000012B00F8012B48BF00F8012B70474FF027
:10086000000200B5134694469646203922BFA0E800
:100870000C50A0E80C50B1F12001BFF4F7AF09070C
:1008800028BFA0E80C5048BF0CC05DF804EB8900FD
:1008900028BF40F8042B08BF704748BF20F8022B40
:1008A00011F0804F18BF00F8012B704710B50446B7
:1008B00010F0030F08BF11F0030F40F015804FF048
:1008C000013E121FC0F20E8051F8043BA3EB0E0C48
:1008D0002CEA030C1CEACE1C08BF40F8043BF0D005
:1008E000A1F1040102F10402521E08DB11F8013BE0
:1008F000002B00F8013BF7D11146FFF78EFF204691
:1009000010BD00004FF0013C50F8042B51F8043B9F
:100910009A4221D1A2EB0C03934313EACC1317D1D3
:1009200050F8042B51F8043B9A4215D1A2EB0C036A
:10093000934313EACC130BD150F8042B51F8043B2A
:100940009A4209D1A2EB0C03934313EACC13DBD0F8
:100950004FF00000704700BFD01A01BAB1FA81F120
:1009600001F0180122FA01F0CB40C1F12001DBB205
:10097000C0B2C01A2CFA01F3D11A914311EAC31183
:10098000E6D17047704770477047000000487047D5
:100990009447002010B5044600F06CF90068005D33
:1009A000C00602D504F1200010BD204610BD2DE97F
:1009B000F0470D4699469246044600F12408016826
:1009C000880604D5E06921F01001216000E00120D3
:1009D000A84201DD471B00E00027A1697A1902EB5C
:1009E0000900081AA0612078C00602D42046FFF74B
:1009F0003DFC002608E0D4E901211AF806009047E2
:100A0000206A401C761C20624E45F4DB2078C0062C
:100A10000AD52046FFF72AFC06E0D4E90121302060
:100A20009047206A401C2062381EA7F10107F4DCC1
:100A300007E0D4E9012118F805009047206A401C1E
:100A40002062281EA5F10105F3DC2046FFF724FCF7
:100A50002078000602D50220BDE8F0870120FBE7E0
:100A600001694A1C02610878704700B58FB0CDE972
:100A700001310021059105497944CDE90310114662
:100A80006846FFF7C9FC0FB000BD0000E5FFFFFF9F
:100A90000A6802F8010B0A607047D1E900239A4204
:100AA00002D2531C0B601070704710B5436913B12C
:100AB000AFF3008001E0FFF700FC012010BD1278C9
:100AC00000F124010A7000224A700122EDE711684A
:100AD0004FF0FF32E9E72DE9F04791460F46804697
:100AE0000446002614F8015B2DB100F0C3F800683D
:100AF000405DC007F6D12B2D02D02D2D18D0641EDD
:100B00004A463946204600F0BDF827B13968A1426F
:100B100001D1C7F800804FF0020471050BD54042A7
:100B2000002803DDFFF732FF0460A007BDE8F0876F
:100B300046F48066E4E70028F8DAFFF727FF046050
:100B40006FF00040F2E700002DE9F04115460E4637
:100B5000040002D12C6804B90BA4204600F0F1F87F
:100B60000444207870B127463146384600F0D9F861
:100B70000444207810B1002004F8010B38462C60A2
:100B8000BDE8F0810027F9E70000000010B5203A29
:100B9000C0F00B80B1E81850203AA0E81850B1E836
:100BA0001850A0E81850BFF4F5AF5FEA027C24BFEC
:100BB000B1E81850A0E8185044BF18C918C0BDE8E3
:100BC00010405FEA827C24BF51F8043B40F8043BAC
:100BD00008BF7047D20728BF31F8023B48BF11F861
:100BE000012B28BF20F8023B48BF00F8012B7047BB
:100BF000431A28BF9A427FF6C9AF104410F0030F82
:100C000011441EBF11F8013D521E00F8013D10F0C5
:100C1000030F7FF4F6AF103AC0F00A8010B531E947
:100C20001850103A20E91850BFF4F9AFBDE8104051
:100C3000530724BF31E9081020E9081044BF51F8D8
:100C4000043D40F8043D12F0030F08BF7047D2077F
:100C500028BF31F8023D48BF11F8012C28BF20F809
:100C6000023D48BF00F8012C704700000048704763
:100C70009447002010B500F097F8001D10BD00BF8C
:100C8000F19900002DE9F05F824615468B4600275A
:100C90000AF10104B9460078302801D09DB113E073
:100CA00014F8010B0127782803D0582801D045B14A
:100CB0000AE00DB1102D07D1002714F8010B102503
:100CC00002E0082500E00A250026B0460EE005FBFC
:100CD000080005FB06F101271FFA80F801EB10461A
:100CE000B6F5803F00D3B94614F8010B294600F051
:100CF0005FF80028EBDABBF1000F05D00FB1641EDE
:100D000000E05446CBF80040B9F1000F06D0FFF7E1
:100D10003DFE02210160C81EBDE8F09F48EA064082
:100D2000FAE730B503461D781DB10A4603E0AC4230
:100D300001D1181A30BD12F8014B002CF7D15B1C01
:100D4000F1E730B503461D783DB10A4612F8014B74
:100D50001CB1AC42FAD15B1CF5E7181A30BD7546E0
:100D6000FFF784FFAE4605006946534620F00700B2
:100D7000854618B020B5FFF74BFABDE820404FF08C
:100D800000064FF000074FF000084FF0000B21F075
:100D90000701AC46ACE8C009ACE8C009ACE8C00942
:100DA000ACE8C0098D46704700487047B447002042
:100DB0003A2800D2303820F02002412A01D3A2F193
:100DC0003700884201D34FF0FF3070470446AFF33D
:100DD00000802046FFF708FA01491820ABBEFEE765
:100DE000260002007047FEE7002070470020704791
:100DF00000B591B000222F492F4808F04FF92F4934
:100E00002D4808F045F92EA002F056FF37A002F059
:100E100053FF3FA002F050FF48A002F04DFF03F047
:100E2000BFFA034681280DD04BA240216846FFF748
:100E300001FA684602F040FF51A002F03DFF03F0C6
:100E400055FB05E055A002F037FF5DA002F034FF2E
:100E50006648837853B1C07840B1009064A24021C5
:100E600001A8FFF7E7F901A802F026FF67A002F04A
:100E700023FF6CA002F020FF74A002F01DFF7FA0F2
:100E800002F01AFF8CA002F017FF99A002F014FFE5
:100E9000A5A002F011FFB2A002F00EFFB9A002F06F
:100EA0000BFFC7A002F008FFCEA002F005FF11B0B3
:100EB000002000BD780C0020B4020020780B002038
:100EC0000D0A3D3D3D3D3D3D3D3D3D3D3D3D3D3DB5
:100ED0003D3D3D3D3D3D3D3D3D3D3D3D3D3D3D3D42
:100EE0003D3D3D3D3D3D3D3D0D0A00002020202083
:100EF0006D6158546F756368363430205553422005
:100F000043444320496E746572666163650D0A004F
:100F10003D3D3D3D3D3D3D3D3D3D3D3D3D3D3D3D01
:100F20003D3D3D3D3D3D3D3D3D3D3D3D3D3D3D3DF1
:100F30003D3D3D3D3D3D0D0A000000005363616EA7
:100F40006E696E6720493243206164647265737311
:100F50002E2E2E0D0A000000466F756E642064650B
:100F6000766963652061742049324320616464724C
:100F70006573733A203078253032580D0A0000002E
:100F800052656164696E672064657669636520698E
:100F90006E666F2E2E2E0D0A000000004552524F35
:100FA000523A204E6F206D6158546F75636820640B
:100FB000657669636520666F756E64210D0A0000B1
:100FC000506C6561736520636865636B20493243CB
:100FD00020636F6E6E656374696F6E7320616E64FB
:100FE00020706F7765722E0D0A00000050000020FF
:100FF0004D61747269782053697A653A20583D25AD
:10100000642C20593D25640D0A0000000D0A41762C
:1010100061696C61626C6520636F6D6D616E647394
:101020003A0D0A00202048454C502020202D205306
:10103000686F7720617661696C61626C6520636FAF
:101040006D6D616E64730D0A000000002020494E32
:10105000464F2020202D205265616420496E666F26
:1010600020426C6F636B20283078303030302C2079
:1010700037206279746573290D0A000020204F42E1
:101080004A54424C202D2052656164206F626A658B
:101090006374207461626C6520283078303030379A
:1010A0002C206669727374203130206F626A656328
:1010B0007473290D0A00000020204D5347434E54FD
:1010C000202D2052656164206D6573736167652012
:1010D000636F756E7420285434342066726F6D20EF
:1010E0006F626A656374207461626C65290D0A0021
:1010F00020204D5347202020202D20526561642060
:101100006F6E65206D6573736167652028543520A7
:1011100066726F6D206F626A656374207461626CC1
:1011200065290D0A0000000020205354415254202C
:10113000202D20537461727420646961676E6F732F
:10114000746963206F757470757420283130303085
:101150006D7320696E74657276616C290D0A0000EA
:10116000202053544F502020202D2053746F702086
:10117000646961676E6F73746963206F75747075ED
:10118000740D0A0020204652414D4520202D20524A
:10119000656164206F6E6520646961676E6F73744A
:1011A0006963206672616D6520284D757475616C88
:1011B000205265666572656E6365290D0A00000040
:1011C0002020752020202020202D20456E7465725F
:1011D00020646961676E6F73746963206D656E75F5
:1011E0000D0A00002D2D2D2D2D2D2D2D2D2D2D2DCC
:1011F0002D2D2D2D2D2D2D2D2D2D2D2D2D2D2D2D1F
:101200002D2D2D2D2D2D2D2D2D0D0A0010B5040069
:1012100003D0096809B104F0A3FE2146034807F092
:1012200037FF024807F018FF002010BDB40200206D
:10123000094A10B5D2F8B822D2F814220AB1012016
:1012400010BD0A460146044807F028FFBDE81040DB
:10125000014807F081BF0000B402002010B560B162
:1012600002290AD34218891E32F8024C89B204F0CE
:1012700083FC844201D1012010BD002010BD1CB5AB
:101280008DF800008DF80110080A8DF802008DF825
:1012900003200421684604F06FFC8DF80400000A66
:1012A0008DF805000621684607F0A2FD1CBD000070
:1012B00070B502004FF6FF75284641F2210400D0B8
:1012C00099B9002070BD00BF12F8013B80EA0320ED
:1012D0000023060403D584EA400080B201E005EA59
:1012E00040005B1CDBB2082BF3D3491E89B2EBD262
:1012F00070BD704710B50B4C206800070FD5082152
:10130000094800F089F958B15FF000024FF400512C
:10131000064800F086F904F0D7FA0820206010BDD6
:101320000122F3E7140401400008014000100140CD
:1013300072B6FEE710B590F821100022022905D000
:101340000421816380F82020012010BD01680B6812
:1013500023F00E030B6001680B6823F001030B60A0
:1013600090F84030C46B012101FA03F3636080F808
:10137000211080F82020104610BD000010B590F814
:1013800021100024022903D00421816301243DE0BF
:1013900001680A6822F00E020A6001680A6822F0F9
:1013A00001020A601A4A0168914201D1012121E03B
:1013B000174A1432914201D110211BE0144A2832FD
:1013C000914201D1891515E0114A3C32914201D177
:1013D00089140FE00E4A5032914202D14FF480310D
:1013E00008E00B4A6432914202D14FF4801101E0CF
:1013F0004FF08071064A083A5160012180F82110AF
:10140000002180F82010416B01B18847204610BDB3
:101410000800024070B5044600F008F90546601C5B
:1014200002D004480078044400F000F9401BA042B8
:10143000FAD370BDE00000202DE9F84FDFF8B89135
:101440000024A9F1040B23460F2709F1040AABF18C
:10145000040EC9E00125A5402A40AA427DD1674E6D
:10146000D1F804C0ACEB0608B44532D014DCBCF1B2
:10147000030F3AD009DCBCF1000F2AD0BCF1010FF8
:101480001CD0BCF1020F31D11DE0BCF1110F17D0FF
:10149000BCF1120F2AD119E0B8F5881F19D006DC6B
:1014A000B8F5803F15D0B8F5801F1FD111E0B8F511
:1014B000001F0ED0B8F5041F18D10AE0CB6815E064
:1014C000CB681B1D12E0CB6808330FE0CB680C33F0
:1014D0000CE08B682BB1012B4FF0080303D0456162
:1014E00004E0042302E0056100E00023FF2A01D8A4
:1014F000064601E000F104064FEA840501D9A5F192
:101500002005D6F8008007FA05FC28EA0C0803FA43
:1015100005F548EA0508C6F800804D68ED0062D57B
:10152000374DAE6946F00106AE61AD6924F00306A1
:1015300005F001050095334D06EB050CDCF808506D
:10154000A607360F07FA06F825EA0805DFF8B8807F
:10155000404503D14FF0000817E044E0DFF8AC80CD
:10156000404502D14FF001080FE0DFF8A48040456C
:1015700002D14FF0020808E0DFF89880404502D120
:101580004FF0030801E04FF0040808FA06F848EAB3
:101590000508CCF808804D68D9F80060ED024D468A
:1015A00001D5164300E096432E604D68DAF80060DE
:1015B000AD02554601D5164300E096432E604D68B6
:1015C000DBF80060AD035D4601D5164300E09643AD
:1015D0002E604D68DEF80060ED03754601D51643B8
:1015E00000E096432E60641C0D682A46E5407FF4B7
:1015F00031AFBDE8F88F0000080401400000111071
:10160000001002400000014000080140000C0140B1
:1016100000100140001401408068084000D0012003
:1016200070470AB1016170470904FBE7014880680F
:1016300070470000E000002070B5040025D094F849
:101640003D00002520B984F83C50204600F0F2FC13
:10165000242084F83D002068016821F00101016028
:101660002068016841F4004101602068016821F4AC
:101670000041016001F056FB4D4A6168914201D87A
:101680004C4900E04C49884201D2012070BD4B49D1
:101690002368B0FBF1F15E6826F03F060E435E6002
:1016A0006368934206D94FF4967359434FF47A73A3
:1016B000B1FBF3F12368491C1E6A26F03F06314353
:1016C00019626168914210D84900401EB0FBF1F2E6
:1016D000521CC2F30B02042A01D2042022E0B0FB08
:1016E000F1F0401CC0F30B001CE0A268F2B301EB68
:1016F000C10303EB0116431EB3FBF6F35B1C43F47B
:1017000080431B0549D092B301EBC10202EB0111EA
:10171000401EB0FBF1F0401CC0F30B0040F48040D1
:1017200040F400402168CA694CF6FF739A431043A5
:10173000C861D4E9071001432068026822F0C002A2
:1017400011430160D4E9030101432068826848F233
:10175000FF339A4311438160D4E9050108432168AE
:10176000CA6822F0FF021043C86001E00EE016E0F4
:101770002068016841F0010101602564202084F89F
:101780003D00256384F83E50002070BD01EB41060A
:10179000431EB3FBF6F35B1CB3E70120C2E701EB8A
:1017A0004101401EB0FBF1F0401CC0F30B00B7E755
:1017B000A086010080841E0000093D0040420F0009
:1017C0002DE9FF4F81B089460446FFF72FFF0546FC
:1017D00094F83D004FF0000820287DD11923012204
:1017E00050492046009502F0EDF8002874D194F895
:1017F0003C00012870D0012084F83C00206801687A
:10180000C90703D1016841F0010101602068016846
:1018100021F400610160242084F83D000026266444
:101820004148E0624FF0011B20272068016841F425
:10183000807101600095002259462046049B02F009
:10184000C1F850B120680068C00502D54FF400709F
:101850002064032005B0BDE8F08F216809F0FE0088
:101860000861FFF7E3FE2168054648694969C0F34E
:101870004000C1F380214FF0A00A0FE0FFF7D6FE31
:10188000411B0498814200D808B984F83DA0216822
:1018900048694969C0F34000C1F3802194F83D20B4
:1018A000A02A02D008B90029E8D084F83D70206849
:1018B0004169C943890716D4016841F40071016088
:1018C0002068416980691923012216492046009544
:1018D00002F078F8B8B900E021E084F83D7084F8AF
:1018E0003C600020B6E7016841F4007101602168A6
:1018F0006FF480604861192301220A49204600954F
:1019000002F060F808B10120A4E7039808F101088B
:1019100080458AD384F83D7084F83C60F3E7022068
:1019200098E70000020010000000FFFF2DE9F84FCB
:101930000025DDF82890984617468A46044600950B
:10194000FFF774FE064694F83D0020287AD119234B
:10195000012286492046009602F034F80028F5D18D
:1019600094F83C0001286DD0012084F83C002068E8
:101970000168C90703D1016841F0010101602068D5
:10198000016821F400610160222084F83D001020EC
:1019900084F83E0025646762A4F82A80608D208563
:1019A0007348E06233464A465146204601F048FEFD
:1019B00000287CD1208DDFF8BC81202768B1012868
:1019C00014D00228206801681ED041F480610160B3
:1019D0002068416980690090BBE0206841698169A5
:1019E0000091016841F400710160B2E02068016873
:1019F00021F48061016072B62068416981690091BB
:101A0000016841F400710AE041F40061016072B6BE
:101A10002068416981690091016821F48061016059
:101A200062B696E0032865D801280CD002284B4600
:101A30004FF000024146204600960BD001F0C2FF55
:101A4000A8BB0CE090E032464946204602F060F820
:101A500068BB71E001F0B6FF48BB72B633E02068A6
:101A6000016821F48061016072B620680069616AD2
:101A70000870606A401C6062208D401E2085608D69
:101A8000401E60853C4846F2A8110068B0FBF1F0AA
:101A9000C0EBC00000EB80000090401E009007D01B
:101AA00020684069C04340070DD50098F5E727E05E
:101AB00044F8305F6773A573206940F0200020610F
:101AC00062B625731CE02068016841F40071016072
:101AD00020680069616A0870606A401C6062218D3C
:101AE000491E2185618D491E618562B6216809699B
:101AF000017025E032464946204602F009F810B14F
:101B00000120BDE8F88F20680069616A0870606A8A
:101B1000401C6062208D401E81B22185608D401E78
:101B2000608520684269D243520712D4032903D149
:101B3000016821F48061016020680069616A0870B1
:101B4000606A401C6062208D401E2085608D401EB2
:101B50006085208D00287FF465AF84F83D7084F89F
:101B60003E5084F83C50CCE70220CAE70200100047
:101B70000000FFFF04000100EC0000202DE9F84FF9
:101B80001F4690468A460446DDF82890FFF74EFD32
:101B9000054694F83D0020287FD1192301224049B1
:101BA0002046009501F00EFF002876D194F83C0005
:101BB000012872D0012084F83C0020680168C90720
:101BC00003D1016841F0010101602068016821F43E
:101BD00000610160212084F83D00102084F83E005F
:101BE00000262664C4F824806785608D20852D48F2
:101BF000E0622B464A465146204601F097FD90B9D7
:101C0000206841698069009036E02A4649462046AE
:101C100001F0B6FF50B1206C042804D1206801689F
:101C200041F4007101600120BDE8F88F606A21680D
:101C300000780861606A401C6062618D491E6185A0
:101C4000218D491E89B2218522685369DB435B07D8
:101C50000BD451B100781061606A401C6062608DE5
:101C6000401E6085208D401E20852A46494620461C
:101C700001F07CFE0028CED1208D0028C5D154F87B
:101C80003D0B016841F400710160202004F81E0939
:101C9000E67766770020C7E7FFE70220C4E7000089
:101CA000020010000000FFFF2DE9FF4F83B0002568
:101CB000DDE910799A4693460446DDF848800095A0
:101CC000FFF7B4FC064694F83D0020287CD1192388
:101CD000012288492046009601F074FE0028F5D1C3
:101CE00094F83C0001286FD0012084F83C00206863
:101CF0000168C90703D1016841F001010160206852
:101D0000016821F400610160222084F83D00402038
:101D100084F83E0025646762A4F82A90608D2085CF
:101D20007548E062CDE9008653465A46204604993C
:101D300001F04AFD00287CD1208DDFF8C0912027DA
:101D400068B1012814D00228206801681ED041F42F
:101D5000806101602068416980690090BCE0206872
:101D6000416981690091016841F400710160B3E04B
:101D70002068016821F48061016072B620684169C1
:101D800081690091016841F400710AE041F4006149
:101D9000016072B62068416981690091016821F48F
:101DA0008061016062B697E0032865D801280CD0F5
:101DB000022843464FF000024946204600960BD0C9
:101DC00001F000FEA8BB0CE091E0324641462046FF
:101DD00001F09EFE68BB72E001F0F4FD48BB72B6F4
:101DE00033E02068016821F48061016072B62068E8
:101DF0000069616A0870606A401C6062208D401E44
:101E00002085608D401E60853D4846F2A81100681F
:101E1000B0FBF1F0C0EBC00000EB80000090401E72
:101E2000009007D020684069C04340070DD5009856
:101E3000F5E727E044F8305F6773A573206940F049
:101E40002000206162B625731CE02068016841F41F
:101E50000071016020680069616A0870606A401C56
:101E60006062218D491E2185618D491E618562B6A2
:101E700021680969017026E032464146204601F09A
:101E800047FE18B1012007B0BDE8F08F2068006957
:101E9000616A0870606A401C6062208D401E81B2D9
:101EA0002185608D401E608520684269D2435207BB
:101EB00012D4032903D1016821F4806101602068F4
:101EC0000069616A0870606A401C6062208D401E73
:101ED0002085608D401E6085208D00287FF464AFD2
:101EE00084F83D7084F83E5084F83C50CBE70220E3
:101EF000C9E70000020010000000FFFF040001001D
:101F0000EC0000202DE9FF4F83B09A46DDE91197E0
:101F100093460446DDF84080FFF788FB054694F8B9
:101F20003D0020287FD119230122404920460095F9
:101F300001F048FD002876D194F83C00012872D0C9
:101F4000012084F83C0020680168C90703D10168BA
:101F500041F0010101602068016821F40061016025
:101F6000212084F83D00402084F83E0000262664AD
:101F7000C4F82480A4F82A90608D20852C48E06263
:101F8000CDE9007553465A462046049901F09AFC63
:101F900070B930E02A463946204601F0F1FD58B1CB
:101FA000206C042804D12068016841F400710160AC
:101FB000012007B0BDE8F08F606A216800780861F1
:101FC000606A401C6062218D491E89B22185628D44
:101FD000521E628522685369DB435B070BD469B1EB
:101FE00000781061606A401C6062208D401E208570
:101FF000608D401E6085208D0028CBD12A46394651
:10200000204601F0B3FC0028CAD154F83D0B01680A
:1020100041F400710160202004F81E09E67766771C
:102020000020C6E7FFE70220C3E70000020010001F
:102030000000FFFF10B586B00021009101910291D0
:1020400003910068104988421BD1104CA06940F0F0
:102050000800A061A069694600F0080004904FF4F0
:102060004060009012200190032003900848FFF781
:10207000E3F9E06940F48000E061E06900F4800089
:10208000049006B010BD000000580040001002404F
:10209000000C014002488168027811448160704759
:1020A000E0000020074810B5016841F01001016010
:1020B000032000F075F80F2000F006F800F024F877
:1020C000002010BD0020024070B50D4D04464FF4B5
:1020D0007A712878B1FBF0F00A490968B1FBF0F099
:1020E00001F081FA48B9102C07D200222146501E77
:1020F00000F036F800206C6070BD012070BD00005B
:10210000E0000020EC0000200C4808B5816941F097
:1021100001018161816901F001010091C16941F012
:102120008051C161C06900F080500090044841684E
:1021300021F0E06141F00071416008BD00100240F3
:1021400000000140002809DB00F01F02012191403E
:102150004009800000F1E020C0F800117047000045
:10216000F0B40E4B1B680C46C3F30223C3F1070502
:10217000042D00D90425191D072901D2002300E0F0
:10218000DB1E012606FA05F1491E214099409E40BA
:10219000761E16403143F0BC08F012BA0CED00E098
:1021A000064900F0070208684FF6FF03184040EAAE
:1021B0000220034A10430860704700000CED00E065
:1021C0000000FA0510B50C0607D501F0070101EB78
:1021D000810100EBC100103005E001EB810100EB53
:1021E000C10000F5A87099B232B1012202730181D9
:1021F000190C4181002010BD00220273C180F9E753
:10220000704701EB810200EBC202D0F8D402526A9F
:1022100007F051B901EB810200EBC202D0F8D40201
:10222000D2F8642107F0AAB970B504460B0601F094
:10223000070000EB800104EBC1014FF001024FF0F9
:10224000000502D54A74103103E081F8515101F5BF
:10225000A871087094F89002012808D084F89022A0
:10226000206807F0EBFD84F89052002070BD02203A
:1022700070BD70B5044601F00F002279904201D97B
:10228000012070BD0B0601F0070000EB800104EB9C
:10229000C1014FF001024FF0000502D54A74103120
:1022A00003E081F8515101F5A8718D70087094F820
:1022B0009002012808D084F89022206807F05BFE85
:1022C00084F89052002070BD022070BD2DE9F05FAF
:1022D00004685FEA424C0B788D69B4F850C04FF047
:1022E00000064BF68F7948F2800A48F68F7B48F259
:1022F000C00E4FF480672AD54FF0020808EBC308E0
:10230000C44407EB4C07E45BC4F30904A54203D3C0
:102310002D1B8D6101D00BE08E61066836F82350CD
:1023200005EA090585F4005545EA0A0526F8235013
:10233000520609D50D78036833F8252002EA0B020E
:1023400042EA0E0223F8252084B30A8929E04FF0DF
:10235000060808EBC308C44407EB4C07E45BC4F36E
:102360000904A54203D32D1B8D6101D00BE08E61C2
:10237000066836F8235005EA090585F4005545EA54
:102380000A0526F82350520609D40B78056835F85B
:10239000232002EA0B0242EA0E0225F823202CB188
:1023A0004A8949690068234608F0C4F82046BDE818
:1023B000F09F2DE9F05F054600680C465FEA426C2D
:1023C00016468B692278B0F850C048F68F774CF2E9
:1023D00080094FF4004B4FF6FF7E4FF4806A4FF0B8
:1023E000000172D54FF0020808EBC208E0440AEB86
:1023F000480C30F80C00C0F30900834211D91B1AB5
:10240000A3610FD0730407D52E6836F822303B4005
:1024100043EA090326F8223094F82420012A47D001
:1024200052E1A161607810B1012813D01AE0286848
:10243000B0F85030184400EB0210B0F80424C2F396
:102440000902A0F80424B0F8042442F40042A0F8E1
:10245000042407E02868B0F85030184400EB02105C
:10246000A0F804146278286812B1012A11D018E08B
:10247000B0F850100844217800EB0110B0F80C14AB
:10248000C1F30901A0F80C14B0F80C1441F4004198
:1024900005E0B0F850201044227800EB0210A0F8BC
:1024A0000C1421782846FFF7ACFE700472D40BE1BF
:1024B000626902446261E2690244E2612369226A5C
:1024C0009A4203D31846111A04E03EE084F824101F
:1024D0000AB110462162617811B1012929D031E099
:1024E0002968B1F850201144227801EB0211B1F8AB
:1024F0000424C2F30902A1F8042401F204413E2895
:1025000007D94209C30600D1521E0B884BEA82222A
:1025100007E048B14208C30700D0521C0B880EEAFE
:10252000822213430B800DE00A8842F400420A80A5
:1025300008E02968B1F850201144227801EB02111B
:10254000A1F8040483B22289BAE04FF0060808EB30
:10255000C208E0440AEB480C30F80C00C0F3090054
:10256000834211D31B1AA3610FD0730407D42E68C2
:1025700036F822303B4043EA090326F8223094F82B
:102580002420012A51D09FE0A161607818B1012870
:1025900014D01BE03FE02868B0F85030184400EB3E
:1025A0000210B0F80424C2F30902A0F80424B0F821
:1025B000042442F40042A0F8042407E02868B0F89C
:1025C0005030184400EB0210A0F804146278286818
:1025D00012B1012A11D018E0B0F850100844217847
:1025E00000EB0110B0F80C14C1F30901A0F80C14B1
:1025F000B0F80C1441F4004105E0B0F8502010444C
:10260000227800EB0210A0F80C1421782846FFF77E
:10261000F8FD700458D42278296831F82200384037
:1026200040EA090021F822004EE06269024462613A
:10263000E2690244E2612369226A9A4203D318469E
:10264000111A216204E00AB11046216284F82410B4
:102650006278296812B1012A28D02FE0B1F8502001
:102660001144227801EB0211B1F80C24C2F30902E3
:10267000A1F80C2401F20C413E2807D94209C306F7
:1026800000D1521E0B884BEA822207E048B1420873
:10269000C30700D0521C0B880EEA822213430B8022
:1026A0000CE00A8842F400420A8007E0B1F85020AA
:1026B0001144227801EB0211A1F80C04628983B263
:1026C0006169286807F068FF2278296831F82200DC
:1026D00048F6BF73184080F0300048F2800318437A
:1026E00021F822000020BDE8F09F01F0070101EB76
:1026F000810100EBC100D0F86C0170472DE9F04179
:1027000004460F0601F0070000EB800104EBC10155
:102710004FF001064FF0000502D54E74103103E072
:1027200081F8515101F5A871022B08700A61CB7034
:1027300000D10D7194F89002012809D084F89062BC
:10274000206807F02BFA284684F89052BDE8F08103
:102750000220FBE710B501F0070404EB840100EB55
:10276000C101C1E959230022C1F86C2181F851212E
:1027700081F85041006801F5A87107F051FC002074
:1027800010BD70B504460D4601F00700217988425E
:1027900001D9012070BD29064FF000064FF001025B
:1027A00006D500EB800104EBC1014A74103107E04B
:1027B00005EB850104EBC10181F8516101F5A871B8
:1027C0008A70087094F89002012807D084F890224B
:1027D000206807F00CFC680702D006E0022070BDFC
:1027E00004F52671206807F0C4FB84F8906200208D
:1027F00070BD10B501F0070404EB840100EBC101CA
:10280000C1E90923012281F834200B630023CB6244
:102810004A7401F8104F006807F002FC002010BD58
:102820001FB50446006807F081FE010403D5204669
:1028300003F0C2F91FBD41050DD5206830F8441FD3
:1028400021F480610180204600F000F9002120463B
:1028500000F017F91FBD410405D5206830F8441F6A
:1028600021F4804174E0810405D5206830F8441FCC
:1028700021F400516CE0C10414D5206830F8401FE9
:1028800021F004010180206830F8401F21F0080188
:102890000180204600F0EDF8206830F8441F21F454
:1028A000805155E0010540D5D4F80020002069464C
:1028B00032F8203021F81030401CC0B20828F7D37D
:1028C00032F8400F40F001001080206830F8402FAF
:1028D00022F0010202802068B0F844205205FBD5A6
:1028E00030F8442F22F4806202800020236831F8FF
:1028F000102023F82020401CC0B20828F6D32068FE
:1029000030F8401F41F008010180206830F8441F72
:1029100021F400610180206830F8401F41F004017B
:102920000180204600F0E0F81FBD810509D5206830
:1029300030F8441F21F400710180204600F09DF81A
:102940001FBDC005FCD5206830F8441F21F48071FC
:1029500001801FBD2DE9F041040004D094F89102DC
:10296000002518B107E00120BDE8F08184F89052FD
:10297000204600F04DF8032084F89102657120682C
:1029800007F0F0FA94E80F0007F056FA022698BB19
:102990000021206807F0F8FD70BB002001270BE044
:1029A00000EB800104EBC1014F740874CD740D621B
:1029B0004D62401CC0B28D6221798142F0D8002066
:1029C00012E000BF00EB800104EBC10181F851511E
:1029D00081F8500181F85351C1F86051C1F8645138
:1029E000401CC0B2C1F8685121798142EAD894E80C
:1029F0000F0007F0AEFA10B184F89162B3E7657387
:102A000084F89172206807F0A2FA0020ACE7000079
:102A100008B500680B49884212D10B48C16941F4DE
:102A20000001C161C069002200F40000009011465D
:102A30001420FFF795FBBDE808401420FFF782BB88
:102A400008BD0000005C00400010024070B5044664
:102A500080790125022801D0FEF76AFC2946D4F8C6
:102A6000D40206F073FED4F8D402BDE8704006F03C
:102A70002FBED0F8D40206F053BED0F8D40206F030
:102A800059BE10B5044690F8900201280AD00120E2
:102A900084F890026173206807F078FD002084F8C4
:102AA000900210BD022010BDD0F8D42200F526718E
:102AB000104606F057BE10B5044690F89002012863
:102AC00010D0012084F89002206807F01AFD01213F
:102AD0002046FFF795FB206807F037FA002084F8BE
:102AE000900210BD022010BD10B50446D0F8D402EB
:102AF00006F077FEA07A002804D00348016841F070
:102B00000601016010BD000010ED00E02DE9F84362
:102B100005460078354CC00754D0E0690026C00057
:102B200008D4E06940F08050E061E069012600F0DF
:102B3000805000902E480168C90512D40168804673
:102B400041F480710160FEF771FD074605E000BFAA
:102B5000FEF76CFDC01B642823D8D8F80000C00520
:102B6000F6D5206A10F4407021D0A98801F4407194
:102B700081421CD0206A1F49012220F440700A6063
:102B800000220A602062C00711D0FEF74FFD074601
:102B900041F2883808E000BFFEF748FDC11B4145FF
:102BA00002D90320BDE8F883206A8007F4D5206AA3
:102BB000696820F44070084320621EB1E06920F08B
:102BC0008050E0612878800705D56068A96820F406
:102BD0004040084360602878C00605D56068E96811
:102BE00020F48000084360600020DBE70010024012
:102BF00000700040400442422DE9F0470F460500B6
:102C000061D0434E306800F00700B84209D2306806
:102C100020F0070038433060306800F00700B84209
:102C200051D128683B4C810712D5400703D5606815
:102C300040F4E06060602878000703D5606840F4E5
:102C4000605060606068A96820F0F0000843606030
:102C50002878C00728D06868012810D02168022889
:102C600010D0890700292EDA616821F003010143A1
:102C70006160FEF7DBFC804641F288390DE0216897
:102C80008903EFE78901EDE7FEF7D0FCA0EB08012F
:102C9000494502D90320BDE8F0876068696800F003
:102CA0000C00B0EB810FEFD1306800F00700B842A4
:102CB0000BD9306820F0070038433060306800F0EE
:102CC0000700B84201D00120E5E72878400705D584
:102CD0006068E96820F4E0600843606028780007D5
:102CE00006D56068296920F4605040EAC100606040
:102CF00000F028F86168084AC1F30311515CC8402C
:102D00000649086006480068FFF7DEF90020C2E7C0
:102D10000020024000100240B2A60008EC00002093
:102D2000E40000200448054900684968044AC1F3EA
:102D30000221515CC8407047EC00002000100240A6
:102D4000C2A600080E4A51680E4801F00C03042B7D
:102D500011D0082B0FD10C48C1F38343C903C05CC9
:102D60000AD55168084AC1F34041921E515C054A98
:102D70005043B0FBF1F070470449484370470000EE
:102D80000010024000127A00A2A6000800093D00CF
:102D90002DE9F84F040070D02078C04DC00749D00D
:102DA0006868C0F38100012807D06868C0F381001B
:102DB000022809D16868C00306D52868800339D580
:102DC00060680028E7D035E06068B0F5803F0BD040
:102DD00010B1B0F5A02F11D0286820F48030286001
:102DE000286820F4802002E0286840F480302860C1
:102DF000606890B1FEF71AFC06460AE0286840F4C5
:102E000080202860F0E700BFFEF710FC801B6428DC
:102E100073D828688003F7D50CE0FEF707FC064658
:102E200005E000BFFEF702FC801B6428F0D828688C
:102E30008003F7D420789A4E80074FF001094FF0B5
:102E4000000839D5686810F00C0F07D06868C0F327
:102E50008100022809D16868C00306D42868800769
:102E600014D52069012808D110E02069B0B1C6F856
:102E70000090FEF7DBFB074605E00AE1FEF7D6FB14
:102E8000C01B0228C4D828688007F7D52868616964
:102E900020F0F80040EAC10028600DE0C6F800808C
:102EA000FEF7C4FB074604E0FEF7C0FBC01B022888
:102EB00023D828688007F7D4207800072CD57948D4
:102EC000A169D9B1C0F80090FEF7B0FB074604E055
:102ED000FEF7ACFBC01B02280FD8686A8007F7D545
:102EE00071484FF4FA510068B0FBF1F0009000BF58
:102EF0000098411E0091FAD20EE080E0C0F80080F8
:102F0000FEF794FB074604E0FEF790FBC01B022887
:102F100075D8686A8007F7D42078400760D5E869DB
:102F20000027C00008D4E86940F08050E861E869F3
:102F3000012700F0805000905C480168C90513D457
:102F40000168834641F480710160FEF76FFB8246A1
:102F500006E000BFFEF76AFBA0EB0A0064284ED82B
:102F6000DBF80000C005F5D5E06801280AD008B1FB
:102F7000052813D0286A20F001002862286A20F072
:102F8000040002E0286A40F001002862E06841F293
:102F9000883B98B1FEF74AFB82460BE0286A40F076
:102FA00004002862EEE700BFFEF740FBA0EB0A0139
:102FB00059455AD8286A8007F6D50CE0FEF736FB4B
:102FC000824605E0FEF732FBA0EB0A0159454CD8DA
:102FD000286A8007F6D41FB1E86920F08050E861C4
:102FE000E06988B36968C1F38101022944D00228ED
:102FF000C6F8608004D0FEF719FB044638E034E0E0
:10300000FEF714FB074604E0FEF710FBC01B022886
:103010002BD828688001F7D4206AB0F5803F05D10D
:103020006868A16820F4003008436860D4E90801AA
:103030000843696821F4741108436860C6F8609019
:10304000FEF7F4FA044606E025E000BFFEF7EEFACC
:10305000001B022809D828688001F7D51BE000BFB3
:10306000FEF7E4FA001B022802D90320BDE8F88F1E
:1030700028688001F4D40EE00128F7D06868226A3D
:1030800000F48031914204D1616A00F470108842EA
:1030900001D00120EAE70020E8E70000001002402C
:1030A0000000424280044242EC00002000700040D8
:1030B0002DE9FC410446434845F6C051002600680E
:1030C000B0FBF1F064214843019000902068416812
:1030D00021F0200141602068416809060CD53A4979
:1030E0006164009900295AD0491E009194F851104A
:1030F0000729F6D101990091416849060BD533495A
:1031000021640099F1B3491E009194F851100729E8
:10311000F7D10199009140684FF0400780074FF0C8
:10312000000514D5A06C90B14563A06CFEF702F9C0
:1031300000B167652068416821F0020141602068A4
:10314000009989B3491E009181688907F8D52068E4
:103150004068C00711D0E06C78B14563E06CFEF7C1
:10316000E9F800B167652068016821F0400101605D
:103170002068416821F001014160E587E586606DC6
:10318000402800E011E01AD065652068C1688068B9
:103190000090012084F851003046BDE8FC81616D4B
:1031A00041F040016165A5E704E0616D41F0400137
:1031B0006165AEE7606D40F040006065C7E70126DD
:1031C000E3E70000EC0000205D8B0008058B0008A1
:1031D00001680B4882B0814210D10A48B0F84820FB
:1031E000521CA0F8482000224274CA6889680091E5
:1031F000407B002802D002B002F0A6B902B07047AE
:10320000003001405000002038B504460068426894
:103210008168C9434B0606D5CB0704D1D3435B066F
:1032200001D4216C05E08B0708D4D3431B0605D4D9
:10323000616C01B02046BDE8304008478B0601D5DF
:103240004B0646D4D3439B0643D44B060AD494F88A
:103250005130032B3ED0636D43F004036365C368B4
:1032600083680093890609D4616D41F001016165AD
:1032700081680091016821F040010160606D0028C3
:1032800027D02068416821F0E0014160012084F8E6
:103290005100900722D02068416821F0030141606D
:1032A000104DE06C40B14563E06CFEF767F818B173
:1032B000606D40F040006065A06C002809D0456357
:1032C000A06CFEF75BF8002803D0606D40F0400072
:1032D000606538BDC1688068009038BD2046FFF742
:1032E00077FF38BD558C000870B5040009D0606ABE
:1032F000002540B125616561A56294F8510040B197
:103300000CE0012070BD6068B0F5827FF4D0E5610B
:10331000F2E784F85050204600F040F8022084F88C
:1033200051002068016821F040010160A0882189D6
:1033300000F4827001F404410843A18901F40061A2
:103340000843217C01F002010843217D01F00101C5
:103350000843218B01F400710843217F01F03801FB
:10336000084394F8201001F080010843218D01F4F6
:103370000051084321680860A069042101EA104057
:10338000216848602068C16921F40061C1616565F8
:10339000012084F85100002070BD000000B585B008
:1033A0000021009101910291039100681149884226
:1033B0001ED11148816941F480518161816901F414
:1033C00080510491816941F00401816180696946FD
:1033D00000F004000490B02000900848FEF72CF89C
:1033E000002201212320FEF7BBFE2320FEF7AAFEC8
:1033F00005B000BD0030014000100240000801404F
:1034000030B4134690F85120012A27D18468042251
:103410001CB94568B5F5827F17D0E1B1DBB190F8F2
:103420005050012D1AD0012580F8505080F85120BD
:103430000022426581638387C38702638286C286D6
:103440004264C16861B116490BE080F8512030BC7C
:103450000A4600F079B8012030BC70470220FBE733
:1034600010490164B4F5004F09D101680B6823F0DD
:1034700040030B6001680B6823F480430B60016814
:103480000B685B0603D40B6843F040030B6080F8C5
:1034900050200068416841F0600141600020DBE796
:1034A000F58C0008158D00082DE9F04100682049D1
:1034B00088423BD1FEF7BAF81E4C206610211E4808
:1034C000FEF7AAF801281ED05FF00002B4F842000F
:1034D000401CC0F30A01B4F84400814215D0154BDA
:1034E0000020164D3433B4F842701E5C2F443E5415
:1034F000401C0004000CF6D01148B4F84230C2540D
:10350000A4F8421006E00122E0E7B4F84600401CAF
:10351000A4F84600607B002538B106490122343109
:103520000848FFF76DFF002800D06574BDE8F08102
:10353000003001405000002000080140FA13002034
:10354000FA1B00205C02002030B590F8514045681D
:10355000012C06D0B5F5827F24D1856815BB042CDB
:1035600020D1E9B1E2B1DBB190F85040012C19D083
:10357000012480F8504090F85140042C02D00524DA
:1035800080F851400024446501638386C3868263CA
:103590008387C387C16839B10E4901640E4906E0CB
:1035A000012030BD022030BD0C4901640C4941644A
:1035B00001680A68520603D40A6842F040020A60B1
:1035C00080F850400068416841F0E001416000200F
:1035D00030BD0000458A0008A58A0008758A0008E9
:1035E000D58A0008704710B5401EB0F1807F01D326
:1035F000012010BD4FF0E02460610F21601706F03C
:10360000DFFF0020A06107202061002010BDFEE741
:1036100001684A69D24352050FD46FF480624A614F
:10362000002140F8301F202242738173026942F06A
:1036300004020261017301207047002070470000FE
:103640002DE9F84F0446C06A1E4693460D46216890
:103650000A6842F480620A60082807D0012805D071
:1036600010F5803F02D0206B112804D1206801683A
:1036700041F4807101604FF001195B460022494618
:103680002046009600F09EF94FF4007840B1206883
:103690000068C00501D5C4F840800320BDE8F88F5C
:1036A0002069DFF884A0B0F5804F0FD00620216894
:1036B00000EAD51747F0F000086133465A460AF190
:1036C0000601204600F0C6F958BB03E0E8B240F01E
:1036D00001001CE02168E8B2086133465A465146B1
:1036E000204600F0B7F9E0B920684169816900918E
:1036F000016841F4807101605B4600224946204622
:10370000009600F05FF90028C1D147F0F100216870
:10371000086133465A465146204600F09BF900287E
:10372000BCD00120BAE7000002000100F8B5044651
:10373000C06A1E460D461746082807D0012805D046
:1037400010F5803F02D0206B122804D12068016858
:1037500041F480710160134600224FF001112046B0
:10376000009600F02FF940B120680068C00502D52E
:103770004FF4007020640320F8BD2069B0F5804F3D
:103780000ED00620216800EAD51040F0F000086154
:1037900033463A460B49204600F05CF978B902E01E
:1037A00005F0FE0000E0E8B22168086105493346F3
:1037B0003A46891F204600F04DF90028DCD0012050
:1037C000F8BD0000080001002DE9F84F044600682C
:1037D00089460B9D01689846174641F48061016057
:1037E0002068016841F48071016000954FF0011B71
:1037F0000022594620460A9B00F0E4F84FF4007A74
:1038000040B120680068C00501D5C4F840A003207D
:10381000BDE8F88F216809F0FE0008612B462849B1
:1038200020460A9A00F016F9F0BB206841698069C9
:1038300000902A4620460A9900F0A2F940B1206C77
:1038400004283AD12068016841F40071016034E035
:10385000FEB2B8F1010F09D02168380A08612A4682
:1038600020460A9900F08CF90028E8D1206806610A
:103870002A4620460A9900F083F90028DFD1206803
:10388000016841F48071016000950022594620468C
:103890000A9B00F097F80028B3D1216809F0FF00D7
:1038A00040F00100086100E007E02B460449204693
:1038B0000A9A00F0CFF80028AAD00120A8E700005B
:1038C000020001002DE9F843044600680D46DDE9D9
:1038D000089701689846164641F4807101604B468E
:1038E00000224FF001112046009700F06BF848B11C
:1038F00020680068C00502D54FF4007020640320E2
:10390000BDE8F883216805F0FE0008613B464A46A1
:103910001549204600F09EF888B920684169806901
:1039200000903A464946204600F02AF948B1206CFA
:10393000042804D12068016841F40071016001206D
:10394000DEE7F5B2B8F1010F09D02168300A08614D
:103950003A464946204600F013F90028E7D120688E
:1039600005610020CCE700000200010070B516469A
:103970000D4604461EE02046FFF74AFE08B101202E
:1039800070BD681C16D0FDF751FE801BA84200D800
:1039900085B920684069C04340070BD5002044F832
:1039A000300F20216173A073216941F02001216152
:1039B0002073E4E720684069C0434007DBD400205F
:1039C00070BD00002DE9F047984617460D460446A5
:1039D000C1F30746DDF820902AE000BFB8F1FF3FB1
:1039E00026D0FDF723FEA0EB0901414502D8B8F12E
:1039F000000F1DD12068012E16D0806925EA000035
:103A00000004000C12D00020B84211D1002044F86C
:103A1000300F20216173A073216941F020012161E1
:103A200020730120BDE8F0874069E7E70120EBE75C
:103A30002068012E0AD0806925EA00000004000CED
:103A400006D00020B842C9D00020EBE74069F3E778
:103A50000120F7E72DE9F047984616460D46044643
:103A60004FF000094FF0200AC1F3074723E0206818
:103A70004069C043400515D42068016841F40071D5
:103A8000016021686FF480604861C4F8309084F868
:103A90003DA084F83E90216C41F00401216484F83B
:103AA0003C9021E0701C06D0FDF7C0FDA0EB0800A3
:103AB000B04203D816B1012F1FD021E02068012F9A
:103AC00015D0806925EA00000004000C18D000BF62
:103AD00044F8309F84F80DA084F80E90216941F0DD
:103AE0002001216184F80C900120BDE8F087406935
:103AF00025EA00000004000CEAD12068406901E0DA
:103B00002068806925EA00000004000CAFD1ECE7D2
:103B10002DE9F041002590460E460446202728E076
:103B20004069C043C0060CD454F8301B6FF010003D
:103B3000486144F810596777A577206A2062257795
:103B400014E0FDF773FDA0EB0800B04200D886B981
:103B500020684069C04340060BD544F8305F677366
:103B6000A573206940F02000206125730120BDE885
:103B7000F08120684169C9434906D1D40020F6E7A5
:103B800070B516460D4604461EE02046FFF740FD80
:103B900008B1012070BD681C16D0FDF747FD801BE1
:103BA000A84200D885B920684069C04300060BD5FB
:103BB000002044F8300F20216173A073216941F087
:103BC000200121612073E4E720684069C0430006BA
:103BD000DBD4002070BD0000F0B500230A2430259E
:103BE00037261F4611E000BFB4EB107F02D905EB6A
:103BF000107C01E006EB107C01F813C001EB430CD4
:103C000000015B1C8CF80170DBB29342ECD3F0BD79
:103C100070B5244CB4F85800B4F85A10884209D052
:103C2000214A92F89C32032B04D1D2F8B822D2F860
:103C300014220AB1002070BD884201D9401A01E067
:103C4000C1F5006085B2402D00D94025174A0020FB
:103C500002F5046306E00E18C6F30A06965D1E54CC
:103C6000401C80B2A842F6D329461148FDF7E0FA7D
:103C700030B9B4F85A002844C0F30A00A4F85A0036
:103C800094F8270058B1B4F85800B4F85A10884294
:103C900005D1002084F82700064806F061FC0120C9
:103CA00070BD000050000020B40200201A35002032
:103CB0005A3D002078A800082DE9F047060028D0DA
:103CC000FCF7BAFC85B2FDF7B1FCDFF878901E4C2A
:103CD00080460127B4F85800B4F85A10884204D33B
:103CE000401AA0F2FF70404201E0081A401E80B264
:103CF000854202D80021154A20E099F89C02032849
:103D000005D1FDF793FCA0EB0800C82803D984F87F
:103D10002770BDE8F087FFF77BFF0028DAD101208C
:103D2000FDF778FBD6E7B4F85800735C1354401CD9
:103D3000C0F30A00491CA4F8580089B2A942F2D382
:103D4000E7E70000B4020020500000201A350020F0
:103D500038B5114C20208DF80000A07930B1B4F8AE
:103D60004E0018B1217B19B1002038BD012038BDAB
:103D7000001D81B201236A46207800F0A7FB20B124
:103D800006A006F0EDFB022038BD01202073607311
:103D90000A4806F0E5FBE7E7500000204552523A9A
:103DA0002057726974652044454255474354524C2C
:103DB000206661696C65640D0A00000004A70008B4
:103DC0002DE9F04F724CCBB0A07B002620B184F8D7
:103DD00025604BB0BDE8F08F60780128F9D194F8E8
:103DE000260094F82D100843F3D094F832000028F0
:103DF000EFD1FDF71BFC054694F8250018B9E06EDD
:103E0000281A3228E5D394F82500DFF888A128B9CC
:103E100008215046FDF700FC0028DAD1B14684F8AD
:103E200025600A272C20E56600F0EEFA06460520FC
:103E300000F0EAFA05460EB1002D0FD1207948B105
:103E400001F02CF92C2000F0DFFA0646052000F0E6
:103E5000DBFA0546002EBCD0002DBAD092E000BFA0
:103E60008DF81C91012347AA3146207800F01EFBF3
:103E70000028AED19DF81C010028AAD00B2341AA2E
:103E80002946207800F012FB80BB9DF80431FF2BFF
:103E90009FD094F82D0050B3E07F834257D300F1B8
:103EA0001201C9B2994252D9181AC0B202284ED38F
:103EB000801EC2B29DF80501BDF806C100F00F08D2
:103EC000BDF808110020B8F1010F09D0B8F1040FB6
:103ED00008D0B8F1050F07D0B8F1090F09D107E0F4
:103EE000022006E0012004E0032002E044E02EE08E
:103EF0000420DFF89C8008F1780888F80020A8F8F2
:103F000002C0A8F8041088F806004FF0010884F8F1
:103F100021809046029094F82220E64694F82300EF
:103F200000F1010C0CF01F0B934504D1521C02F060
:103F30001F0284F82220184A02F8308002EBC000E9
:103F4000A0F802E081800299817184F823B094F88E
:103F5000240088B141A8009000214FF4807201A88C
:103F600000F064FDC0F5807101AA10440BA2FCF7BB
:103F700061F901A8FFF7A0FE08215046FDF74CFBB0
:103F8000012885D07F1EFFB2BFF46AAF21E7000091
:103F900050000020000801401A3400200D0A0000E3
:103FA0000649074A0968B1FBF2F141430520B1FB1C
:103FB000F0F000E000BF401EFCD27047EC00002093
:103FC00040420F002DE9F04F574C99B0A07918B935
:103FD00000F08CFAA07960B1002012900146139095
:103FE0005148072312AA007800F060FA18B14FA0D8
:103FF0002BE056A029E09DF84E805FEA080023D010
:10400000B8F1600F01D94FF06008A0208DF80000D2
:104010009DF848008DF801009DF849008DF80200D8
:104020009DF84A008DF803009DF84B008DF80400C0
:104030008DF805800621684604F0DAFE07204FF06F
:10404000000B1790584662E048A006F089FA19B0B4
:10405000BDE8F08F17980AEB4A0100EB41013248A6
:10406000062310AA007800F021FA08B1012026E00A
:104070009DF840001690BDF8410015909DF8440051
:104080009DF84370401CC0B200267F1C149038E09D
:104090001598002406FB07001FFA80F92DE0381B55
:1040A000C5B2382D00D9382509EB040081B21E486D
:1040B0002B4602AA007800F0F9F910B102208346DD
:1040C00028E0A1208DF8000016988DF801004FEA35
:1040D00019208DF804008DF80540200A8DF806009F
:1040E0008DF802608DF803908DF80750684605F151
:1040F000080104F07DFE601984B2BC42CFD3761C67
:10410000F6B214988642C3D30AF10100C0B28246C7
:1041100040459FD3A2208DF800008DF801B0022108
:10412000684604F065FE92E7500000204552523A7E
:10413000205265616420496E666F20426C6F636B2C
:10414000206661696C65640D0A0000004552523AB0
:1041500020546F756368206E6F7420696E6974698E
:10416000616C697A65640D0A000000004552523A9C
:10417000204F626A65637420636F756E7420697383
:1041800020300D0A00000000F0B5394EADB0B07916
:1041900018B900F0ABF9B07958B10020259001466C
:1041A0002690072325AA307800F080F918B131A0B5
:1041B00059E038A057E09DF89A50E5B1602D00D93C
:1041C00060253CA006F0CCF99DF895209DF897005D
:1041D00000929DF896100395CDE901109DF894305A
:1041E0003DA2802104A8FCF725F804A806F0B8F940
:1041F0000727002434E045A035E000BF04EB44006D
:1042000007EB4001062328AA307800F04FF948B1A7
:10421000234645A2802104A8FCF70CF804A806F068
:104220009FF91FE09DF8A420BDF8A110521C02F0D8
:10423000FF0C9DF8A5209DF8A3009DF8A030401C20
:10424000CDE90010CDE902C242A2802104A8FBF70B
:10425000F1FF04A806F084F900F0CCF8641CE4B285
:10426000AC42CBD346A006F07BF92DB0F0BD0000E8
:10427000500000204552523A205265616420496E38
:10428000666F20426C6F636B206661696C65640DBC
:104290000A0000004552523A20546F756368206E40
:1042A0006F7420696E697469616C697A65640D0A5E
:1042B000000000003D3D3D204558504F5254545899
:1042C0005420434F4D5041435420535441525420A5
:1042D0003D3D3D0D0A00000049442066616D696C5A
:1042E000793D25752076617269616E743D25752072
:1042F0007665723D2575206275696C643D25752073
:104300006F626A733D25750D0A0000004552523AEE
:10431000204F626A65637420636F756E74206973E1
:1043200020300D0A000000004552523A20526561CB
:1043300064206F626A656374207461626C652069D1
:104340006E6465783D2575206661696C65640D0A4B
:104350000000000054257520616464723D307825AA
:104360003034582073697A653D257520696E737401
:104370003D2575207269643D25750D0A0000000019
:104380003D3D3D204558504F525454585420434FC2
:104390004D5041435420454E44203D3D3D0D0A00C3
:1043A00010B54B2000F074F8114C88B14A2000F091
:1043B0006FF880B1252000F06BF878B1242000F070
:1043C00067F870B1262000F063F868B1812010BD55
:1043D0004B20207010BD4A20207010BD2520207079
:1043E00010BD2420207010BD2620207010BD0000BC
:1043F0005000002010B50024FFF70AFC002802D06E
:10440000641CFF2CF8DD10BD70B500241F4D06465E
:10441000252813D004DC052E07D0062E14D107E082
:104420002C2E08D0642E0FD10BE0B5F852400AE0D4
:10443000B5F84E4007E0B5F8504004E0B5F85440F8
:1044400001E0B5F85640F4B92879E0B100F026FE55
:10445000252E13D004DC052E07D0062E13D107E03D
:104460002C2E08D0642E0ED10BE0B5F852400AE095
:10447000B5F84E4007E0B5F8504004E0B5F85440B8
:1044800001E0B5F85640204670BD00005000002005
:1044900010B541000A2303220348FDF791F90028D3
:1044A00000D0012010BD0000080200203EB50A2403
:1044B0008DE81C004ABA410010230348FDF7F4FBC5
:1044C000002800D001203EBD080200203EB50A248D
:1044D0008DE81C004ABA410010230348FDF712FD85
:1044E000002800D001203EBD0802002010B500F0D9
:1044F0009BFD00280CD100F0D1FD002808D1054813
:104500000121817100210173BDE81040FFF720BC3B
:1045100010BD0000500000202DE9F041504DADF5D8
:10452000A36DA86E00287DD0A87800287AD0E878FE
:10453000002877D095F82000F72809D0F82807D070
:10454000F52805D047A006F00BF80027E8467CE0E8
:10455000002449A006F004F8002680AFA86EC4F538
:10456000407146A230F916303819FBF763FE044457
:10457000132E06D2C4F54071381941A2FBF75AFE3A
:104580000444761CF6B2142EE8D3C4F540713819F1
:104590003CA2FBF74FFE80A805F0E2FF3AA005F031
:1045A000DFFF00242646A86EC4F5407100EB4600EC
:1045B00032A2B0F928303819FBF73CFE04441F2E14
:1045C00006D2C4F5407138192DA2FBF733FE04441E
:1045D000761CF6B2202EE6D3C4F5407138192BA212
:1045E000FBF728FE80A834E0002426461EE0E87889
:1045F000A96E06FB007080B226A231F91030C4F516
:10460000007108EB0400FBF715FE0444A878401E77
:10461000864209DAC4F5007108EB040018A2FBF722
:1046200009FE00E017E00444761CF6B2A878864242
:10463000DDD3C4F5007108EB040012A2FBF7FAFD0C
:10464000684605F08DFF7F1CFFB2E8788742CBD328
:104650000CA005F085FF0DF5A36DBDE8F08100000D
:10466000500000203D3D3D205241572033327832EA
:1046700030203D3D3D0D0A00593A00002564000000
:104680002C0000000D0A0000583A00000D0A0D0A27
:1046900000000000253664002DE9F0472A49ADF5F9
:1046A000007D886E00284AD08E78002E47D0C878CA
:1046B000002844D0102E00D310268A46102800D39C
:1046C0001020804621A0FFF7F7FA0027E9462FE0E7
:1046D000002425461EE000BF9AF80310DAF86800AF
:1046E00005FB017189B222A230F91130C4F50071C5
:1046F00009EB0400FBF79EFD0444701E854207DAB7
:10470000C4F5007109EB04001AA2FBF793FD044401
:104710006D1CEDB2B542DFD3C4F5007109EB0400A6
:1047200015A2FBF787FD6846FFF7C6FA7F1CFFB2AC
:104730004745CDD311A0FFF7BFFAFFF75BFE0DF59C
:10474000007DBDE8F0870000500000203D3D3D2089
:104750004D41503136202831367831362C20696E63
:1047600064657820302D313529203D3D3D0D0A000E
:10477000253664002C0000000D0A00003D3D3D2060
:104780004652414D455F454E44203D3D3D0D0A0D8D
:104790000A0000002DE9F0474B4C8046ADF51A7D2C
:1047A000A06E0F4600287DD0A07810287AD3E0783C
:1047B000102877D3B8F1010F07D0B8F1020F06D057
:1047C00042A3F80705D042A104E042A3F9E742A3BF
:1047D000F7E73EA1B80701D540A000E03BA01A785A
:1047E0001AB90A780AB902783AB1CDE900103CA2A8
:1047F000602182A8FBF71EFD04E043A2602182A88D
:10480000FBF718FD82A8FFF757FA48A0FFF754FA04
:104810000025A2460DF10809002634462146284607
:10482000FA0702D0C4F10F01C9B2BA0702D5C5F127
:104830000F00C0B20A46B8F1010F03D0B8F1020F61
:1048400005D008E00246C1F10F00C0B203E0C0F19C
:104850000F00C2B208469AF80330DAF8681002FB7B
:10486000030080B232A231F91030C6F5007109EBB5
:104870000600FBF7DFFC06440F2C07D2C6F50071DB
:1048800009EB06002BA2FBF7D5FC0644641CE4B23E
:10489000102CC3D3C6F5007109EB060023A2FBF769
:1048A000C9FC00E00BE002A8FFF706FA6D1CEDB2B0
:1048B000102DB1D320A0FFF7FFF9FFF79BFD0DF5F9
:1048C0001A7DBDE8F08700005000002000000000C5
:1048D00058000000523930004C39300059000000B7
:1048E0003D3D3D204D4150313625732573257320C4
:1048F00028726F74617465207468656E20666C69D7
:104900007029203D3D3D00003D3D3D204D41503151
:10491000362028726F74617465207468656E206635
:104920006C697029203D3D3D000000000D0A00002B
:10493000253664002C0000003D3D3D204652414D8F
:10494000455F454E44203D3D3D0D0A0D0A000000E7
:104950002DE9F041264CADF5007DA06E002842D037
:10496000A07800283FD0E07800283CD021A0FFF7B5
:10497000A3F90027E8462EE000252E461CE0E0784B
:10498000A16E06FB007080B21FA231F91030C5F590
:10499000007108EB0500FBF74DFC0544A078401EB4
:1049A000864207DAC5F5007108EB050017A2FBF790
:1049B00041FC0544761CF6B2A0788642DFD3C5F5EB
:1049C000007108EB050012A2FBF734FC6846FFF704
:1049D00073F97F1CFFB2E0788742CDD30DA0FFF7BB
:1049E0006BF9FFF707FD0DF5007DBDE8F0810000D4
:1049F000500000203D3D3D204D4150414C4C203D5C
:104A00003D3D0D0A00000000253664002C0000002A
:104A10000D0A00003D3D3D204652414D455F454E4B
:104A200044203D3D3D0D0A0D0A0000002DE9F043F4
:104A300085B01646894ADDF830800C4692F81EC0D3
:104A4000074698F80150311B204463453DD184A2AC
:104A5000FBF7F0FB0444280605D5311B381983A267
:104A6000FBF7E8FB0444680605D5311B381981A221
:104A7000FBF7E0FB0444A80605D5311B38197FA2DB
:104A8000FBF7D8FB0444E80605D5311B38197DA295
:104A9000FBF7D0FB0444280705D5311B38197BA24E
:104AA000FBF7C8FB0444680705D5311B381979A208
:104AB000FBF7C0FB0444D8F80200311B20F07F4311
:104AC000381977A2FBF7B6FBC2E0D27F934268D3D6
:104AD00002F1120C634564D29A1A12F0FF0216D04A
:104AE000012A26D0921E02F0FF09EE09C5F3021238
:104AF000B8F802C0B8F8047005F00F056BA3072AD8
:104B000024D2DFE802F01A1C1E232320220068A210
:104B1000FBF790FB0444280605D5311B381968A221
:104B2000FBF788FB0444680673D5311B381966A26D
:104B300000E067A2FBF77EFB8AE069A306E069A3B9
:104B400004E069A302E069A300E069A357A20A2D6B
:104B500019D2DFE805F00507090B0D0F1113151722
:104B600064A210E065A20EE066A20CE067A20AE073
:104B700067A208E068A206E068A204E06AA202E078
:104B80006BA200E06CA20EB13BA500E06CA5CDE9E4
:104B90000232CDE900C704954B466DA2FBF74AFBF4
:104BA00056E005F00F06C5F30212092E08D862B1CF
:104BB000012A0AD0022A08D0052A06D0062A04D0E3
:104BC0006CA20095FBF736FB42E04FEAD51CB8F823
:104BD0000230B8F8047035A5072A0ED2DFE802F0DB
:104BE0000406080D0D0A0C003DA506E03DA504E0F5
:104BF0003DA502E03DA500E03DA52CA20A2E1AD25B
:104C0000DFE806F005080A0C0E101214161839A277
:104C100011E01EE039A20EE03AA20CE03BA20AE04D
:104C20003BA208E03CA206E03CA204E03EA202E077
:104C30003FA200E040A2BCF1000F01D00EA600E0B0
:104C40003FA600970396CDE901524FA2FBF7F2FA77
:104C5000044405B02046BDE8F08300005000002069
:104C600020205B543620434D445D000020524553C4
:104C700045540000204F464C000000002053494797
:104C8000455252002043414C00000000204346475B
:104C90004552520020434F4D5345525200000000F0
:104CA00020434B533D307825303658003F3F3F007E
:104CB00020205B54313030205343525D000000000F
:104CC00020444554454354002053555000000000F3
:104CD00020205B54313030205253565D00000000DC
:104CE00052535600464E470053545900474C560005
:104CF0004C5247004E4F4E45000000004D4F564568
:104D000000000000554E5355500000005355500010
:104D1000444F574E0000000055500000554E53556B
:104D20005053555000000000554E535550555000FB
:104D3000444F574E53555000444F574E5550000066
:104D400020286E6F2064657465637429000000007C
:104D50005431303020205B54434825645D20205876
:104D60003D256420593D2564202025732025732589
:104D70007300000020205B52494425645D20737459
:104D80003D307825303258005443483F20583D2567
:104D90006420593D25642020257320257325730048
:104DA00001F09ABC38B5214CA07B00282ED1E07AC6
:104DB00000282BD0A07A20B1FCF738FCE16D8842A6
:104DC00024D3B4F84E00002508B1A07948B9FFF704
:104DD000E7FA81281BD0A571FFF788FBB4F84E00D5
:104DE000A8B111208DF80000B4F84E000123401C3A
:104DF00081B26A462078FFF769FB02000BD0A572EA
:104E0000E57200215FF0D400FCF739FA38BDE57295
:104E1000A5728122F5E70120607084F83150E587A2
:104E2000A572E57200221146D320EDE75000002064
:104E30002DE9F843344E707C20B900F085FB707C7E
:104E400000285ED0FCF7F2FB316E4FF00008401AEC
:104E500064280DD92D48FEF72BF92C490968CA683A
:104E60008968009186F81180C6F8608000F06CFBBC
:104E7000B6F84200B6F844402EE02548071900F580
:104E80000060055DB07B38B1B07B68B1F07B58B194
:104E9000B07C48B115B107E0B57416E0012030745C
:104EA000A6F8408003F0E2FCB5740025F17B785D44
:104EB00021B303F007FD00BFB6F84000401C6D1C95
:104EC0002D04A6F840002D0CF0D0641CC4F30A0495
:104ED000A6F84440B6F842008442CED1B6F8460067
:104EE00040B1FCF7A3FB716E411AC82902D3A6F8A2
:104EF00046807066BDE8F84303F08ABD03F04CFCC1
:104F0000DAE7BDE8F8830000500000205C020020D2
:104F1000FA1300202DE9F041344C92B0002694F8A9
:104F2000200038B1A06E28B1607F38B1B4F85400C9
:104F300020B10CE0FF2012B0BDE8F081207908B16B
:104F400000F0ACF8607F78B1B4F8540060B1012093
:104F500084F83200A078E17848434100A06EFBF766
:104F60005CFC0025A84633E0214805F0F9FAFD2055
:104F7000E1E7294694F8200000F006FA07000DD07A
:104F80002B461CA2402101A80097FBF753F901A86A
:104F900005F0E6FA84F832803846CCE7A17894F838
:104FA00003C01F4B227F002001FB0CF1A76E09E01C
:104FB00003EB000CBCF800C027F816C0761C801C60
:104FC000B6B2C0B2904201D2B142F1D86D1CEDB27E
:104FD000607F8542CDD384F8328008211148FCF7E8
:104FE0001BFB08B9FEF7ECFE0020A4E750000020F0
:104FF00048A700084552523A205433372072656161
:1050000064206661696C6564207061676520256451
:105010002C20636F6465203078253032580D0A00EB
:105020007A1000200008014030B5114C95B00723DC
:1050300002AA00212078FFF739FA050014D19DF863
:105040000C00A0709DF80D10E1709DF80E202271EB
:10505000CDE900019DF8083006A2402104A8FBF725
:10506000E9F804A805F07CFA15B0284630BD000028
:1050700050000020494420496E666F3A2046616D19
:10508000696C793D3078253032582C20583D2564A4
:105090002C20593D25640D0A000000002DE9F04741
:1050A000434C9AB04FF0070A277901250FB100262B
:1050B00068E040275FF0000606EB46010AEB41007E
:1050C00081B2062303AA2078FFF7F0F900285CD10B
:1050D0009DF80F009DF810209DF80C10401C521CEC
:1050E000BDF80D309DF81180C0B202F0FF0905290E
:1050F00008D006290BD02C2913D0252916D06429D5
:1051000046D03AE0A4F852302AA2009004E0A4F875
:105110004E30A57730A20095502105A8FBF78AF8FC
:1051200028E0A4F8503035A20090F5E7A4F85430F8
:10513000A076032801D3811E00E00121CAB22277A4
:10514000A17869B194F803C0BCF1000F08D03AB15E
:1051500001FB0CF102EB4101491E91FBF2F100E071
:1051600001216177C9B2CDE900012DA2502105A826
:10517000FBF760F805A805F0F3F909FB0850761C69
:10518000C5B2F6B2BE4297D300201AB0BDE8F08790
:10519000A4F85630E076E577691E09FB0811009007
:1051A000CDE901512AA2502105A8FBF743F8E1E718
:1051B00050000020466F756E6420543520617420C5
:1051C000616464723D3078253034582C2073697ADC
:1051D000653D25640D0A0000466F756E64205436E7
:1051E00020617420616464723D3078253034582C1D
:1051F000205249443D25640D0A000000466F756E3B
:10520000642054343420617420616464723D3078C9
:10521000253034582C2073697A653D25640D0A00C9
:10522000466F756E64205433372061742061646466
:10523000723D3078253034582C2073697A653D25CD
:10524000642C2070616765733D25640D0A000000C1
:10525000466F756E64205431303020617420616473
:1052600064723D3078253034582C2073697A653D5E
:1052700025642C205249443D25642D25640D0A00E7
:1052800030B5E3B06420FFF7BFF805001648C47ED0
:1052900009D0152C09D2234614A260214BA8FAF795
:1052A000C9FF4BA81CE01CA01AE0802C01D924A047
:1052B00016E023462BAA29460078FFF7F7F808B135
:1052C00028A00DE09DF8C0009DF8B5100094CDE930
:1052D00001102B462B4AA02103A8FAF7ABFF03A825
:1052E00005F03EF963B030BD500000204552523AFF
:1052F00020543130302073697A6520746F6F2073C9
:105300006D616C6C20282564292C206E65656420F5
:105310003E3D2032310D0A004552523A2054313080
:1053200030206E6F7420666F756E6420696E206F1A
:10533000626A656374207461626C650D0A00000026
:105340004552523A20543130302073697A652074C6
:105350006F6F206C6172676520746F207265616485
:105360000D0A00004552523A2052656164205431C2
:1053700030302064617461206661696C65640D0A77
:105380000000000028A900082DE9F0479AB00F009E
:10539000814614D001208DF85C003F4C002500BFF1
:1053A000B4F84E000123401D81B217AA2078FFF700
:1053B0008DF80646012805D066B138A041E08DF889
:1053C0005C90EAE76420FEF7EBFD6D1CEDB20A2D60
:1053D000E6D3F2E700254FF4FA686420FEF7E0FD1B
:1053E000B4F84E000123401D81B218AA2078FFF7BF
:1053F0005DF80646012805D00EB12FA021E09DF8EA
:10540000600018B16D1CADB24545E6D3B5F57A7FA5
:1054100006D332A005F0A4F8FF201AB0BDE8F0874B
:10542000DFF8D08000254FF4FA7AA37E314AB4F831
:1054300054102078FFF73AF80646012805D046B107
:105440002DA005F08DF83046E7E76420FEF7A8FDB3
:105450000CE098F800204A4505D198F80100B842C0
:1054600001D10020D9E70120FBF7D4FF6D1CADB2BC
:105470005545DAD398F8011098F800000097CDE967
:1054800001014B4623A2502103A8FAF7D3FE03A83B
:1054900005F066F8FE20C0E7500000204552523A61
:1054A0002054333720777269746520636D642066F9
:1054B00061696C65640D0A004552523A20543337D5
:1054C000207265616420636D642073746174757308
:1054D000206661696C65640D0A0000004552523A0D
:1054E0002054333720636D642074696D656F757463
:1054F0000D0A0000781000204552523A20543337EC
:1055000020726561642070616765206661696C6501
:10551000640D0A004552523A20543337206D6973A6
:105520006D6174636820286578703D30782530326D
:10553000582F25642C20676F743D30782530325801
:105540002F2564290D0A0000F8B5154C607C002851
:1055500025D1A4F84200A4F84400A4F84600FCF7C2
:1055600065F820660F4D2868C168806800900122A8
:1055700004F134012846FDF743FF012670B12846A7
:10558000FDF796FD2868C16880680090012204F14B
:1055900034012846FDF734FF002800D16674F8BDB9
:1055A000500000205C0200202DE9F74F7D488B461B
:1055B00094B0816E00297DD08678102E00D91026F7
:1055C000C778102F00D91027764890F82D0000B129
:1055D000062000F1280AAA208DF8000010208DF87E
:1055E000010033208DF802008DF803A08DF804200F
:1055F0000025B4E020210CA8FBF731F9DFF8A491D5
:10560000002199F8038099F80230D9F868E02DE07C
:1056100008462C465FEACB7202D0701A401EC0B218
:105620005FEA8B7202D57A1B521ED4B2DDF850C0ED
:105630000246BCF1010F03D0BCF1020F05D008E017
:10564000301A2246401EC4B203E03A1B521ED2B2A8
:1056500004469A4208D2444506D202FB08420CA8EE
:105660003EF8122020F81120491CC9B2B142CFD314
:105670008DF8055000200CAB6A4633F8101002EB91
:1056800040020C0A401C9471C0B2D1711028F3D3AF
:1056900099F82D004A46E0B3FF23002092F82280BB
:1056A00001460446CE4692F823C0E0455DD192F80B
:1056B000212000E056E032B33A4A7832137850881D
:1056C00091889479FF2B1ED09EF82E205FEAC27C31
:1056D00007D040F23E3C604503D8A0F23E30404245
:1056E00080B2920705D5B1F56B7F02D8C1F56B7119
:1056F00089B240F23E32904200D910464FF46B72AC
:10570000914200D911468DF826308DF82700000A05
:1057100000E008E08DF828008DF82910080A8DF8BF
:105720002A008DF82B40AAF1020081B26846FBF7EF
:10573000BFFD0DEB0A01030A01F8023D44F62064A7
:10574000487051466846FBF773FD30B13220FEF7D2
:1057500027FC322C01D9323CF3D16D1CEDB2BD4295
:10576000FFF448AF17B0BDE8F08F0F4810F83810BD
:1057700000EBC80061F30702418861F31F42818892
:10578000807961F30F0960F3174908F1010000F017
:105790001F018EF82210D3B2100C1FFA89F1C9F341
:1057A00007448FE7500000201A3400202DE9F04311
:1057B000444AABB0926E002A7ED0AA238DF8703096
:1057C00010238DF8713033238DF8723028238DF833
:1057D00073308DF874100024E846D8B10021434698
:1057E00032F8115023F81450641C491CC9B2E4B2B9
:1057F0001029F5D35FF0000102EB4105491C2D8D06
:1058000023F81450641CC9B2E4B21029F4D3D0B107
:10581000022619E00020414632F8103021F81430F9
:10582000641C401CC0B2E4B21428F5D35FF0000041
:1058300002EB4003401C1B8D21F81430641CC0B2E5
:10584000E4B22028F4D3042600250DF1700900BF2E
:105850008DF87550002047464FEA090200EB05110C
:10586000CBB20021A34201D237F9131002EB40035F
:105870004FEA112C401C83F806C0C0B2D971102821
:10588000ECD326211CA8FBF713FD010A8DF8961016
:105890008DF8970044F6206728211CA8FBF7C8FC68
:1058A00030B13220FEF77CFB322F01D9323FF3D1E9
:1058B0006D1CEDB2B54200E000E0C9D32BB0BDE8ED
:1058C000F0830000500000200249012081F82500EB
:1058D000704700005000002038B5244CA07B002801
:1058E00042D1607801283FD1607900283CD0FBF795
:1058F0009DFE616F226F411A914235D3606794F823
:105900002F0080B1A07908B9FEF7F0FDB4F84E0081
:1059100048B101218DF80010801C81B201236A4634
:105920002078FEF7D3FDFFF7F5FA00281CD194F894
:105930002A0050B114F82C2F501C04F80409617887
:105940002078BDE83840FFF72FBE94F82B0038B11F
:1059500094F8291094F82800BDE83840FEF71ABFE3
:10596000BDE83840FEF7D8BD38BD0000500000202B
:105970002DE9F04786B00024454800940194029434
:105980000394816941F010018161816901F0100186
:105990000491816941F020018161816901F0200158
:1059A0000491816941F004018161816901F0040180
:1059B0000491816941F0080181618069DFF8D48038
:1059C00000F008004FF4005504900022294640469C
:1059D000FBF727FEDFF8C090002210214846FBF7B6
:1059E00020FE0122D70339464846FBF71AFEDFF8AE
:1059F000ACA0012202215046FBF713FE00224FF417
:105A000040515046FBF70DFE012211035046FBF7B3
:105A100008FE012229465046FBF703FE00950226A8
:105A200001250396CDE9015469464046FBF704FD84
:105A3000082000901A48CDE9010469464846FBF762
:105A4000FBFC002211460920FCF78AFB0920FCF729
:105A500079FB00970396CDE9015469464846FBF768
:105A6000EBFC43F20220CDE90005CDE90246694690
:105A70005046FBF7E1FC4FF44040CDE90004694695
:105A800050460294FBF7D8FC06B0BDE8F087000052
:105A9000001002400010014000080140000C0140CD
:105AA000000031100D4810B50B4901600C494160F0
:105AB00000214FF480428160C0E90312416181619D
:105AC000C1610162FBF7B8FD002803D0BDE81040BA
:105AD000FBF72EBC10BD000000580040080200205B
