:020000040800F2
:10000000583F0020F5010008377E0008974100089E
:10001000357E00085B0E00086FD700080000000066
:100020000000000000000000000000007DBE00088D
:10003000C313000800000000DF810008CDBE0008E7
:100040000F0200080F0200080F0200080F0200084C
:100050000F0200080F0200080F0200080F0200083C
:100060000F020008851600080F0200080F020008A2
:100070008D1300080F0200080F0200080F0200088D
:100080000F0200080F0200080F020008C5D6000882
:10009000D1D600080F0200080F0200080F02000866
:1000A0000F02000855BF00080F02000849BF0008F2
:1000B0000F0200080F0200080F0200080F020008DC
:1000C0000F0200080F0200080F020008E5B5000843
:1000D0000F0200080F0200080F0200080F020008BC
:1000E0006D1600080F0200080F02000800F002F869
:1000F00000F071F80AA090E8000C82448344AAF151
:100100000107DA4501D100F066F8AFF2090EBAE84E
:100110000F0013F0010F18BFFB1A43F0010318473B
:100120003CDB00005CDB00000A444FF0000C10F8E0
:10013000013B13F0070408BF10F8014B1D1108BF65
:1001400010F8015B641E05D010F8016B641E01F805
:10015000016BF9D113F0080F1EBF10F8014BAD1C55
:100160000C1B09D16D1E58BF01F801CBFAD505E073
:1001700014F8016B01F8016B6D1EF9D59142D6D3CD
:10018000704700000023002400250026103A28BFF5
:1001900078C1FBD8520728BF30C148BF0B607047F9
:1001A000642900F0B380752900F0B080782900F050
:1001B0001481732900F0CB84002070471FB500F034
:1001C000E7FD0400002000210DF04AFB401C6060A8
:1001D0001FBD10B510BD00F00BFE1146FFF7EEFF7E
:1001E0000DF0DEFA00F029FE03B4FFF7F2FF03BCC6
:1001F00000F02CFE0948804709480047FEE7FEE76B
:10020000FEE7FEE7FEE7FEE7FEE7FEE7FEE7FEE7C6
:1002100004480549054A064B7047000047BF0008DF
:10022000ED00000858370020583F0020583B0020C0
:10023000583B00200FB47CB50C0009AA009001D0F7
:100240002044401E084B7B4469460190089800F00A
:100250004CFC05461CB10020694600F059FC2846BC
:100260007CBC5DF814FB0000D108000070B50446AA
:1002700085690068C10601D5302600E02026C00748
:1002800007D070BDD4E9012130469047206A401C58
:1002900020626D1EF6D570BD70B504468569007884
:1002A000C00707D170BDD4E9012120209047206A02
:1002B000401C20626D1EF6D570BD70B50C4605461B
:1002C000012A05D02878800600D5EA69002302E0DB
:1002D000012305E05B1C934202D2E05C0028F9D1C7
:1002E000A869E618C01AA861286A18442862284636
:1002F000FFF7BCFF04E0D5E9012114F8010B90479A
:10030000B442F8D32846FFF7C7FF70BD2DE9F0418E
:100310000646002410687529314616A510D0AFF3A3
:100320000080002802DA404213A507E031688A07FE
:1003300001D512A502E0490704D511A5012401E069
:10034000AFF3008000210A2206F1240709E0B0FB88
:10035000F2FCB0FBF2F302FB1C003030785418467C
:10036000491C0028F3D123462A463046BDE8F04117
:1003700000F05DBB000000002D0000002B0000001D
:1003800020000000F0B40D460188090502D5214C7B
:100390007C4402E01F4C7C440E34002100F1240612
:1003A00008E002F00F071209E75D42EA03721B0939
:1003B0007754491C52EA0307F3D10278002312074D
:1003C00004D5702D06D009B1022311342246F0BCA9
:1003D00000F02DBB01231034F8E770B504460D463C
:1003E00021461068AFF30080024629462046BDE84A
:1003F00070400023C6E7D21D22F00703D3E9002393
:10040000C0E70368126843F0200303600823C36158
:100410000023B7E73BD500002DE9F05F894604468D
:100420004FF0000ADFF874B1FB44C0F820A020466A
:10043000E1688847002874D0252806D0D4E9012136
:100440009047206A401C2062F1E700265F46204664
:10045000E16888472028054607DB312D05D2781949
:1004600010F8200C08B10643F1E7B00701D526F0DB
:100470000406C4F81CA00027C4F818A02A2D09D02F
:1004800028460DF085F938B304EB8708303DC8F8ED
:10049000185019E059F8041B204604EB87029161BB
:1004A000E1688847012F054618D1E069002820DA65
:1004B00026F020061DE0D8F8180000EB800005EBC0
:1004C00040003038C8F818002046E16888470546E3
:1004D0000DF05EF90028EED1012F0AD02E2D08D1A3
:1004E0002046E16888477F1C0546022F46F020061B
:1004F000C4DBA069002803DA404246F00106A0618F
:10050000F00701D026F010066C2D0BD0682D09D015
:100510004C2D39D06A2D35D0742D35D07A2D33D06D
:1005200016E038E0E1682F4620468847B842054685
:1005300009D16C2F26D04FF48060E1680643204635
:100540008847054604E06C2F1AD04FF480700643AC
:100550000DB3A5F14100192802D8203546F40066F4
:100560004A462946204626604E46FFF719FE80B1CE
:1005700001280BD0F61D26F0070000F1080956E708
:100580004020E4E78020D8E70020D6E706F1040900
:100590004DE7284652E7206ABDE8F09FCBD4000023
:1005A00070B5064600F032FA0468054630460A2265
:1005B000002100F01FFB2C6070BD2DE9F05F934619
:1005C0000F4680460446002600F020FAD0F800903E
:1005D000824614F8015B2DB100F010FA0068405D0E
:1005E000C007F6D12B2D02D02D2D1AD0641E00216C
:1005F000CAF800105A463946204600F0ACFA0146C7
:1006000027B13868A04201D1C7F80080DAF80000AD
:10061000022809D0CAF80090700505D54842BDE807
:10062000F09F46F48066E2E70846F8E7014A00F0EA
:1006300019BB000060020020401ECAB210F8011F62
:100640008A4202D00029F9D1002070472DE9F041FB
:10065000054690460E460020044600E0641C4445D2
:100660000BD2285D00F0D6F90746305D00F0D2F9D4
:10067000381A02D1295D0029F0D1BDE8F0812DE9B9
:10068000F0410E460546002400E0641C285D00F0A1
:10069000C1F90746305D00F0BDF9381A02D1295D75
:1006A0000029F2D1BDE8F08110B5431C02E010F83A
:1006B000011B71B18107FAD14FF0013202C88C1AC7
:1006C0008C4314EAC211F9D0C01A0A0603D0C01E26
:1006D00010BDC01A10BD0A0401D0801E10BD090251
:1006E000FCD0401E10BD40EA010370B59B072ED11F
:1006F0004FF00136042A2AD308C810C99D1B9D4318
:10070000121F15EAC61517D0D8B2E1B2401A50EA46
:10071000056110D198B2A1B2401A50EA05410AD140
:1007200023F07F4024F07F41401A50EA052102D196
:10073000180EA0EB146070BDA342DBD018BA21BA2A
:10074000884201D9012070BD4FF0FF3070BD0AB959
:10075000002070BD10F8013B11F8014B63B1A342BA
:100760000AD1521E08D010F8013B11F8014B1BB101
:10077000A34201D1521EEDD1181B70BD032A40F2D5
:10078000308010F0030C00F0158011F8013BBCF133
:10079000020F624498BF11F801CB00F8013B38BF4B
:1007A00011F8013BA2F1040298BF00F801CB38BF59
:1007B00000F8013B11F0030300F07682083AC0F024
:1007C000088051F8043B083A51F804CBA0E808101F
:1007D000F5E7121D5CBF51F8043B40F8043BAFF352
:1007E0000080D20724BF11F8013B11F801CB48BFAC
:1007F00011F8012B24BF00F8013B00F801CB48BFE2
:1008000000F8012B7047431A28BF9A427FF6B6AF13
:10081000032A1044114440F2268010F0030F1EBF3B
:1008200011F8013D521E00F8013D10F0030F7FF456
:10083000F6AF11F0030300F07C82083AC0F00B80A1
:1008400051F8043D083A51F804CD40F8043D40F811
:1008500004CDFFF7F3BF121D5CBF51F8043D40F813
:10086000043DAFF30080D20724BF11F8013D11F819
:1008700001CD48BF11F8012C24BF00F8013D00F85C
:1008800001CD48BF00F8012C70474FF00002042949
:10089000C0F0128010F0030C00F01B80CCF1040CAF
:1008A000BCF1020F18BF00F8012BA8BF20F8022BE3
:1008B000A1EB0C0100F00DB85FEAC17C24BF00F889
:1008C000012B00F8012B48BF00F8012B70474FF0B7
:1008D000000200B5134694469646203922BFA0E890
:1008E0000C50A0E80C50B1F12001BFF4F7AF09079C
:1008F00028BFA0E80C5048BF0CC05DF804EB89008D
:1009000028BF40F8042B08BF704748BF20F8022BCF
:1009100011F0804F18BF00F8012B704710B5044646
:1009200010F0030F08BF11F0030F40F015804FF0D7
:10093000013E121FC0F20E8051F8043BA3EB0E0CD7
:100940002CEA030C1CEACE1C08BF40F8043BF0D094
:10095000A1F1040102F10402521E08DB11F8013B6F
:10096000002B00F8013BF7D11146FFF78EFF204620
:1009700010BD00004FF0013C50F8042B51F8043B2F
:100980009A4221D1A2EB0C03934313EACC1317D163
:1009900050F8042B51F8043B9A4215D1A2EB0C03FA
:1009A000934313EACC130BD150F8042B51F8043BBA
:1009B0009A4209D1A2EB0C03934313EACC13DBD088
:1009C0004FF00000704700BFD01A01BAB1FA81F1B0
:1009D00001F0180122FA01F0CB40C1F12001DBB295
:1009E000C0B2C01A2CFA01F3D11A914311EAC31113
:1009F000E6D17047704770477047000010B500F0AF
:100A0000C7F9001D10BD00BF59CE00000048704757
:100A1000F436002010B50446FFF7F0FF0068005DD3
:100A2000C00602D504F1200010BD204610BD2DE9FE
:100A3000F0470D4699469246044600F124080168A5
:100A4000880604D5E06921F01001216000E0012052
:100A5000A84201DD471B00E00027A1697A1902EBDB
:100A60000900081AA0612078C00602D42046FFF7CA
:100A7000FDFB002608E0D4E901211AF806009047A2
:100A8000206A401C761C20624E45F4DB2078C006AC
:100A90000AD52046FFF7EAFB06E0D4E90121302021
:100AA0009047206A401C2062381EA7F10107F4DC41
:100AB00007E0D4E9012118F805009047206A401C9E
:100AC0002062281EA5F10105F3DC2046FFF7E4FBB8
:100AD0002078000602D50220BDE8F0870120FBE760
:100AE00001694A1C02610878704700B58FB0CDE9F2
:100AF00001310021059105497944CDE903101146E2
:100B00006846FFF789FC0FB000BD0000E5FFFFFF5E
:100B10000A6802F8010B0A607047D1E900239A4283
:100B200002D2531C0B601070704710B5436913B1AB
:100B3000AFF3008001E0FFF7C0FB012010BD127889
:100B400000F124010A7000224A700122EDE71168C9
:100B50004FF0FF32E9E72DE9F05F824615468B46FC
:100B600000270AF10104B9460078302801D09DB170
:100B700013E014F8010B0127782803D0582801D07E
:100B800045B10AE00DB1102D07D1002714F8010B73
:100B9000102502E0082500E00A250026B0460EE0F8
:100BA00005FB080005FB06F101271FFA80F801EBA1
:100BB0001046B6F5803F00D3B94614F8010B29461C
:100BC00000F0EAF80028EBDABBF1000F05D00FB116
:100BD000641E00E05446CBF80040B9F1000F06D087
:100BE000FFF714FF02210160C81EBDE8F09F48EA2C
:100BF0000640FAE72DE9F04791460F468046044645
:100C0000002614F8015B2DB1FFF7F8FE0068405D87
:100C1000C007F6D12B2D02D02D2D18D0641E4A46C8
:100C200039462046FFF797FF27B13968A14201D125
:100C3000C7F800804FF0020471050BD54042002830
:100C400003DDFFF7E3FE0460A007BDE8F08746F48C
:100C50008066E4E70028F8DAFFF7D8FE04606FF05A
:100C60000040F2E72DE9F04115460E46040002D19E
:100C70002C6804B90BA4204600F0ACF8044420789A
:100C800070B127463146384600F094F80444207885
:100C900010B1002004F8010B38462C60BDE8F0814B
:100CA0000027F9E70000000010B5203AC0F00B80E3
:100CB000B1E81850203AA0E81850B1E81850A0E860
:100CC0001850BFF4F5AF5FEA027C24BFB1E81850BA
:100CD000A0E8185044BF18C918C0BDE810405FEA2A
:100CE000827C24BF51F8043B40F8043B08BF7047A6
:100CF000D20728BF31F8023B48BF11F8012B28BFAB
:100D000020F8023B48BF00F8012B7047431A28BF68
:100D10009A427FF6C9AF104410F0030F11441EBF72
:100D200011F8013D521E00F8013D10F0030F7FF451
:100D3000F6AF103AC0F00A8010B531E91850103AF9
:100D400020E91850BFF4F9AFBDE81040530724BFA5
:100D500031E9081020E9081044BF51F8043D40F87B
:100D6000043D12F0030F08BF7047D20728BF31F8C7
:100D7000023D48BF11F8012C28BF20F8023D48BFB2
:100D800000F8012C7047000000487047F43600203E
:100D900000487047143700203A2800D2303820F03D
:100DA0002002412A01D3A2F13700884201D34FF03B
:100DB000FF30704730B503461D781DB10A4603E089
:100DC000AC4201D1181A30BD12F8014B002CF7D1FA
:100DD0005B1CF1E730B503461D783DB10A4612F8B9
:100DE000014B1CB1AC42FAD15B1CF5E7181A30BDBF
:100DF0007546FFF7C9FFAE4605006946534620F029
:100E00000700854618B020B5FFF702FABDE820407C
:100E10004FF000064FF000074FF000084FF0000BB6
:100E200021F00701AC46ACE8C009ACE8C009ACE869
:100E3000C009ACE8C0098D46704710B50446AFF351
:100E400000802046BDE81040FFF7CEB901491820C8
:100E5000ABBEFEE7260002007047FEE700207047A9
:100E60000020704738B500222F4930480BF0EEF9CA
:100E70002F492E480BF0E4F92EA003F0E5FC38A032
:100E800003F0E2FC3FA003F0DFFC49A003F0DCFC30
:100E900004F0DEFA03464FF4007481280DD04BA213
:100EA00021465448FFF7C6F9524803F0CDFC52A042
:100EB00003F0CAFC04F0B6FB05E056A003F0C4FC46
:100EC0005DA003F0C1FC6748037853B1407840B19E
:100ED000009065A221464748FFF7ACF9454803F06A
:100EE000B3FC68A003F0B0FC6CA003F0ADFC75A0EF
:100EF00003F0AAFC7FA003F0A7FC8DA003F0A4FCE4
:100F000099A003F0A1FCA6A003F09EFCB2A003F000
:100F10009BFCBAA003F098FCC7A003F095FCCFA0FF
:100F200003F092FC002038BD70090020AC030020C3
:100F3000700800200D0A3D3D3D3D3D3D3D3D3D3DA0
:100F40003D3D3D3D3D3D3D3D3D3D3D3D3D3D3D3DD1
:100F50003D3D3D3D3D3D3D3D3D3D3D3D0D0A00009E
:100F6000202020206D6158546F756368363430201E
:100F70005553422043444320496E74657266616351
:100F8000650D0A003D3D3D3D3D3D3D3D3D3D3D3D09
:100F90003D3D3D3D3D3D3D3D3D3D3D3D3D3D3D3D81
:100FA0003D3D3D3D3D3D3D3D3D3D0D0A00000000C8
:100FB0005363616E6E696E672049324320616464D9
:100FC000726573732E2E2E0D0A000000466F756E2B
:100FD000642064657669636520617420493243202A
:100FE000616464726573733A203078253032580D2D
:100FF0000A000000FA2F002052656164696E6720C4
:1010000064657669636520696E666F2E2E2E0D0A03
:10101000000000004552524F523A204E6F206D6141
:1010200058546F7563682064657669636520666FE0
:10103000756E64210D0A0000506C65617365206354
:101040006865636B2049324320636F6E6E6563741D
:10105000696F6E7320616E6420706F7765722E0DFC
:101060000A0000006E0000204D6174726978205300
:10107000697A653A20583D25642C20593D25640D38
:101080000A0000000D0A417661696C61626C65209E
:10109000636F6D6D616E64733A0D0A0020204845E0
:1010A0004C502020202D2053686F77206176616995
:1010B0006C61626C6520636F6D6D616E64730D0AA7
:1010C000000000002020494E464F2020202D2052B5
:1010D00065616420496E666F20426C6F636B2028E7
:1010E0003078303030302C203720627974657329A5
:1010F0000D0A000020204F424A54424C202D20521D
:10110000656164206F626A656374207461626C65F6
:1011100020283078303030372C2066697273742084
:101120003130206F626A65637473290D0A00000014
:1011300020204D5347434E54202D2052656164209A
:101140006D65737361676520636F756E74202854D5
:1011500034342066726F6D206F626A656374207428
:1011600061626C65290D0A0020204D534720202024
:10117000202D2052656164206F6E65206D6573734C
:10118000616765202854352066726F6D206F626A32
:10119000656374207461626C65290D0A00000000AB
:1011A0002020535441525420202D205374617274D6
:1011B00020646961676E6F73746963206F75747002
:1011C00075742028313030306D7320696E7465720B
:1011D00076616C290D0A0000202053544F502020C6
:1011E000202D2053746F7020646961676E6F737473
:1011F0006963206F75747075740D0A002020465263
:10120000414D4520202D2052656164206F6E652080
:10121000646961676E6F73746963206672616D657E
:1012200020284D757475616C205265666572656E17
:101230006365290D0A000000202075202020202051
:10124000202D20456E74657220646961676E6F732E
:10125000746963206D656E750D0A00002D2D2D2DAE
:101260002D2D2D2D2D2D2D2D2D2D2D2D2D2D2D2DAE
:101270002D2D2D2D2D2D2D2D2D2D2D2D2D2D2D2D9E
:101280002D0D0A0010B504000CD0096851B10C48AE
:10129000007880B12078E0280DD082280BD020463D
:1012A0000AF030F9214607480AF0CAFF05480AF05B
:1012B000ABFF002010BD204606F092FFF2E70000D1
:1012C00099000020AC030020094A10B5D2F8B822DA
:1012D000D2F814220AB1012010BD0A460146044882
:1012E0000AF0B4FFBDE8104001480BF00DB8000053
:1012F000AC03002010B560B102290AD34218891E40
:1013000032F8024C89B206F077FD844201D1012007
:1013100010BD002010BD1CB58DF800008DF8011027
:10132000080A8DF802008DF803200421684606F0B3
:1013300063FD8DF80400000A8DF80500062168465B
:101340000AF09EFD1CBD000070B502004FF6FF754F
:10135000284641F2210400D099B9002070BD00BF99
:1013600012F8013B80EA03200023060403D584EA37
:10137000400080B201E005EA40005B1CDBB2082BB4
:10138000F3D3491E89B2EBD270BD0000014800F0D2
:1013900009BA00006803002030B590F840500124DD
:1013A000AC40C56B6C60046863604368102B0368D5
:1013B00003D099600068C26030BD9A600068C16067
:1013C00030BD70472DE9FC5F80461D4616460F462E
:1013D0004B2004F0CBF810B34A2004F0C7F800B358
:1013E0005FF00004B8F1000F01D088F800404FF022
:1013F00000080FB1A7F800800EB186F800800DB18B
:1014000085F80080002C7FD04148DFF808A10470E7
:10141000BAF8000038B14048007820B10CE04B2405
:10142000E0E74A24DEE73C4981F8008004F0FAF85E
:10143000BAF80000002867D017B1BAF80000388069
:10144000DFF8D8B00021A5209BF800908BF80010A1
:101450008DF80400012301AABAF80010204604F018
:10146000C1F820B18BF800900120BDE8FC9F00F08E
:1014700041FC07464FF0000840F6B83A0DE008215D
:10148000274800F02DFC18B1B8F1000F0AD101E097
:101490004FF00108022000F095FA00F02BFCC11B70
:1014A0005145ECD34FF4FA7000F08CFA04F08CF84C
:1014B000322000F087FA184900204B2C08708BF876
:1014C000009019D04A2C17D05FF000038DF800006F
:1014D0006A4642F21071184600F06CF880B111496A
:1014E00008700B49087006B1307015B19DF8000006
:1014F00028700020B9E707E0A4F12401CBB2E5E7AA
:10150000204604F033F808B18120AEE78320ACE731
:1015100098000020F00000209C0000201201002014
:1015200000080140800000202DE9F0410D460646EC
:1015300000F0E0FB04460A4F09E00122314638780A
:1015400004F032F8002808D0052000F03BFA00F043
:10155000D1FB001BA842F0D30120BDE8F0810000C0
:1015600080000020F8B5064600208DF80000A6F1A6
:1015700024000D46272804D86946304600F034F888
:1015800050B90B4F002416B1385DB0420AD0385D17
:10159000694600F029F828B1002D02D09DF800100E
:1015A0002970F8BD641CE4B2042CECD30020F8BD13
:1015B0008CD800082DE9F04116460D46074600F08C
:1015C00099FB044608E031463846FFF7CBFF002878
:1015D00008D1322000F0F6F900F08CFB001BA84285
:1015E000F1D30020BDE8F081F8B5074600200D4694
:1015F0008DF800000446032601226946384603F0B0
:10160000D3FF30B99DF80000B6EB901F0AD0A02898
:1016100008D0052000F0D6F9641CE4B2102CEBD3FE
:101620000020F8BD05B128703846F8BDF8B50E4663
:10163000054600F05FFB044600208DF800000EE038
:1016400032216846FFF770FF48B99DF80000A842B4
:1016500001D10020F8BDA02D01D10328FAD000F05F
:1016600049FB001BB042EBD30120F8BD04480168E0
:10167000490503D50115016005F018BE704700004B
:101680001404014010B50B4C206800070FD5082149
:10169000094800F025FB58B15FF000024FF40051FB
:1016A000064800F022FB06F085F80820206010BDF7
:1016B0000122F3E71404014000080140001001403A
:1016C00072B6FEE710B590F821100022022905D06D
:1016D0000421816380F82020012010BD01680B687F
:1016E00023F00E030B6001680B6823F001030B600D
:1016F00090F84030C46B012101FA03F3636080F875
:10170000211080F82020104610BD000010B590F880
:1017100021100024022903D00421816301243DE02B
:1017200001680A6822F00E020A6001680A6822F065
:1017300001020A601A4A0168914201D1012121E0A7
:10174000174A1432914201D110211BE0144A283269
:10175000914201D1891515E0114A3C32914201D1E3
:1017600089140FE00E4A5032914202D14FF4803179
:1017700008E00B4A6432914202D14FF4801101E03B
:101780004FF08071064A083A5160012180F821101B
:10179000002180F82010416B01B18847204610BD20
:1017A000080002402DE9F05FC16B0C6801680B680E
:1017B000D0F840C0042202FA0CF2494DDFF824A10F
:1017C000494E4A4FDFF828B1DFF828E122422CD0F9
:1017D0005A072AD50A68920603D40A6822F004023E
:1017E0000A600168A94201D1042219E0514501D1E2
:1017F000402215E0B14202D14FF4806210E0B942BC
:1018000002D14FF480420BE0594502D14FF48022BF
:1018100006E0714502D14FF4800201E04FF0806292
:101820002F4908394A60C16A3BE04FF0020808FAC4
:101830000CF818EA040F4FF000094FF0010235D000
:101840005FEA837832D50B689B0605D40B6823F0DA
:101850000A030B6080F821200168A94201D102220D
:1018600019E0514501D1202215E0B14202D14FF4D7
:10187000007210E0B94202D14FF400520BE059451A
:1018800002D14FF4003206E0714502D14FF400124C
:1018900001E04FF00072124908394A6080F8209048
:1018A000816A00291AD0BDE8F05F0847082505FACB
:1018B0000CF5254212D01B0710D50B6823F00E0340
:1018C0000B6090F84010C36B02FA01F1596082631B
:1018D00080F8212080F82090016BE2E7BDE8F09FBE
:1018E000080002401C000240300002404400024058
:1018F000580002406C00024030B528B308C81349B4
:1019000014221944B1FBF2F18900C16310498163CB
:10191000022141771A6843F6F0718A43D0E9001436
:101920002143D0E902452C43214304692143446902
:10193000214384692143114319600021416301223D
:1019400042770177084630BD012030BDF8FFFDBF6A
:101950000000024070B5044690F8200000250128E0
:101960000CD0012084F8200094F821600020012E82
:1019700006D084F820000225284670BD022070BDE4
:10198000022684F82160A0632068066826F001061C
:1019900006602046FFF700FDE06A00282068016825
:1019A00002D041F00E0106E021F004010160206840
:1019B000016841F00A0101602068016841F00101FD
:1019C0000160D9E770B5044600F094F90546601C43
:1019D00002D004480078044400F08CF9401BA04277
:1019E000FAD370BD3C0100202DE9F04300233E4FA7
:1019F0000F2573E001229A400A406DD023F00304C2
:101A0000E619D6F808809C074FEA147C05FA0CF911
:101A100009EA0804DFF8D480404502D14FF00008FD
:101A200016E0DFF8CC80404502D14FF001080FE00E
:101A3000DFF8C080404502D14FF0020808E0DFF82F
:101A4000B880404502D14FF0030801E04FF0040890
:101A500008FA0CF8A04522D1284CD4F800C02CEA92
:101A6000020CC4F800C0241DD4F800C02CEA020CFB
:101A7000C4F800C0214C0C34D4F800C02CEA020C8D
:101A8000C4F800C0241FD4F800C02CEA020CC4F82B
:101A900000C0D6F808C02CEA090CC6F808C0FF2A16
:101AA00001D8064601E000F104064FEA830401D99B
:101AB000A4F12004D6F800C005FA04F82CEA080CBA
:101AC0004FF0040808FA04F84CEA080CC6F800C005
:101AD000C46824EA0204C46003F1010331FA03F28A
:101AE00088D1BDE8F08300000000014000080140FB
:101AF000000C0140001001400014014000040140AE
:101B00002DE9F84FDFF8B8910024A9F1040B234622
:101B10000F2709F1040AABF1040EC9E00125A54025
:101B20002A40AA427DD1674ED1F804C0ACEB06082A
:101B3000B44532D014DCBCF1030F3AD009DCBCF15F
:101B4000000F2AD0BCF1010F1CD0BCF1020F31D123
:101B50001DE0BCF1110F17D0BCF1120F2AD119E012
:101B6000B8F5881F19D006DCB8F5803F15D0B8F558
:101B7000801F1FD111E0B8F5001F0ED0B8F5041F6B
:101B800018D10AE0CB6815E0CB681B1D12E0CB68CA
:101B900008330FE0CB680C330CE08B682BB1012BC2
:101BA0004FF0080303D0456104E0042302E005611F
:101BB00000E00023FF2A01D8064601E000F10406F8
:101BC0004FEA840501D9A5F12005D6F8008007FA6F
:101BD00005FC28EA0C0803FA05F548EA0508C6F8EA
:101BE00000804D68ED0062D5374DAE6946F00106C4
:101BF000AE61AD6924F0030605F001050095334D93
:101C000006EB050CDCF80850A607360F07FA06F8B5
:101C100025EA0805DFF8B880404503D14FF00008F9
:101C200017E044E0DFF8AC80404502D14FF00108F6
:101C30000FE0DFF8A480404502D14FF0020808E031
:101C4000DFF89880404502D14FF0030801E04FF0E3
:101C5000040808FA06F848EA0508CCF808804D6838
:101C6000D9F80060ED024D4601D5164300E09643D9
:101C70002E604D68DAF80060AD02554601D5164376
:101C800000E096432E604D68DBF80060AD035D46D2
:101C900001D5164300E096432E604D68DEF80060E3
:101CA000ED03754601D5164300E096432E60641C93
:101CB0000D682A46E5407FF431AFBDE8F88F00009B
:101CC0000804014000001110001002400000014013
:101CD00000080140000C01400010014000140140C8
:101CE0008068084000D0012070470AB10161704748
:101CF0000904FBE701488068704700003C010020B0
:101D000010B5040013D0242084F83D002068016839
:101D100021F001010160204600F00AFD002020644E
:101D200084F83D0044F8300FA073207310BD0120EB
:101D300010BD000070B5040025D094F83D000025CA
:101D400020B984F83C50204600F00EFD242084F891
:101D50003D002068016821F00101016020680168F0
:101D600041F4004101602068016821F400410160F4
:101D700001F07CFB4D4A6168914201D84C4900E07A
:101D80004C49884201D2012070BD4B492368B0FB09
:101D9000F1F15E6826F03F060E435E606368934291
:101DA00006D94FF4967359434FF47A73B1FBF3F1AC
:101DB0002368491C1E6A26F03F0631431962616898
:101DC000914210D84900401EB0FBF1F2521CC2F300
:101DD0000B02042A01D2042022E0B0FBF1F0401CE7
:101DE000C0F30B001CE0A268F2B301EBC10303EBEC
:101DF0000116431EB3FBF6F35B1C43F480431B0543
:101E000049D092B301EBC10202EB0111401EB0FBBD
:101E1000F1F0401CC0F30B0040F4804040F400405F
:101E20002168CA694CF6FF739A431043C861D4E92C
:101E3000071001432068026822F0C00211430160CC
:101E4000D4E9030101432068826848F2FF339A43D2
:101E500011438160D4E9050108432168CA6822F072
:101E6000FF021043C86001E00EE016E02068016840
:101E700041F0010101602564202084F83D002563C4
:101E800084F83E50002070BD01EB4106431EB3FBB9
:101E9000F6F35B1CB3E70120C2E701EB4101401EF2
:101EA000B0FBF1F0401CC0F30B00B7E7A0860100C7
:101EB00080841E0000093D0040420F002DE9FF4FC5
:101EC00081B089460446FFF715FF054694F83D00AA
:101ED0004FF0000820287DD11923012250492046C7
:101EE000009502F033FB002874D194F83C000128DF
:101EF00070D0012084F83C0020680168C90703D134
:101F0000016841F0010101602068016821F400616D
:101F10000160242084F83D00002626644148E062E8
:101F20004FF0011B20272068016841F48071016097
:101F30000095002259462046049B02F007FB50B151
:101F400020680068C00502D54FF4007020640320AB
:101F500005B0BDE8F08F216809F0FE000861FFF7C9
:101F6000C9FE2168054648694969C0F34000C1F3CC
:101F700080214FF0A00A0FE0FFF7BCFE411B049840
:101F8000814200D808B984F83DA0216848694969B0
:101F9000C0F34000C1F3802194F83D20A02A02D074
:101FA00008B90029E8D084F83D7020684169C94328
:101FB000890716D4016841F4007101602068416905
:101FC00080691923012216492046009502F0BEFAC5
:101FD000B8B900E021E084F83D7084F83C6000204E
:101FE000B6E7016841F40071016021686FF4806018
:101FF0004861192301220A492046009502F0A6FAF9
:1020000008B10120A4E7039808F1010880458AD3AC
:1020100084F83D7084F83C60F3E7022098E7000004
:10202000020010000000FFFF2DE9F84F0025DDF849
:102030002890984617468A4604460095FFF75AFEB0
:10204000064694F83D0020287AD1192301228649BA
:102050002046009602F07AFA0028F5D194F83C0068
:1020600001286DD0012084F83C0020680168C90770
:1020700003D1016841F0010101602068016821F489
:1020800000610160222084F83D00102084F83E00A9
:1020900025646762A4F82A80608D20857348E06219
:1020A00033464A465146204602F08EF800287CD13D
:1020B000208DDFF8BC81202768B1012814D00228C8
:1020C000206801681ED041F4806101602068416988
:1020D00080690090BBE020684169816900910168D6
:1020E00041F400710160B2E02068016821F4806170
:1020F000016072B62068416981690091016841F40C
:1021000000710AE041F40061016072B62068416923
:1021100081690091016821F48061016062B696E0F6
:10212000032865D801280CD002284B464FF0000246
:102130004146204600960BD002F008FAA8BB0CE0FE
:1021400090E032464946204602F0A6FA68BB71E0AC
:1021500002F0FCF948BB72B633E02068016821F454
:102160008061016072B620680069616A0870606A07
:10217000401C6062208D401E2085608D401E608561
:102180003C4846F2A8110068B0FBF1F0C0EBC0007B
:1021900000EB80000090401E009007D0206840694E
:1021A000C04340070DD50098F5E727E044F8305FBD
:1021B0006773A573206940F02000206162B6257323
:1021C0001CE02068016841F400710160206800692A
:1021D000616A0870606A401C6062218D491E218519
:1021E000618D491E618562B621680969017025E02B
:1021F00032464946204602F04FFA10B10120BDE8B0
:10220000F88F20680069616A0870606A401C60622B
:10221000208D401E81B22185608D401E6085206822
:102220004269D243520712D4032903D1016821F431
:102230008061016020680069616A0870606A401C02
:102240006062208D401E2085608D401E6085208D3F
:1022500000287FF465AF84F83D7084F83E5084F820
:102260003C50CCE70220CAE7020010000000FFFF4C
:1022700004000100480100202DE9F84F1F46904658
:102280008A460446DDF82890FFF734FD054694F8A9
:102290003D0020287FD11923012240492046009586
:1022A00002F054F9002876D194F83C00012872D04D
:1022B000012084F83C0020680168C90703D1016847
:1022C00041F0010101602068016821F400610160B2
:1022D000212084F83D00102084F83E00002626646A
:1022E000C4F824806785608D20852D48E0622B46E8
:1022F0004A465146204601F0DDFF90B92068416909
:102300008069009036E02A464946204602F0FCF9F2
:1023100050B1206C042804D12068016841F4007198
:1023200001600120BDE8F88F606A216800780861CB
:10233000606A401C6062618D491E6185218D491E65
:1023400089B2218522685369DB435B070BD451B105
:1023500000781061606A401C6062608D401E60857C
:10236000208D401E20852A464946204602F0C2F8AC
:102370000028CED1208D0028C5D154F83D0B01682E
:1023800041F400710160202004F81E09E6776677A9
:102390000020C7E7FFE70220C4E7000002001000AA
:1023A0000000FFFF2DE9FF4F83B00025DDE9107924
:1023B0009A4693460446DDF848800095FFF79AFC5C
:1023C000064694F83D0020287CD119230122884933
:1023D0002046009602F0BAF80028F5D194F83C00A7
:1023E00001286FD0012084F83C0020680168C907EB
:1023F00003D1016841F0010101602068016821F406
:1024000000610160222084F83D00402084F83E00F5
:1024100025646762A4F82A90608D20857548E06283
:10242000CDE9008653465A462046049901F090FFB4
:1024300000287CD1208DDFF8C091202768B10128C9
:1024400014D00228206801681ED041F48061016028
:102450002068416980690090BCE020684169816919
:102460000091016841F400710160B3E020680168E7
:1024700021F48061016072B6206841698169009130
:10248000016841F400710AE041F40061016072B634
:102490002068416981690091016821F480610160CF
:1024A00062B697E0032865D801280CD0022843467D
:1024B0004FF000024946204600960BD002F046F845
:1024C000A8BB0CE091E032464146204602F0E4F819
:1024D00068BB72E002F03AF848BB72B633E020689D
:1024E000016821F48061016072B620680069616A48
:1024F0000870606A401C6062208D401E2085608DDF
:10250000401E60853D4846F2A8110068B0FBF1F01E
:10251000C0EBC00000EB80000090401E009007D090
:1025200020684069C04340070DD50098F5E727E0D3
:1025300044F8305F6773A573206940F02000206184
:1025400062B625731CE02068016841F400710160E7
:1025500020680069616A0870606A401C6062218DB1
:10256000491E2185618D491E618562B62168096910
:10257000017026E032464146204602F08DF818B13F
:10258000012007B0BDE8F08F20680069616A08701B
:10259000606A401C6062208D401E81B22185608D82
:1025A000401E608520684269D243520712D4032935
:1025B00003D1016821F48061016020680069616ACB
:1025C0000870606A401C6062208D401E2085608D0E
:1025D000401E6085208D00287FF464AF84F83D7034
:1025E00084F83E5084F83C50CBE70220C9E7000055
:1025F000020010000000FFFF04000100480100205D
:102600002DE9FF4F83B09A46DDE9119793460446C2
:10261000DDF84080FFF76EFB054694F83D0020286A
:102620007FD11923012240492046009501F08EFFF9
:10263000002876D194F83C00012872D0012084F85B
:102640003C0020680168C90703D1016841F001011D
:1026500001602068016821F400610160212084F894
:102660003D00402084F83E0000262664C4F8248003
:10267000A4F82A90608D20852C48E062CDE9007591
:1026800053465A462046049901F0E0FE70B930E006
:102690002A463946204602F037F858B1206C042803
:1026A00004D12068016841F400710160012007B085
:1026B000BDE8F08F606A216800780861606A401C9C
:1026C0006062218D491E89B22185628D521E62850C
:1026D00022685369DB435B070BD469B10078106152
:1026E000606A401C6062208D401E2085608D401E07
:1026F0006085208D0028CBD12A463946204601F03E
:10270000F9FE0028CAD154F83D0B016841F400716C
:102710000160202004F81E09E67766770020C6E7EE
:10272000FFE70220C3E70000020010000000FFFFE7
:1027300010B50068094988420FD10948C16921F4E0
:102740008001C161074C01152046FFF74DF9E114E6
:102750002046BDE81040FFF747B910BD00580040C3
:1027600000100240000C014010B586B0002100911D
:102770000191029103910068104988421BD1104CCD
:10278000A06940F00800A061A069694600F0080057
:1027900004904FF4406000901220019003200390B9
:1027A0000848FFF7ADF9E06940F48000E061E069B6
:1027B00000F48000049006B010BD000000580040F6
:1027C00000100240000C0140024881680278114468
:1027D000816070473C010020074810B5016841F056
:1027E00010010160032000F075F80F2000F006F8DA
:1027F00000F024F8002010BD0020024070B50D4DFF
:1028000004464FF47A712878B1FBF0F00A49096860
:10281000B1FBF0F001F078FA48B9102C07D2002291
:102820002146501E00F036F800206C6070BD01207B
:1028300070BD00003C010020480100200C4808B594
:10284000816941F001018161816901F0010100911B
:10285000C16941F08051C161C06900F080500090B1
:102860000448416821F0E06141F00071416008BD19
:102870000010024000000140002809DB00F01F02A8
:10288000012191404009800000F1E020C0F80011D2
:1028900070470000F0B40E4B1B680C46C3F30223D4
:1028A000C3F10705042D00D90425191D072901D2FC
:1028B000002300E0DB1E012606FA05F1491E214037
:1028C00099409E40761E16403143F0BC0AF050BF3E
:1028D0000CED00E0064900F0070208684FF6FF0320
:1028E000184040EA0220034A104308607047000085
:1028F0000CED00E00000FA0510B50C0607D501F05C
:10290000070101EB810100EBC100103005E001EB94
:10291000810100EBC10000F5A87099B232B101222B
:1029200002730181190C4181002010BD0022027345
:10293000C180F9E7704710B50C4601EB840100EB4C
:10294000C101D0F8D4024A6A214609F08CFE012C5C
:1029500003D1BDE8104008F093BE10BD01EB810229
:1029600000EBC202D0F8D402D2F8642109F0DEBE36
:1029700070B504460B0601F0070000EB800104EB84
:10298000C1014FF001024FF0000502D54A74103129
:1029900003E081F8515101F5A871087094F8900294
:1029A000012808D084F8902220680AF01FFB84F8E0
:1029B0009052002070BD022070BD70B5044601F039
:1029C0000F002279904201D9012070BD0B0601F061
:1029D000070000EB800104EBC1014FF001024FF052
:1029E000000502D54A74103103E081F8515101F518
:1029F000A8718D70087094F89002012808D084F8AE
:102A0000902220680AF08FFB84F89052002070BD5D
:102A1000022070BD2DE9F05F04685FEA424C0B783C
:102A20008D69B4F850C04FF000064BF68F7948F22C
:102A3000800A48F68F7B48F2C00E4FF480672AD593
:102A40004FF0020808EBC308C44407EB4C07E45BF3
:102A5000C4F30904A54203D32D1B8D6101D00BE003
:102A60008E61066836F8235005EA090585F400559D
:102A700045EA0A0526F82350520609D50D78036861
:102A800033F8252002EA0B0242EA0E0223F8252041
:102A900084B30A8929E04FF0060808EBC308C44450
:102AA00007EB4C07E45BC4F30904A54203D32D1BD9
:102AB0008D6101D00BE08E61066836F8235005EA7F
:102AC000090585F4005545EA0A0526F82350520603
:102AD00009D40B78056835F8232002EA0B0242EA94
:102AE0000E0225F823202CB14A8949690068234643
:102AF0000AF0F8FD2046BDE8F09F2DE9F05F05469D
:102B000000680C465FEA426C16468B692278B0F882
:102B100050C048F68F774CF280094FF4004B4FF6C7
:102B2000FF7E4FF4806A4FF0000172D54FF002082B
:102B300008EBC208E0440AEB480C30F80C00C0F384
:102B40000900834211D91B1AA3610FD0730407D562
:102B50002E6836F822303B4043EA090326F822303B
:102B600094F82420012A47D052E1A161607810B185
:102B7000012813D01AE02868B0F85030184400EB50
:102B80000210B0F80424C2F30902A0F80424B0F83B
:102B9000042442F40042A0F8042407E02868B0F8B6
:102BA0005030184400EB0210A0F804146278286832
:102BB00012B1012A11D018E0B0F850100844217861
:102BC00000EB0110B0F80C14C1F30901A0F80C14CB
:102BD000B0F80C1441F4004105E0B0F85020104466
:102BE000227800EB0210A0F80C1421782846FFF799
:102BF000A2FE700472D40BE1626902446261E26970
:102C00000244E2612369226A9A4203D31846111AE8
:102C100004E03EE084F824100AB110462162617895
:102C200011B1012929D031E02968B1F850201144AF
:102C3000227801EB0211B1F80424C2F30902A1F8D1
:102C4000042401F204413E2807D94209C30600D1F9
:102C5000521E0B884BEA822207E048B14208C307A4
:102C600000D0521C0B880EEA822213430B800DE029
:102C70000A8842F400420A8008E02968B1F850202E
:102C80001144227801EB0211A1F8040483B22289D5
:102C9000BAE04FF0060808EBC208E0440AEB480C23
:102CA00030F80C00C0F30900834211D31B1AA36152
:102CB0000FD0730407D42E6836F822303B4043EA25
:102CC000090326F8223094F82420012A51D09FE0ED
:102CD000A161607818B1012814D01BE03FE028689A
:102CE000B0F85030184400EB0210B0F80424C2F3DE
:102CF0000902A0F80424B0F8042442F40042A0F829
:102D0000042407E02868B0F85030184400EB0210A3
:102D1000A0F804146278286812B1012A11D018E0D2
:102D2000B0F850100844217800EB0110B0F80C14F2
:102D3000C1F30901A0F80C14B0F80C1441F40041DF
:102D400005E0B0F850201044227800EB0210A0F803
:102D50000C1421782846FFF7EEFD700458D4227831
:102D6000296831F82200384040EA090021F82200A1
:102D70004EE0626902446261E2690244E2612369F1
:102D8000226A9A4203D31846111A216204E00AB15A
:102D90001046216284F824106278296812B1012A51
:102DA00028D02FE0B1F850201144227801EB021115
:102DB000B1F80C24C2F30902A1F80C2401F20C4171
:102DC0003E2807D94209C30600D1521E0B884BEAA0
:102DD000822207E048B14208C30700D0521C0B888A
:102DE0000EEA822213430B800CE00A8842F4004270
:102DF0000A8007E0B1F850201144227801EB02115B
:102E0000A1F80C04628983B2616928680AF09CFC0D
:102E10002278296831F8220048F6BF73184080F004
:102E2000300048F28003184321F822000020BDE85A
:102E3000F09F01F0070101EB810100EBC100D0F828
:102E40006C0170472DE9F04104460F0601F00700C0
:102E500000EB800104EBC1014FF001064FF00005CB
:102E600002D54E74103103E081F8515101F5A8717B
:102E7000022B08700A61CB7000D10D7194F890029A
:102E8000012809D084F89062206809F05FFF284685
:102E900084F89052BDE8F0810220FBE710B501F004
:102EA000070404EB840100EBC101C1E959230022AE
:102EB000C1F86C2181F8512181F85041006801F579
:102EC000A8710AF085F9002010BD70B504460D46C2
:102ED00001F007002179884201D9012070BD29063F
:102EE0004FF000064FF0010206D500EB800104EB25
:102EF000C1014A74103107E005EB850104EBC10103
:102F000081F8516101F5A8718A70087094F89002F7
:102F1000012807D084F8902220680AF040F9680759
:102F200002D006E0022070BD04F5267120680AF088
:102F3000F8F884F89062002070BD10B501F0070425
:102F400004EB840100EBC101C1E90923012281F8EE
:102F500034200B630023CB624A7401F8104F0068E1
:102F60000AF036F9002010BD1FB5044600680AF0CB
:102F7000B5FB010403D5204604F05EFF1FBD4105EB
:102F80000DD5206830F8441F21F48061018020466F
:102F900000F000F90021204600F017F91FBD4104A0
:102FA00005D5206830F8441F21F4804174E0810485
:102FB00005D5206830F8441F21F400516CE0C104AD
:102FC00014D5206830F8401F21F0040101802068EA
:102FD00030F8401F21F008010180204600F0EDF894
:102FE000206830F8441F21F4805155E0010540D598
:102FF000D4F800200020694632F8203021F8103043
:10300000401CC0B20828F7D332F8400F40F001004E
:103010001080206830F8402F22F0010202802068E2
:10302000B0F844205205FBD530F8442F22F48062DA
:1030300002800020236831F8102023F82020401C53
:10304000C0B20828F6D3206830F8401F41F00801CC
:103050000180206830F8441F21F40061018020685D
:1030600030F8401F41F004010180204600F0E0F8F4
:103070001FBD810509D5206830F8441F21F4007177
:103080000180204600F09DF81FBDC005FCD52068DA
:1030900030F8441F21F4807101801FBD2DE9F041FB
:1030A000040004D094F89102002518B107E0012033
:1030B000BDE8F08184F89052204600F04DF80320DE
:1030C00084F89102657120680AF024F894E80F00F2
:1030D00009F08AFF022698BB002120680AF02CFB29
:1030E00070BB002001270BE000EB800104EBC10165
:1030F0004F740874CD740D624D62401CC0B28D6275
:1031000021798142F0D8002012E000BF00EB80015D
:1031100004EBC10181F8515181F8500181F85351FC
:10312000C1F86051C1F86451401CC0B2C1F8685187
:1031300021798142EAD894E80F0009F0E2FF10B14A
:1031400084F89162B3E7657384F89172206809F09E
:10315000D6FF0020ACE7000008B500680B498842A4
:1031600012D10B48C16941F40001C161C06900225C
:1031700000F40000009002211420FFF78BFBBDE853
:1031800008401420FFF778BB08BD0000005C004039
:103190000010024070B5044680790125022801D054
:1031A000FEF78EFA2946D4F8D40209F0A7FBD4F82A
:1031B000D402BDE8704009F063BBD0F8D40209F036
:1031C00087BBD0F8D40209F08DBB10B5044690F847
:1031D000900201280AD0012084F8900261732068CF
:1031E0000AF0ACFA002084F8900210BD022010BD55
:1031F000D0F8D42200F52671104609F08BBB10B52B
:10320000044690F89002012810D0012084F8900222
:1032100020680AF04EFA01212046FFF78BFB206858
:1032200009F06BFF002084F8900210BD022010BD51
:1032300010B50446D0F8D40209F0ABFBA07A002800
:1032400004D00348016841F00601016010BD000090
:1032500010ED00E02DE9F84305460078354CC00735
:1032600054D0E0690026C00008D4E06940F08050E6
:10327000E061E069012600F0805000902E4801686E
:10328000C90512D40168804641F480710160FEF7DF
:1032900031FD074605E000BFFEF72CFDC01B64288A
:1032A00023D8D8F80000C005F6D5206A10F4407085
:1032B00021D0A98801F4407181421CD0206A1F49A5
:1032C000012220F440700A6000220A602062C007D8
:1032D00011D0FEF70FFD074641F2883808E000BF25
:1032E000FEF708FDC11B414502D90320BDE8F88364
:1032F000206A8007F4D5206A696820F4407008438A
:1033000020621EB1E06920F08050E06128788007DB
:1033100005D56068A96820F44040084360602878BB
:10332000C00605D56068E96820F480000843606045
:103330000020DBE7001002400070004040044242E1
:103340002DE9F0470F46050061D0434E306800F08C
:103350000700B84209D2306820F0070038433060D7
:10336000306800F00700B84251D128683B4C810713
:1033700012D5400703D5606840F4E06060602878AB
:10338000000703D5606840F4605060606068A96819
:1033900020F0F000084360602878C00728D06868F3
:1033A000012810D02168022810D0890700292EDAC0
:1033B000616821F0030101436160FEF79BFC8046D8
:1033C00041F288390DE021688903EFE78901EDE7D3
:1033D000FEF790FCA0EB0801494502D90320BDE8A7
:1033E000F0876068696800F00C00B0EB810FEFD1E6
:1033F000306800F00700B8420BD9306820F00700B1
:1034000038433060306800F00700B84201D0012036
:10341000E5E72878400705D56068E96820F4E060B2
:10342000084360602878000706D56068296920F4A1
:10343000605040EAC100606000F038F86168084AF6
:10344000C1F30311515CC840064908600648006892
:10345000FFF7D4F90020C2E700200240001002402C
:10346000B7D8000848010020400100200448054961
:1034700000684968044AC1F30221515CC8407047A2
:103480004801002000100240C7D800080448054940
:1034900000684968044AC1F3C221515CC8407047C2
:1034A0004801002000100240C7D800080E4A5168A9
:1034B0000E4801F00C03042B11D0082B0FD10C483F
:1034C000C1F38343C903C05C0AD55168084AC1F3FC
:1034D0004041921E515C054A5043B0FBF1F07047E9
:1034E00004494843704700000010024000127A006F
:1034F000A7D8000800093D002DE9F84F040070D05E
:103500002078C04DC00749D06868C0F38100012809
:1035100007D06868C0F38100022809D16868C00339
:1035200006D52868800339D560680028E7D035E0E3
:103530006068B0F5803F0BD010B1B0F5A02F11D06E
:10354000286820F480302860286820F4802002E079
:10355000286840F480302860606890B1FEF7CAFBAC
:1035600006460AE0286840F480202860F0E700BFA3
:10357000FEF7C0FB801B642873D828688003F7D54A
:103580000CE0FEF7B7FB064605E000BFFEF7B2FB16
:10359000801B6428F0D828688003F7D420789A4EDE
:1035A00080074FF001094FF0000839D5686810F026
:1035B0000C0F07D06868C0F38100022809D1686841
:1035C000C00306D42868800714D52069012808D1D3
:1035D00010E02069B0B1C6F80090FEF78BFB0746FB
:1035E00005E00AE1FEF786FBC01B0228C4D8286864
:1035F0008007F7D52868616920F0F80040EAC1002B
:1036000028600DE0C6F80080FEF774FB074604E072
:10361000FEF770FBC01B022823D828688007F7D468
:10362000207800072CD57948A169D9B1C0F800905D
:10363000FEF760FB074604E0FEF75CFBC01B0228B8
:103640000FD8686A8007F7D571484FF4FA510068BF
:10365000B0FBF1F0009000BF0098411E0091FAD23B
:103660000EE080E0C0F80080FEF744FB074604E06F
:10367000FEF740FBC01B022875D8686A8007F7D4A4
:103680002078400760D5E8690027C00008D4E869C1
:1036900040F08050E861E869012700F08050009018
:1036A0005C480168C90513D40168834641F4807100
:1036B0000160FEF71FFB824606E000BFFEF71AFB23
:1036C000A0EB0A0064284ED8DBF80000C005F5D551
:1036D000E06801280AD008B1052813D0286A20F034
:1036E00001002862286A20F0040002E0286A40F005
:1036F00001002862E06841F2883B98B1FEF7FAFACF
:1037000082460BE0286A40F004002862EEE700BF22
:10371000FEF7F0FAA0EB0A0159455AD8286A80074B
:10372000F6D50CE0FEF7E6FA824605E0FEF7E2FA8F
:10373000A0EB0A0159454CD8286A8007F6D41FB17E
:10374000E86920F08050E861E06988B36968C1F3F6
:103750008101022944D00228C6F8608004D0FEF717
:10376000C9FA044638E034E0FEF7C4FA074604E03C
:10377000FEF7C0FAC01B02282BD828688001F7D4B6
:10378000206AB0F5803F05D16868A16820F4003058
:1037900008436860D4E908010843696821F474119A
:1037A00008436860C6F86090FEF7A4FA044606E095
:1037B00025E000BFFEF79EFA001B022809D8286802
:1037C0008001F7D51BE000BFFEF794FA001B02282A
:1037D00002D90320BDE8F88F28688001F4D40EE0F8
:1037E0000128F7D06868226A00F48031914204D140
:1037F000616A00F47010884201D00120EAE70020DD
:10380000E8E700000010024000004242800442420B
:10381000480100200070004070B50446806C00250F
:1038200038B1FDF74FFF20B1606D40F010006065CA
:103830000125E06C38B1FDF745FF20B1606D40F027
:103840001000606501252068416821F00301416096
:10385000012084F85100284670BD0000006810491E
:1038600082B088421AD10F4A1188491C1180C16860
:103870000022806800900C4803780C480C490BB972
:103880000B7853B1097811B10A4A012111700078FF
:10389000002803D102B003F029BB027002B07047C8
:1038A00000300140D0000020BE000020C4000020F5
:1038B000BF000020E300002038B5044600684268DD
:1038C0008168C9434B0606D5CB0704D1D3435B06B9
:1038D00001D4216C05E08B0708D4D3431B0605D423
:1038E000616C01B02046BDE8304008478B0601D529
:1038F0004B0646D4D3439B0643D44B060AD494F8D4
:103900005130032B3ED0636D43F004036365C368FD
:1039100083680093890609D4616D41F001016165F6
:1039200081680091016821F040010160606D00280C
:1039300027D02068416821F0E0014160012084F82F
:103940005100900722D02068416821F003014160B6
:10395000104DE06C40B14563E06CFDF7D7FE18B147
:10396000606D40F040006065A06C002809D04563A0
:10397000A06CFDF7CBFE002803D0606D40F0400046
:10398000606538BDC1688068009038BD2046FFF78B
:1039900065FF38BD29BC000870B5040009D0606A15
:1039A000002540B125616561A56294F8510040B1E0
:1039B0000CE0012070BD6068B0F5827FF4D0E56155
:1039C000F2E784F85050204600F040F8022084F8D6
:1039D00051002068016821F040010160A088218920
:1039E00000F4827001F404410843A18901F40061EC
:1039F0000843217C01F002010843217D01F001010F
:103A00000843218B01F400710843217F01F0380144
:103A1000084394F8201001F080010843218D01F43F
:103A20000051084321680860A069042101EA1040A0
:103A3000216848602068C16921F40061C161656541
:103A4000012084F85100002070BD000070B586B0E0
:103A500000250646009501950295039500681D49CD
:103A6000884234D11C49886940F480508861886953
:103A700000F480500490886940F0040088618869EF
:103A8000694600F004000490A020009002200290FB
:103A90001248FEF735F8134C1148C4E900058020A0
:103AA000C4E9025020202561C4E905502046E561A3
:103AB000FDF722FF08B1FDF703FEF46400220321A5
:103AC00023206662FEF7E6FE2320FEF7D5FE06B051
:103AD00070BD0000003001400010024000080140AD
:103AE0001C0002406803002070B5044690F85100A5
:103AF000012829D1A068042318B96568B5F5827F2B
:103B000017D0F9B1F2B194F85050012D1CD0012515
:103B100084F8505084F8513000256565A163A28770
:103B2000E28725646564A586E586B0F5004F0DD073
:103B300016E084F851302046BDE8704013460A462E
:103B400000F058B8012070BD022070BD20680168E7
:103B500021F0400101602068016821F4804101608A
:103B6000E16C1748C862E16C16488862E16C16483F
:103B70000863E06C4563E38F2168A26B0C31E06C55
:103B8000FDF7E8FE30B1606D40F01000606584F82C
:103B90005050D7E720680168490603D4016841F016
:103BA0004001016084F850502068416841F02001D4
:103BB00041602068416841F001014160002070BD12
:103BC0005BBC00086FBC000839BC000800680349F2
:103BD000884201D103F02CB870470000003001404A
:103BE00000680349884201D103F022B87047000001
:103BF0000030014070B5044690F851006568012816
:103C000006D0B5F5827F3AD1A568A5BB042836D188
:103C100091B38AB383B394F8500001282FD00120C8
:103C200084F8500094F85100042802D0052084F84C
:103C30005100002565652163A386E386A263A387FF
:103C4000E3872564656494F85100042819D0E16C79
:103C50002748C8622748E16C8862E16C26480863FF
:103C6000E06C4563E38F2168A26B0C31E06CFDF7DB
:103C700071FE00BB0AE002E0FFE7012070BD0220F8
:103C800070BDE16C1D48C8621D48E4E720684168CA
:103C900041F001014160A06CC562A06C8562A06C1E
:103CA0000563A06C4563E38E2268216B0C32A06C27
:103CB000FDF750FE30B1606D40F01000606584F893
:103CC0005050DAE720680168490603D4016841F0E2
:103CD0004001016084F850502068416841F02001A3
:103CE00041602068416841F002014160002070BDE0
:103CF00065BC0008D9BC000839BC00085BBC0008E2
:103D00006FBC00087047704710B5401EB0F1807F4F
:103D100001D3012010BD4FF0E02460610F21601736
:103D200009F026FD0020A06107202061002010BDC1
:103D30007047704710B5040003D094F83D0010B1EF
:103D400007E0012010BD002084F83C00204600F070
:103D50001FF8022084F83D00211D206808F000F9BA
:103D6000012084F8460084F83E0084F83F0084F87F
:103D7000400084F8410084F8420084F8430084F84D
:103D8000440084F8450084F83D00002010BD000088
:103D900008B500680F4988421AD10F48816941F47B
:103DA000006181618069002200F4006000900121BF
:103DB0001920FEF76FFD1920FEF75EFD002201219C
:103DC0001B20FEF767FDBDE808401B20FEF754BD31
:103DD00008BD0000002C01400010024090F83D108A
:103DE000012901D001207047022180F83D100168AF
:103DF000CA6842F00102CA6000680B49884208D0D4
:103E0000B0F1804F05D00949884202D00849884264
:103E100004D1816801F00701062903D0016841F04F
:103E20000101016000207047002C014000040040A7
:103E30000008004001680A6A41F211131A4207D1D2
:103E40000A6A9B101A4203D10A6822F001020A6032
:103E5000012180F83D10002070470168CA6822F0F7
:103E60000102CA6001680A6A41F211131A4207D1BD
:103E70000A6A9B101A4203D10A6822F001020A6002
:103E8000012180F83D100020704770472DE9F04176
:103E9000054690F83C0000260C46012810D0012071
:103EA00085F83C0072B1042A1CD0082A2CD00C2AB8
:103EB00050D00126002085F83C003046BDE8F08156
:103EC0000220FBE7D4E90012E368286808F084F8D0
:103ED0002868816921F00C01816128688169A268E4
:103EE00011430FE0D4E90012E368286808F0A0F855
:103EF0002868816921F44061816128688169A2682C
:103F000041EA02218161D5E72868D4E9002C277BAA
:103F1000036A016A21F480710162C16923F40073AC
:103F200021F0030141EA0C0121F0F00C39074FF4B4
:103F300000774CEA116107EA02221A43C16102626A
:103F40002868C16921F00C01C1612868C169A268B3
:103F500011432BE02868D4E90021E768036AD0F810
:103F600020C02CF4805CC0F820C0D0F81CC023F422
:103F700000532CF4407C4CEA012121F4704C4FF6A4
:103F8000FF7101EA07314FF4005741EA0C0107EADB
:103F900002321A43C16102622868C16921F440619A
:103FA000C1612868C169A26841EA0221C16181E753
:103FB00010B5040003D094F83D0010B107E00120D3
:103FC00010BD002084F83C00204600F01FF80220BD
:103FD00084F83D00211D206807F0C2FF012084F80D
:103FE000460084F83E0084F83F0084F8400084F8DE
:103FF000410084F8420084F8430084F8440084F8C7
:10400000450084F83D00002010BD000008B50068A0
:104010000649884208D10648816941F400618161FE
:10402000806900F40060009008BD0000002C014091
:10403000001002402DE9F04104460068C668056999
:104040004FF00007A90713D5B10711D5F91E01617B
:1040500001202077206880698007204602D0FFF782
:1040600014FF04E000F07EF8204600F07CF827778B
:10407000680716D5700714D521686FF00400086131
:10408000022020772068806910F4407F204602D00B
:10409000FFF7FBFE04E000F065F8204600F063F84F
:1040A0002777280715D5300713D521686FF008004A
:1040B0000861042020772068C0698007204602D06C
:1040C000FFF7E3FE04E000F04DF8204600F04BF867
:1040D0002777E80616D5F00614D521686FF0100092
:1040E0000861082020772068C06910F4407F2046CE
:1040F00002D0FFF7CAFE04E000F034F8204600F0DA
:1041000032F82777E80708D0F00706D021686FF06B
:1041100001000861204600F027F8280608D530067F
:1041200006D521686FF0800008612046FFF700FE89
:10413000680608D5700606D521686FF04000086152
:10414000204600F027F8A8060AD5B00608D5216851
:104150006FF0200008612046BDE8F041FFF7E9BD9F
:10416000BDE8F081704770470068084988420CD16B
:104170000748C17909B1017819B1007818B102F086
:10418000C5BF02F059BF02F019BF7047002C0140B3
:10419000000000207047FEE701684A69D2435205DB
:1041A0000FD46FF480624A61002140F8301F202252
:1041B00042738173026942F00402026101730120BB
:1041C00070470020704700002DE9F84F0446C06A90
:1041D0001E4693460D4621680A6842F480620A60D2
:1041E000082807D0012805D010F5803F02D0206BA9
:1041F000112804D12068016841F4807101604FF0FA
:1042000001195B46002249462046009600F09EF9BF
:104210004FF4007840B120680068C00501D5C4F8AB
:1042200040800320BDE8F88F2069DFF884A0B0F556
:10423000804F0FD00620216800EAD51747F0F00024
:10424000086133465A460AF10601204600F0C6F9D5
:1042500058BB03E0E8B240F001001CE02168E8B27E
:10426000086133465A465146204600F0B7F9E0B996
:104270002068416981690091016841F480710160A1
:104280005B46002249462046009600F05FF9002870
:10429000C1D147F0F1002168086133465A465146C2
:1042A000204600F09BF90028BCD00120BAE70000AE
:1042B00002000100F8B50446C06A1E460D461746C6
:1042C000082807D0012805D010F5803F02D0206BC8
:1042D000122804D12068016841F4807101601346FE
:1042E00000224FF001112046009600F02FF940B156
:1042F00020680068C00502D54FF4007020640320D8
:10430000F8BD2069B0F5804F0ED00620216800EA84
:10431000D51040F0F000086133463A460B4920467C
:1043200000F05CF978B902E005F0FE0000E0E8B2C8
:1043300021680861054933463A46891F204600F046
:104340004DF90028DCD00120F8BD00000800010074
:104350002DE9F84F0446006889460B9D0168984690
:10436000174641F4806101602068016841F4807162
:10437000016000954FF0011B0022594620460A9B20
:1043800000F0E4F84FF4007A40B120680068C005FE
:1043900001D5C4F840A00320BDE8F88F216809F0DA
:1043A000FE0008612B46284920460A9A00F016F9BB
:1043B000F0BB20684169806900902A4620460A992E
:1043C00000F0A2F940B1206C04283AD120680168BD
:1043D00041F40071016034E0FEB2B8F1010F09D080
:1043E0002168380A08612A4620460A9900F08CF9AB
:1043F0000028E8D1206806612A4620460A9900F084
:1044000083F90028DFD12068016841F480710160E0
:1044100000950022594620460A9B00F097F8002894
:10442000B3D1216809F0FF0040F00100086100E00D
:1044300007E02B46044920460A9A00F0CFF80028EE
:10444000AAD00120A8E70000020001002DE9F843EE
:10445000044600680D46DDE908970168984616464F
:1044600041F4807101604B4600224FF0011120465B
:10447000009700F06BF848B120680068C00502D5CD
:104480004FF4007020640320BDE8F883216805F034
:10449000FE0008613B464A461549204600F09EF85A
:1044A00088B920684169806900903A4649462046AB
:1044B00000F02AF948B1206C042804D12068016872
:1044C00041F4007101600120DEE7F5B2B8F1010F9F
:1044D00009D02168300A08613A464946204600F072
:1044E00013F90028E7D1206805610020CCE700001F
:1044F0000200010070B516460D4604461EE0204637
:10450000FFF74AFE08B1012070BD681C16D0FDF708
:10451000F1FB801BA84200D885B920684069C043E0
:1045200040070BD5002044F8300F20216173A073A1
:10453000216941F0200121612073E4E7206840698E
:10454000C0434007DBD4002070BD00002DE9F047D8
:10455000984617460D460446C1F30746DDF82090FD
:104560002AE000BFB8F1FF3F26D0FDF7C3FBA0EB68
:104570000901414502D8B8F1000F1DD12068012E74
:1045800016D0806925EA00000004000C12D000203B
:10459000B84211D1002044F8300F20216173A0737C
:1045A000216941F02001216120730120BDE8F087DD
:1045B0004069E7E70120EBE72068012E0AD0806917
:1045C00025EA00000004000C06D00020B842C9D043
:1045D0000020EBE74069F3E70120F7E72DE9F0471A
:1045E000984616460D4604464FF000094FF0200A43
:1045F000C1F3074723E020684069C043400515D454
:104600002068016841F40071016021686FF48060E6
:104610004861C4F8309084F83DA084F83E90216C45
:1046200041F00401216484F83C9021E0701C06D024
:10463000FDF760FBA0EB0800B04203D816B1012FD4
:104640001FD021E02068012F15D0806925EA0000E5
:104650000004000C18D000BF44F8309F84F80DA06F
:1046600084F80E90216941F02001216184F80C90BA
:104670000120BDE8F087406925EA00000004000C35
:10468000EAD12068406901E02068806925EA0000DD
:104690000004000CAFD1ECE72DE9F0410025904675
:1046A0000E460446202728E04069C043C0060CD4CB
:1046B00054F8301B6FF01000486144F810596777C8
:1046C000A577206A2062257714E0FDF713FBA0EBA5
:1046D0000800B04200D886B920684069C04340064F
:1046E0000BD544F8305F6773A573206940F0200054
:1046F000206125730120BDE8F08120684169C9432C
:104700004906D1D40020F6E770B516460D4604469A
:104710001EE02046FFF740FD08B1012070BD681C77
:1047200016D0FDF7E7FA801BA84200D885B92068AB
:104730004069C04300060BD5002044F8300F20210B
:104740006173A073216941F0200121612073E4E7C6
:1047500020684069C0430006DBD4002070BD000023
:10476000F0B500230A24302537261F4611E000BF8C
:10477000B4EB107F02D905EB107C01E006EB107C56
:1047800001F813C001EB430C00015B1C8CF80170B5
:10479000DBB29342ECD3F0BD70B5244E3088244C8C
:1047A0002188884209D0234890F89C12032904D11B
:1047B000D0F8B802D0F8140208B1002070BD3088DB
:1047C0002188884203D930882188401A02E0208855
:1047D000C0F5806085B2402D02D94025002001E05F
:1047E000002009E02188144A0144C1F30901515C09
:1047F000124A1154401C80B2A842F3D329460F48F4
:10480000FCF762FD20B920882844C0F3090020800D
:104810000B48017841B131882288914204D10021AE
:104820000170084808F074FF012070BD14010020D9
:1048300016010020AC030020781F0020BA2F0020B2
:10484000180100200CDC00082DE9F05F060030D0D4
:10485000FBF72AFF85B2FDF74DFADFF88490214C73
:10486000DFF884B0DFF8848082460127B8F80010B2
:1048700040462288914206D301882288891AA1F2F3
:10488000FF31494203E021880288891A491E89B212
:104890008D4202D80021164A1FE09BF89C02032893
:1048A00005D1FDF727FAA0EB0A00C82803D989F83B
:1048B0000070BDE8F09FFFF76FFF0028D6D1012000
:1048C000FDF780F8D2E7735C0488135503885B1CFE
:1048D000C3F309030380491C89B2A942F3D3E8E773
:1048E0001801002016010020AC0300201401002054
:1048F000781F00202DE9F04F68488DB00078684C93
:10490000002618B126700DB0BDE8F08F654800781C
:104910000128F8D16448DFF89491007899F80010E4
:104920000843F0D0624800780028ECD1FDF7E2F9A6
:10493000054620785F4F18B93868281A3228E2D324
:10494000207828B908215C48FDF7CAF90028DAD197
:1049500026703D600A272C2000F0B4FD0546052096
:1049600000F0B0FD044605B184B95448007848B160
:1049700001F092FD2C2000F0A5FD0546052000F079
:10498000A1FD0446002DBED0002CBCD0DFF830A124
:10499000DFF830B17F1EFFB2B5D38DF83060012350
:1049A0000CAA2946D0469AF8000000F0EDFD002838
:1049B000A9D19DF830000028A5D00B2306AA2146D6
:1049C00098F8000000F0E0FD80BB9DF81800019011
:1049D000FF2898D099F8000048B39BF8000001998F
:1049E00081423CD300F11201CAB201998A4236D900
:1049F000081AC0B2022832D39DF81910801E01F0A7
:104A00000F0CBDF81A10BDF81C200023C0B2BCF179
:104A1000010F09D0BCF1040F0AD0BCF1050F09D079
:104A2000BCF1090F09D107E0022306E02DE016E0F2
:104A3000012302E0032300E00423DFF88CC08CF89C
:104A40000000ACF80210ACF804208CF80630DFF857
:104A50007C804FF0010C88F800C003F015F81C486A
:104A6000007890B106A8009000214FF40072194818
:104A7000019B01F0A9F8174AC0F50071104416A275
:104A8000FBF7D8FB1348FFF7DFFE08210A48FDF7C4
:104A900027F901287FF47EAF35E70000BF00002032
:104AA00011010020990000201201002025010020A2
:104AB000300100200C010020000801409A00002075
:104AC00098000020FF000020320100200801002093
:104AD00010010020FA2F00200D0A00000649074AA5
:104AE0000968B1FBF2F141430520B1FBF0F000E0B1
:104AF00000BF401EFCD270474801002040420F001A
:104B000038B5144800248DF80040007880B1124870
:104B1000008868B1801D81B2104801236A46007880
:104B200000F060FD30B10EA008F0F2FD022038BDAB
:104B3000012038BD144804701448007820B902F0F0
:104B40006BFC08B902F088FC11A008F0E1FD002020
:104B500038BD00009C000020F000002098000020DC
:104B60004552523A20577269746520444542554770
:104B70004354524C322064697361626C65206661F3
:104B8000696C65640D0A0000BD000020BE000020B5
:104B9000494E464F3A2044454255474354524C32C1
:104BA0002064697361626C6564202842797465369B
:104BB0003D30783030290D0A000000000449002003
:104BC0000870044908800449087048707047000064
:104BD000AC000020B2000020800000200B4810B57F
:104BE000017881B1002404700948048009484470A8
:104BF0004FF4FA70FCF7E6FE0749012008700748F9
:104C00000470002010BD012010BD0000AC00002089
:104C1000B20000208000002099000020290100201F
:104C2000F8B514460D4600268DF800606A4642F23B
:104C30001071FCF7BFFC60B10749084A087010709A
:104C40004E7005B1287014B19DF80000207000204E
:104C5000F8BD8120F8BD00008000002098000020F1
:104C600030B4034D00246C7030BCFCF7ABBB0000CB
:104C7000800000202DE9FC4107460C001D46164629
:104C80004FF0000000D0207006B1307005B12870E0
:104C90000F49487008708DF80000ADF8040001A9B4
:104CA0006846FCF78FFB812808D0002804D114B196
:104CB0009DF8000020700020BDE8FC819DF80010E8
:104CC0000029F9D12A4631463846FFF7A9FFF3E714
:104CD000800000207CB5144D0446287840B113A113
:104CE00002220968019101A900F08CFC58B901E089
:104CF00081207CBD00208DF8000041F28831A02089
:104D0000FCF794FC08B101207CBD4FF4FA716846B1
:104D1000FCF70AFC18B914B19DF8000020700120BE
:104D2000687000207CBD000080000020DCAA00002C
:104D30002DE9F74F484882B00C460078B0B302988E
:104D4000A0B3022C32D3DFF814B19BF8000068B393
:104D5000B4F58A7F2AD84248008818B1824201D32C
:104D6000012000E000200026814643F6982AB04644
:104D70008DF8008051466846FCF7D6FB80BB9DF855
:104D8000000003284BD0A0284ED1029800250190A6
:104D900012E0601B87B23D2F00D93D2701983A46AB
:104DA00041199BF8000000F02DFC18B1012005B05E
:104DB000BDE8F08FE81985B2A542EAD34546FCF775
:104DC00099FF8DF804500746002514E0322101A810
:104DD000FCF7AAFB28B1B9F1000F0CD05DB113E0CC
:104DE00022E09DF80400032813D002280ED00428E6
:104DF0000AD0A02808D0FCF77DFFC11B5145E5D3A0
:104E0000B9F1000F04D01DB1404602E00125F2E7E0
:104E100001208DF80000032801D050B104E04FF4C8
:104E2000FA61A020FCF702FC761CF6B2032E9FD399
:104E3000BCE7B9F1000F0DD0074981F8008009499E
:104E4000094AA1F800808BF80180012111700749FF
:104E500081F800800020AAE7AC000020800000203C
:104E6000AE000020B200002099000020290100209F
:104E70002DE9F0478246344886B00078A8B9A2B13F
:104E800011F001073149324BDFF8C890324E334DF3
:104E90004FF001000DD06C785CB12C784CB13070C3
:104EA0000A80188089F800404CE0012006B0BDE877
:104EB000F087804630700A80188000242C706C7057
:104EC0008DF8044001A95046FCF74CFB00B1D7B95E
:104ED0008DF81040ADF814408DF8084001AB02AADF
:104EE00005A904A8FCF76EFA18B1812801D0347026
:104EF000DCE79DF8080028B901AA42F2107150467B
:104F0000FCF758FB88B1287089F8000040F6B831EA
:104F100001A8FCF709FB12A002220068039003A974
:104F2000287800F06FFB48B902E034708120BDE7BB
:104F300041F28831A020FCF779FB08B13470B4E766
:104F400085F801800020B1E79D000020AE00002020
:104F5000B000002098000020AC000020800000205D
:104F6000DCAA000008B580208DF800000F4800780A
:104F700080B10F48008868B1801D81B20D480123BF
:104F80006A46007800F02EFB30B10BA008F0C0FBA1
:104F9000022008BD012008BD11490120087002F05F
:104FA00041FA10A008F0B4FB002008BD9C000020CE
:104FB000F0000020980000204552523A20577269B4
:104FC00074652044454255474354524C3220656E27
:104FD00061626C65206661696C65640D0A000000A1
:104FE000BD000020494E464F3A20444542554743B4
:104FF00054524C3220656E61626C6564202842799F
:105000007465363D30783830204442474F424A4D2F
:105010004F4445454E290D0A0000000008B5802088
:105020008DF800000B48007868B10B48008850B13B
:10503000801D81B2094801236A46007800F0D2FA47
:1050400018B1022008BD012008BD054901200870E3
:10505000002008BD9C000020F000002098000020E7
:10506000BD00002001490870704700009B0000202F
:105070002DE9F04F524C89B0207818B900F0D2FADF
:10508000207860B100200290014603904D4807232C
:1050900002AA007800F078FA18B14BA026E052A0DE
:1050A00024E09DF80E805FEA08001ED0B8F1600F82
:1050B00001D94FF060085448A02101709DF80810F4
:1050C00041709DF8091081709DF80A10C1709DF81B
:1050D0000B10017180F80580062106F0D1FE072033
:1050E0004FF0000B079058465DE048A008F010FB19
:1050F00009B0BDE8F08F00BF07980AEB4A0100EB4A
:105100004101304806236A46007800F03DFA08B1B4
:10511000012027E09DF800000690BDF801000590F1
:105120009DF804009DF80370401CC0B200267F1C4F
:10513000049032E00598002406FB07001FFA80F96E
:1051400027E0381BC5B2382D00D9382509EB0400FB
:1051500081B21C482C4A2B460832007800F014FA21
:1051600010B10220834621E02748A1210170069951
:105170004170867080F803904FEA192101714471E3
:10518000210A8171C57105F1080106F079FE6019E7
:1051900084B2BC42D5D3761CF6B204988642C9D3F9
:1051A0000AF10100C0B282464045A5D31648A221AB
:1051B000017080F801B0022106F062FE98E700005D
:1051C0009C000020980000204552523A2052656110
:1051D0006420496E666F20426C6F636B2066616964
:1051E0006C65640D0A0000004552523A20546F75F8
:1051F0006368206E6F7420696E697469616C697A86
:1052000065640D0A00000000FA2F00204552523A52
:10521000204F626A65637420636F756E74206973D2
:1052200020300D0A000000002DE9F0413A4C8CB00E
:10523000207818B900F0F6F9207860B10020374FD7
:10524000059001460690072305AA387800F09CF9DE
:1052500018B133A05BE03AA059E09DF81A50F5B1BF
:10526000602D00D960253EA008F052FA9DF8170085
:105270009DF816109DF8152000920395CDE90110B8
:105280004FF400789DF814303EA241464A48FAF7A0
:10529000D1FF494808F03CFA0726002434E047A033
:1052A00035E000BF04EB440006EB4001062308AAEA
:1052B000387800F069F948B1234647A241463E4894
:1052C000FAF7B8FF3C4808F023FA1FE09DF82420C5
:1052D000BDF821109DF82300521C0DF1040E009121
:1052E0009DF82030D2B29DF825C0401C8EE80510F4
:1052F00044A241463048FAF79DFF2F4808F008FACB
:1053000000F0D6F8641CE4B2AC42CBD348A008F05D
:10531000FFF90CB0BDE8F0819C000020980000204F
:105320004552523A205265616420496E666F2042B0
:105330006C6F636B206661696C65640D0A00000028
:105340004552523A20546F756368206E6F7420691D
:105350006E697469616C697A65640D0A0000000009
:105360003D3D3D204558504F525454585420434FD2
:105370004D50414354205354415254203D3D3D0D26
:105380000A00000049442066616D696C793D25750D
:105390002076617269616E743D2575207665723D77
:1053A0002575206275696C643D2575206F626A738E
:1053B0003D25750D0A000000FA2F00204552523A93
:1053C000204F626A65637420636F756E7420697321
:1053D00020300D0A000000004552523A205265610B
:1053E00064206F626A656374207461626C65206911
:1053F0006E6465783D2575206661696C65640D0A8B
:105400000000000054257520616464723D307825E9
:105410003034582073697A653D257520696E737440
:105420003D2575207269643D25750D0A0000000058
:105430003D3D3D204558504F525454585420434F01
:105440004D5041435420454E44203D3D3D0D0A0002
:1054500010B54B2000F08AF8144CA8B14A2000F097
:1054600085F8A0B1272000F081F898B1252000F040
:105470007DF890B1242000F079F888B1262000F062
:1054800075F880B1812010BD4B20207010BD4A20DE
:10549000207010BD2720207010BD2520207010BD69
:1054A0002420207010BD2620207010BD9800002000
:1054B00010B50024FFF770F9002802D0641CFF2CFF
:1054C000F8DD10BD2DE9F0470024224E224FDFF811
:1054D0008C80DFF88C90DFF88CA00546252811D051
:1054E00004DC052D07D0062D12D106E02C2D06D0A8
:1054F000642D0DD109E0348809E03C8807E0B8F854
:10550000004004E0B9F8004001E0BAF80040ECB90E
:1055100015480078D0B100F0BFFF252D11D004DC74
:10552000052D07D0062D11D106E02C2D06D0642DB7
:105530000CD109E0348809E03C8807E0B8F8004065
:1055400004E0B9F8004001E0BAF800402046BDE8A8
:10555000F0870000F4000020F0000020F20000209E
:10556000F6000020F80000209A00002010B541004D
:105570000A2303220348FCF7A1FC002800D00120E5
:1055800010BD0000640200203EB50A248DE81C0016
:105590004ABA410010230348FCF704FF002800D05A
:1055A00001203EBD6402002008B50A230093134683
:1055B00040000A4601460348FCF736FD002800D0AB
:1055C000012008BD6402002010B50548FCF798FBD7
:1055D0000520FCF7F7F9BDE810400148FCF7AABB2D
:1055E000640200203EB50A248DE81C004ABA41003E
:1055F00010230348FDF704F8002800D001203EBD29
:105600006402002008B50A230093134640000A46AE
:1056100001460348FCF730FE002800D0012008BDF9
:105620006402002010B500F0F3FE002809D100F05C
:1056300033FF002805D103490120087002490020EA
:10564000087010BD9C000020BD00002001480078BB
:10565000704700009B0000202DE9F047DFF85081E3
:10566000D8F8000000287DD0524F3878002879D033
:10567000514C2078002875D05048DFF844910078CC
:10568000F72809D0F82807D0F52805D04DA008F054
:105690003FF80026A2467FE000244FA008F038F82B
:1056A000002547464E463868C4F500714BA230F9D4
:1056B00015303019FAF7BEFD0444132D06D2C4F597
:1056C0000071301946A2FAF7B5FD04446D1CEDB225
:1056D000142DE8D3C4F50071301942A2FAF7AAFDDF
:1056E000374808F015F840A008F012F800242546C5
:1056F0003868C4F5007100EB450038A2B0F92830D5
:105700003019FAF797FD04441F2D06D2C4F5007135
:10571000301933A2FAF78EFD04446D1CEDB2202D32
:10572000E6D3C4F50071301930A2FAF783FD24489E
:1057300037E00024254620E09AF80000D8F8001051
:1057400005FB006080B22BA231F91030C4F5007166
:1057500009EB0400FAF76EFD04443878401E8542D8
:1057600009DA00E021E0C4F5007109EB04001CA295
:10577000FAF760FD04446D1CEDB238788542DBD346
:10578000C4F5007109EB040016A2FAF753FD0C48AA
:1057900007F0BEFF761CF6B29AF800108E42C8D30E
:1057A00010A0BDE8F04707F0B3BFBDE8F0870000E8
:1057B000040100206E0000206F0000200001002086
:1057C000FA2F00203D3D3D205241572033327832A0
:1057D00030203D3D3D0D0A00593A0000256400008F
:1057E0002C0000000D0A0000583A00000D0A0D0AB6
:1057F00000000000253664002DE9F05FDFF8ACA062
:10580000DAF8000000284ED029480678002E4AD049
:1058100028490878002846D0102E00D310268B4641
:10582000102800D31020804623A0FFF70DF8002792
:10583000DFF8A8902EE0002425461DE09BF800002C
:10584000DAF8001005FB007080B225A231F91030A3
:10585000C4F5007109EB0400FAF7ECFC0444701E77
:10586000854207DAC4F5007109EB04001DA2FAF7BE
:10587000E1FC04446D1CEDB2B542DFD3C4F5007108
:1058800009EB040018A2FAF7D5FC1448FEF7DCFF78
:105890007F1CFFB24745CED314A0FEF7D5FFBDE86D
:1058A000F05FFFF705BEBDE8F09F00000401002097
:1058B0006E0000206F0000203D3D3D204D415031E5
:1058C00036202831367831362C20696E6465782090
:1058D000302D313529203D3D3D0D0A00FA2F0020A5
:1058E000253664002C0000000D0A00003D3D3D20DF
:1058F0004652414D455F454E44203D3D3D0D0A0D0C
:105900000A0000002DE9FC5F4C4C80460F462068E1
:1059100000287DD04A480078102879D3494E307845
:10592000102875D3B8F1010F07D0B8F1020F06D0D7
:1059300045A3F80705D045A104E045A3F9E745A331
:10594000F7E741A1B80701D543A000E03EA01A78CF
:105950004FF400751AB90A780AB902783AB1CDE95C
:1059600000103EA229464748FAF764FC04E046A22C
:1059700029464448FAF75EFC4248FEF765FF4BA013
:10598000FEF762FFDFF8FC900025A246B346002632
:10599000344621462846FA0702D0C4F10F01C9B2A5
:1059A000BA0702D5C5F10F00C0B20A46B8F1010F1F
:1059B00003D0B8F1020F05D008E00246C1F10F0094
:1059C000C0B203E0C0F10F00C2B208469BF800105D
:1059D00002FB0100DAF8001080B235A231F9103074
:1059E000C6F5007109EB0600FAF724FC06440F2CFB
:1059F00007D2C6F5007109EB06002EA2FAF71AFCD1
:105A00000644641CE4B2102CC3D3C6F5007100E058
:105A100012E009EB060025A2FAF70CFC1948FEF784
:105A200013FF6D1CEDB2102DB1D323A0FEF70CFFB8
:105A3000BDE8FC5FFFF73CBDBDE8FC9F0401002012
:105A40006E0000206F0000200000000058000000E1
:105A5000523930004C393000590000003D3D3D20A6
:105A60004D415031362573257325732028726F748C
:105A7000617465207468656E20666C697029203DCC
:105A80003D3D0000FA2F00203D3D3D204D4150316D
:105A9000362028726F74617465207468656E2066A4
:105AA0006C697029203D3D3D000000000D0A00009A
:105AB000253664002C0000003D3D3D204652414DFE
:105AC000455F454E44203D3D3D0D0A0D0A00000056
:105AD0002DE9F047DFF8A890D9F8000000284CD055
