:020000040800F2
:1000000028490020F5010008E36000084736000891
:10001000E1600008EF0D00080FAF000800000000CD
:100020000000000000000000000000003D970008F4
:1000300013130008000000008B6400088D9700086F
:100040000F0200080F0200080F0200080F0200084C
:100050000F0200080F0200080F0200080F0200083C
:100060000F020008151300080F0200080F02000815
:100070000F0200080F0200080F0200080F0200081C
:100080000F0200080F0200080F02000865AE00080A
:1000900071AE00080F0200080F0200080F020008EE
:1000A0000F0200080F0200080F0200080F020008EC
:1000B0000F0200080F0200080F0200080F020008DC
:1000C0000F0200080F0200080F0200082990000824
:1000D0000F0200080F0200080F0200080F020008BC
:1000E0000F0200080F0200080F02000800F002F8DB
:1000F00000F071F80AA090E8000C82448344AAF151
:100100000107DA4501D100F066F8AFF2090EBAE84E
:100110000F0013F0010F18BFFB1A43F0010318473B
:1001200064B1000084B100000A444FF0000C10F8E4
:10013000013B13F0070408BF10F8014B1D1108BF65
:1001400010F8015B641E05D010F8016B641E01F805
:10015000016BF9D113F0080F1EBF10F8014BAD1C55
:100160000C1B09D16D1E58BF01F801CBFAD505E073
:1001700014F8016B01F8016B6D1EF9D59142D6D3CD
:10018000704700000023002400250026103A28BFF5
:1001900078C1FBD8520728BF30C148BF0B607047F9
:1001A000642900F0B380752900F0B080782900F050
:1001B0001481732900F08B84002070471FB500F074
:1001C000F3FD0400002000210AF000FF401C6060E5
:1001D0001FBD10B510BD00F0C2FD1146FFF7EEFFC8
:1001E0000AF0AEFE00F0F2FD03B4FFF7F2FF03BC2D
:1001F00000F0F6FD0948804709480047FEE7FEE7A2
:10020000FEE7FEE7FEE7FEE7FEE7FEE7FEE7FEE7C6
:1002100004480549054A064B704700000798000846
:10022000ED00000828430020284900202845002030
:10023000284500200FB47CB50C0009AA009001D01D
:100240002044401E084B7B4469460190089800F00A
:100250000CFC05461CB10020694600F019FC28463C
:100260007CBC5DF814FB00005108000070B504462A
:1002700085690068C10601D5302600E02026C00748
:1002800007D070BDD4E9012130469047206A401C58
:1002900020626D1EF6D570BD70B504468569007884
:1002A000C00707D170BDD4E9012120209047206A02
:1002B000401C20626D1EF6D570BD70B50C4605461B
:1002C000012A05D02878800600D5EA69002302E0DB
:1002D000012305E05B1C934202D2E05C0028F9D1C7
:1002E000A869E618C01AA861286A18442862284636
:1002F000FFF7BCFF04E0D5E9012114F8010B90479A
:10030000B442F8D32846FFF7C7FF70BD2DE9F0418E
:100310000646002410687529314616A510D0AFF3A3
:100320000080002802DA404213A507E031688A07FE
:1003300001D512A502E0490704D511A5012401E069
:10034000AFF3008000210A2206F1240709E0B0FB88
:10035000F2FCB0FBF2F302FB1C003030785418467C
:10036000491C0028F3D123462A463046BDE8F04117
:1003700000F01DBB000000002D0000002B0000005D
:1003800020000000F0B40D460188090502D5214C7B
:100390007C4402E01F4C7C440E34002100F1240612
:1003A00008E002F00F071209E75D42EA03721B0939
:1003B0007754491C52EA0307F3D10278002312074D
:1003C00004D5702D06D009B1022311342246F0BCA9
:1003D00000F0EDBA01231034F8E770B504460D467D
:1003E00021461068AFF30080024629462046BDE84A
:1003F00070400023C6E7D21D22F00703D3E9002393
:10040000C0E70368126843F0200303600823C36158
:100410000023B7E792AC00002DE9F05F894604465F
:100420004FF0000ADFF874B1FB44C0F820A020466A
:10043000E1688847002874D0252806D0D4E9012136
:100440009047206A401C2062F1E700265F46204664
:10045000E16888472028054607DB312D05D2781949
:1004600010F8200C08B10643F1E7B00701D526F0DB
:100470000406C4F81CA00027C4F818A02A2D09D02F
:1004800028460AF055FD38B304EB8708303DC8F81C
:10049000185019E059F8041B204604EB87029161BB
:1004A000E1688847012F054618D1E069002820DA65
:1004B00026F020061DE0D8F8180000EB800005EBC0
:1004C00040003038C8F818002046E16888470546E3
:1004D0000AF02EFD0028EED1012F0AD02E2D08D1D2
:1004E0002046E16888477F1C0546022F46F020061B
:1004F000C4DBA069002803DA404246F00106A0618F
:10050000F00701D026F010066C2D0BD0682D09D015
:100510004C2D39D06A2D35D0742D35D07A2D33D06D
:1005200016E038E0E1682F4620468847B842054685
:1005300009D16C2F26D04FF48060E1680643204635
:100540008847054604E06C2F1AD04FF480700643AC
:100550000DB3A5F14100192802D8203546F40066F4
:100560004A462946204626604E46FFF719FE80B1CE
:1005700001280BD0F61D26F0070000F1080956E708
:100580004020E4E78020D8E70020D6E706F1040900
:100590004DE7284652E7206ABDE8F09F22AC0000F4
:1005A00070B5064600F0F2F90468054630460A22A6
:1005B000002100F090FA2C6070BD0000014A00F0AC
:1005C000C3BA000018020020401ECAB210F8011F72
:1005D0008A4202D00029F9D1002070472DE9F0416C
:1005E000054690460E460020044600E0641C444543
:1005F0000BD2285D00F0CEF90746305D00F0CAF955
:10060000381A02D1295D0029F0D1BDE8F0812DE929
:10061000F0410E460546002400E0641C285D00F011
:10062000B9F90746305D00F0B5F9381A02D1295DF5
:100630000029F2D1BDE8F08110B5431C02E010F8AA
:10064000011B71B18107FAD14FF0013202C88C1A37
:100650008C4314EAC211F9D0C01A0A0603D0C01E96
:1006600010BDC01A10BD0A0401D0801E10BD0902C1
:10067000FCD0401E10BD40EA010370B59B072ED18F
:100680004FF00136042A2AD308C810C99D1B9D4388
:10069000121F15EAC61517D0D8B2E1B2401A50EAB7
:1006A000056110D198B2A1B2401A50EA05410AD1B1
:1006B00023F07F4024F07F41401A50EA052102D107
:1006C000180EA0EB146070BDA342DBD018BA21BA9B
:1006D000884201D9012070BD4FF0FF3070BD0AB9CA
:1006E000002070BD10F8013B11F8014B63B1A3422B
:1006F0000AD1521E08D010F8013B11F8014B1BB172
:10070000A34201D1521EEDD1181B70BD032A40F245
:10071000308010F0030C00F0158011F8013BBCF1A3
:10072000020F624498BF11F801CB00F8013B38BFBB
:1007300011F8013BA2F1040298BF00F801CB38BFC9
:1007400000F8013B11F0030300F02082083AC0F0EA
:10075000088051F8043B083A51F804CBA0E808108F
:10076000F5E7121D5CBF51F8043B40F8043BAFF3C2
:100770000080D20724BF11F8013B11F801CB48BF1C
:1007800011F8012B24BF00F8013B00F801CB48BF52
:1007900000F8012B7047431A28BF9A427FF6B6AF84
:1007A000032A1044114440F2268010F0030F1EBFAC
:1007B00011F8013D521E00F8013D10F0030F7FF4C7
:1007C000F6AF11F0030300F02682083AC0F00B8068
:1007D00051F8043D083A51F804CD40F8043D40F882
:1007E00004CDFFF7F3BF121D5CBF51F8043D40F884
:1007F000043DAFF30080D20724BF11F8013D11F88A
:1008000001CD48BF11F8012C24BF00F8013D00F8CC
:1008100001CD48BF00F8012C70474FF000020429B9
:10082000C0F0128010F0030C00F01B80CCF1040C1F
:10083000BCF1020F18BF00F8012BA8BF20F8022B53
:10084000A1EB0C0100F00DB85FEAC17C24BF00F8F9
:10085000012B00F8012B48BF00F8012B70474FF027
:10086000000200B5134694469646203922BFA0E800
:100870000C50A0E80C50B1F12001BFF4F7AF09070C
:1008800028BFA0E80C5048BF0CC05DF804EB8900FD
:1008900028BF40F8042B08BF704748BF20F8022B40
:1008A00011F0804F18BF00F8012B704710B50446B7
:1008B00010F0030F08BF11F0030F40F015804FF048
:1008C000013E121FC0F20E8051F8043BA3EB0E0C48
:1008D0002CEA030C1CEACE1C08BF40F8043BF0D005
:1008E000A1F1040102F10402521E08DB11F8013BE0
:1008F000002B00F8013BF7D11146FFF78EFF204691
:1009000010BD00004FF0013C50F8042B51F8043B9F
:100910009A4221D1A2EB0C03934313EACC1317D1D3
:1009200050F8042B51F8043B9A4215D1A2EB0C036A
:10093000934313EACC130BD150F8042B51F8043B2A
:100940009A4209D1A2EB0C03934313EACC13DBD0F8
:100950004FF00000704700BFD01A01BAB1FA81F120
:1009600001F0180122FA01F0CB40C1F12001DBB205
:10097000C0B2C01A2CFA01F3D11A914311EAC31183
:10098000E6D17047704770477047000000487047D5
:10099000C442002010B5044600F06CF90068005D08
:1009A000C00602D504F1200010BD204610BD2DE97F
:1009B000F0470D4699469246044600F12408016826
:1009C000880604D5E06921F01001216000E00120D3
:1009D000A84201DD471B00E00027A1697A1902EB5C
:1009E0000900081AA0612078C00602D42046FFF74B
:1009F0003DFC002608E0D4E901211AF806009047E2
:100A0000206A401C761C20624E45F4DB2078C0062C
:100A10000AD52046FFF72AFC06E0D4E90121302060
:100A20009047206A401C2062381EA7F10107F4DCC1
:100A300007E0D4E9012118F805009047206A401C1E
:100A40002062281EA5F10105F3DC2046FFF724FCF7
:100A50002078000602D50220BDE8F0870120FBE7E0
:100A600001694A1C02610878704700B58FB0CDE972
:100A700001310021059105497944CDE90310114662
:100A80006846FFF7C9FC0FB000BD0000E5FFFFFF9F
:100A90000A6802F8010B0A607047D1E900239A4204
:100AA00002D2531C0B601070704710B5436913B12C
:100AB000AFF3008001E0FFF700FC012010BD1278C9
:100AC00000F124010A7000224A700122EDE711684A
:100AD0004FF0FF32E9E72DE9F04791460F46804697
:100AE0000446002614F8015B2DB100F0C3F800683D
:100AF000405DC007F6D12B2D02D02D2D18D0641EDD
:100B00004A463946204600F0BDF827B13968A1426F
:100B100001D1C7F800804FF0020471050BD54042A7
:100B2000002803DDFFF732FF0460A007BDE8F0876F
:100B300046F48066E4E70028F8DAFFF727FF046050
:100B40006FF00040F2E700002DE9F04115460E4637
:100B5000040002D12C6804B90BA4204600F0F1F87F
:100B60000444207870B127463146384600F0D9F861
:100B70000444207810B1002004F8010B38462C60A2
:100B8000BDE8F0810027F9E70000000010B5203A29
:100B9000C0F00B80B1E81850203AA0E81850B1E836
:100BA0001850A0E81850BFF4F5AF5FEA027C24BFEC
:100BB000B1E81850A0E8185044BF18C918C0BDE8E3
:100BC00010405FEA827C24BF51F8043B40F8043BAC
:100BD00008BF7047D20728BF31F8023B48BF11F861
:100BE000012B28BF20F8023B48BF00F8012B7047BB
:100BF000431A28BF9A427FF6C9AF104410F0030F82
:100C000011441EBF11F8013D521E00F8013D10F0C5
:100C1000030F7FF4F6AF103AC0F00A8010B531E947
:100C20001850103A20E91850BFF4F9AFBDE8104051
:100C3000530724BF31E9081020E9081044BF51F8D8
:100C4000043D40F8043D12F0030F08BF7047D2077F
:100C500028BF31F8023D48BF11F8012C28BF20F809
:100C6000023D48BF00F8012C704700000048704763
:100C7000C442002010B500F097F8001D10BD00BF61
:100C80004DA300002DE9F05F824615468B460027F4
:100C90000AF10104B9460078302801D09DB113E073
:100CA00014F8010B0127782803D0582801D045B14A
:100CB0000AE00DB1102D07D1002714F8010B102503
:100CC00002E0082500E00A250026B0460EE005FBFC
:100CD000080005FB06F101271FFA80F801EB10461A
:100CE000B6F5803F00D3B94614F8010B294600F051
:100CF0005FF80028EBDABBF1000F05D00FB1641EDE
:100D000000E05446CBF80040B9F1000F06D0FFF7E1
:100D10003DFE02210160C81EBDE8F09F48EA064082
:100D2000FAE730B503461D781DB10A4603E0AC4230
:100D300001D1181A30BD12F8014B002CF7D15B1C01
:100D4000F1E730B503461D783DB10A4612F8014B74
:100D50001CB1AC42FAD15B1CF5E7181A30BD7546E0
:100D6000FFF784FFAE4605006946534620F00700B2
:100D7000854618B020B5FFF74BFABDE820404FF08C
:100D800000064FF000074FF000084FF0000B21F075
:100D90000701AC46ACE8C009ACE8C009ACE8C00942
:100DA000ACE8C0098D46704700487047E442002017
:100DB0003A2800D2303820F02002412A01D3A2F193
:100DC0003700884201D34FF0FF30704710B504461A
:100DD000AFF300802046BDE81040FFF705BA0000E1
:100DE00001491820ABBEFEE7260002007047FEE76F
:100DF000002070470020704738B500222F49304846
:100E000008F0F4FD2F492E4808F0EAFD2EA002F06C
:100E100079FF38A002F076FF3FA002F073FF49A0EF
:100E200002F070FF03F01AFB03464FF400748128B0
:100E30000DD04BA221465448FFF7FCF9524802F06E
:100E400061FF52A002F05EFF03F004FC05E056A033
:100E500002F058FF5DA002F055FF6748037853B1D8
:100E6000407840B1009065A221464748FFF7E2F97B
:100E7000454802F047FF68A002F044FF6CA002F072
:100E800041FF75A002F03EFF7FA002F03BFF8DA066
:100E900002F038FF99A002F035FFA6A002F032FF61
:100EA000B2A002F02FFFBAA002F02CFFC7A002F000
:100EB00029FFCFA002F026FF002038BD8C080020BB
:100EC000C80200208C0700200D0A3D3D3D3D3D3D00
:100ED0003D3D3D3D3D3D3D3D3D3D3D3D3D3D3D3D42
:100EE0003D3D3D3D3D3D3D3D3D3D3D3D3D3D3D3D32
:100EF0000D0A0000202020206D6158546F75636832
:100F0000363430205553422043444320496E7465A3
:100F100072666163650D0A003D3D3D3D3D3D3D3DD1
:100F20003D3D3D3D3D3D3D3D3D3D3D3D3D3D3D3DF1
:100F30003D3D3D3D3D3D3D3D3D3D3D3D3D3D0D0A44
:100F4000000000005363616E6E696E672049324392
:100F500020616464726573732E2E2E0D0A000000EA
:100F6000466F756E642064657669636520617420E0
:100F700049324320616464726573733A2030782586
:100F80003032580D0A000000CA3B002052656164EF
:100F9000696E672064657669636520696E666F2E89
:100FA0002E2E0D0A000000004552524F523A204E9C
:100FB0006F206D6158546F7563682064657669634E
:100FC0006520666F756E64210D0A0000506C6561C6
:100FD000736520636865636B2049324320636F6EDD
:100FE0006E656374696F6E7320616E6420706F77D5
:100FF00065722E0D0A0000004E0000204D617472D3
:1010000069782053697A653A20583D25642C205927
:101010003D25640D0A0000000D0A417661696C618E
:10102000626C6520636F6D6D616E64733A0D0A00CA
:10103000202048454C502020202D2053686F7720D9
:10104000617661696C61626C6520636F6D6D616E64
:1010500064730D0A000000002020494E464F2020F6
:10106000202D205265616420496E666F20426C6FAE
:10107000636B20283078303030302C203720627974
:10108000746573290D0A000020204F424A54424CD7
:10109000202D2052656164206F626A65637420743C
:1010A00061626C6520283078303030372C206669DA
:1010B000727374203130206F626A65637473290D16
:1010C0000A00000020204D5347434E54202D20524B
:1010D000656164206D65737361676520636F756E0C
:1010E0007420285434342066726F6D206F626A65F4
:1010F0006374207461626C65290D0A0020204D53D1
:1011000047202020202D2052656164206F6E6520CD
:101110006D657373616765202854352066726F6D45
:10112000206F626A656374207461626C65290D0AC0
:10113000000000002020535441525420202D205301
:101140007461727420646961676E6F73746963207F
:101150006F75747075742028313030306D7320696C
:101160006E74657276616C290D0A0000202053545C
:101170004F502020202D2053746F702064696167C8
:101180006E6F73746963206F75747075740D0A00E7
:1011900020204652414D4520202D2052656164207B
:1011A0006F6E6520646961676E6F73746963206632
:1011B00072616D6520284D757475616C205265668D
:1011C0006572656E6365290D0A0000002020752098
:1011D00020202020202D20456E74657220646961D6
:1011E000676E6F73746963206D656E750D0A00001C
:1011F0002D2D2D2D2D2D2D2D2D2D2D2D2D2D2D2D1F
:101200002D2D2D2D2D2D2D2D2D2D2D2D2D2D2D2D0E
:101210002D2D2D2D2D0D0A0070B50C4605000CD07E
:10122000216851B103F010FD00282168284602D042
:1012300005F02CF901E007F087FE2946034808F085
:10124000CFFB024808F0B0FB002070BDC8020020B0
:10125000094A10B5D2F8B822D2F814220AB10120F6
:1012600010BD0A460146044808F0C0FBBDE8104026
:10127000014808F019BC0000C802002010B560B198
:1012800002290AD34218891E32F8024C89B204F0AE
:1012900009FF844201D1012010BD002010BD1CB502
:1012A0008DF800008DF80110080A8DF802008DF805
:1012B00003200421684604F0F5FE8DF80400000ABE
:1012C0008DF805000621684608F03AFA1CBD0000BA
:1012D00070B502004FF6FF75284641F2210400D098
:1012E00099B9002070BD00BF12F8013B80EA0320CD
:1012F0000023060403D584EA400080B201E005EA39
:1013000040005B1CDBB2082BF3D3491E89B2EBD241
:1013100070BD704710B50B4C206800070FD5082131
:10132000094800F089F958B15FF000024FF400510C
:10133000064800F086F904F0B5FC0820206010BDD6
:101340000122F3E7140401400008014000100140AD
:1013500072B6FEE710B590F821100022022905D0E0
:101360000421816380F82020012010BD01680B68F2
:1013700023F00E030B6001680B6823F001030B6080
:1013800090F84030C46B012101FA03F3636080F8E8
:10139000211080F82020104610BD000010B590F8F4
:1013A00021100024022903D00421816301243DE09F
:1013B00001680A6822F00E020A6001680A6822F0D9
:1013C00001020A601A4A0168914201D1012121E01B
:1013D000174A1432914201D110211BE0144A2832DD
:1013E000914201D1891515E0114A3C32914201D157
:1013F00089140FE00E4A5032914202D14FF48031ED
:1014000008E00B4A6432914202D14FF4801101E0AE
:101410004FF08071064A083A5160012180F821108E
:10142000002180F82010416B01B18847204610BD93
:101430000800024070B5044600F008F90546601C3B
:1014400002D004480078044400F000F9401BA04298
:10145000FAD370BDF40000202DE9F84FDFF8B89101
:101460000024A9F1040B23460F2709F1040AABF16C
:10147000040EC9E00125A5402A40AA427DD1674E4D
:10148000D1F804C0ACEB0608B44532D014DCBCF192
:10149000030F3AD009DCBCF1000F2AD0BCF1010FD8
:1014A0001CD0BCF1020F31D11DE0BCF1110F17D0DF
:1014B000BCF1120F2AD119E0B8F5881F19D006DC4B
:1014C000B8F5803F15D0B8F5801F1FD111E0B8F5F1
:1014D000001F0ED0B8F5041F18D10AE0CB6815E044
:1014E000CB681B1D12E0CB6808330FE0CB680C33D0
:1014F0000CE08B682BB1012B4FF0080303D0456142
:1015000004E0042302E0056100E00023FF2A01D883
:10151000064601E000F104064FEA840501D9A5F171
:101520002005D6F8008007FA05FC28EA0C0803FA23
:1015300005F548EA0508C6F800804D68ED0062D55B
:10154000374DAE6946F00106AE61AD6924F0030681
:1015500005F001050095334D06EB050CDCF808504D
:10156000A607360F07FA06F825EA0805DFF8B8805F
:10157000404503D14FF0000817E044E0DFF8AC80AD
:10158000404502D14FF001080FE0DFF8A48040454C
:1015900002D14FF0020808E0DFF89880404502D100
:1015A0004FF0030801E04FF0040808FA06F848EA93
:1015B0000508CCF808804D68D9F80060ED024D466A
:1015C00001D5164300E096432E604D68DAF80060BE
:1015D000AD02554601D5164300E096432E604D6896
:1015E000DBF80060AD035D4601D5164300E096438D
:1015F0002E604D68DEF80060ED03754601D5164398
:1016000000E096432E60641C0D682A46E5407FF496
:1016100031AFBDE8F88F0000080401400000111050
:10162000001002400000014000080140000C014091
:1016300000100140001401408068084000D00120E3
:1016400070470AB1016170470904FBE701488068EF
:1016500070470000F400002070B5040025D094F815
:101660003D00002520B984F83C50204600F0F2FCF3
:10167000242084F83D002068016821F00101016008
:101680002068016841F4004101602068016821F48C
:101690000041016001F056FB4D4A6168914201D85A
:1016A0004C4900E04C49884201D2012070BD4B49B1
:1016B0002368B0FBF1F15E6826F03F060E435E60E2
:1016C0006368934206D94FF4967359434FF47A7383
:1016D000B1FBF3F12368491C1E6A26F03F06314333
:1016E00019626168914210D84900401EB0FBF1F2C6
:1016F000521CC2F30B02042A01D2042022E0B0FBE8
:10170000F1F0401CC0F30B001CE0A268F2B301EB47
:10171000C10303EB0116431EB3FBF6F35B1C43F45A
:1017200080431B0549D092B301EBC10202EB0111CA
:10173000401EB0FBF1F0401CC0F30B0040F48040B1
:1017400040F400402168CA694CF6FF739A43104385
:10175000C861D4E9071001432068026822F0C00282
:1017600011430160D4E9030101432068826848F213
:10177000FF339A4311438160D4E90501084321688E
:10178000CA6822F0FF021043C86001E00EE016E0D4
:101790002068016841F0010101602564202084F87F
:1017A0003D00256384F83E50002070BD01EB4106EA
:1017B000431EB3FBF6F35B1CB3E70120C2E701EB6A
:1017C0004101401EB0FBF1F0401CC0F30B00B7E735
:1017D000A086010080841E0000093D0040420F00E9
:1017E0002DE9FF4F81B089460446FFF72FFF0546DC
:1017F00094F83D004FF0000820287DD119230122E4
:1018000050492046009502F0F9F8002874D194F868
:101810003C00012870D0012084F83C002068016859
:10182000C90703D1016841F0010101602068016826
:1018300021F400610160242084F83D000026266424
:101840004148E0624FF0011B20272068016841F405
:10185000807101600095002259462046049B02F0E9
:10186000CDF850B120680068C00502D54FF4007073
:101870002064032005B0BDE8F08F216809F0FE0068
:101880000861FFF7E3FE2168054648694969C0F32E
:101890004000C1F380214FF0A00A0FE0FFF7D6FE11
:1018A000411B0498814200D808B984F83DA0216802
:1018B00048694969C0F34000C1F3802194F83D2094
:1018C000A02A02D008B90029E8D084F83D70206829
:1018D0004169C943890716D4016841F40071016068
:1018E0002068416980691923012216492046009524
:1018F00002F084F8B8B900E021E084F83D7084F883
:101900003C600020B6E7016841F400710160216885
:101910006FF480604861192301220A49204600952E
:1019200002F06CF808B10120A4E7039808F101085F
:1019300080458AD384F83D7084F83C60F3E7022048
:1019400098E70000020010000000FFFF2DE9F84FAB
:101950000025DDF82890984617468A4604460095EB
:10196000FFF774FE064694F83D0020287AD119232B
:10197000012286492046009602F040F80028F5D161
:1019800094F83C0001286DD0012084F83C002068C8
:101990000168C90703D1016841F0010101602068B5
:1019A000016821F400610160222084F83D001020CC
:1019B00084F83E0025646762A4F82A80608D208543
:1019C0007348E06233464A465146204601F054FED1
:1019D00000287CD1208DDFF8BC81202768B1012848
:1019E00014D00228206801681ED041F48061016093
:1019F0002068416980690090BBE020684169816985
:101A00000091016841F400710160B2E02068016852
:101A100021F48061016072B620684169816900919A
:101A2000016841F400710AE041F40061016072B69E
:101A30002068416981690091016821F48061016039
:101A400062B696E0032865D801280CD002284B46E0
:101A50004FF000024146204600960BD001F0CEFF29
:101A6000A8BB0CE090E032464946204602F06CF8F4
:101A700068BB71E001F0C2FF48BB72B633E020687A
:101A8000016821F48061016072B620680069616AB2
:101A90000870606A401C6062208D401E2085608D49
:101AA000401E60853C4846F2A8110068B0FBF1F08A
:101AB000C0EBC00000EB80000090401E009007D0FB
:101AC00020684069C04340070DD50098F5E727E03E
:101AD00044F8305F6773A573206940F020002061EF
:101AE00062B625731CE02068016841F40071016052
:101AF00020680069616A0870606A401C6062218D1C
:101B0000491E2185618D491E618562B6216809697A
:101B1000017025E032464946204602F015F810B122
:101B20000120BDE8F88F20680069616A0870606A6A
:101B3000401C6062208D401E81B22185608D401E58
:101B4000608520684269D243520712D4032903D129
:101B5000016821F48061016020680069616A087091
:101B6000606A401C6062208D401E2085608D401E92
:101B70006085208D00287FF465AF84F83D7084F87F
:101B80003E5084F83C50CCE70220CAE70200100027
:101B90000000FFFF04000100000100202DE9F84FC4
:101BA0001F4690468A460446DDF82890FFF74EFD12
:101BB000054694F83D0020287FD119230122404991
:101BC0002046009501F01AFF002876D194F83C00D9
:101BD000012872D0012084F83C0020680168C90700
:101BE00003D1016841F0010101602068016821F41E
:101BF00000610160212084F83D00102084F83E003F
:101C000000262664C4F824806785608D20852D48D1
:101C1000E0622B464A465146204601F0A3FD90B9AA
:101C2000206841698069009036E02A46494620468E
:101C300001F0C2FF50B1206C042804D12068016873
:101C400041F4007101600120BDE8F88F606A2168ED
:101C500000780861606A401C6062618D491E618580
:101C6000218D491E89B2218522685369DB435B07B8
:101C70000BD451B100781061606A401C6062608DC5
:101C8000401E6085208D401E20852A4649462046FC
:101C900001F088FE0028CED1208D0028C5D154F84F
:101CA0003D0B016841F400710160202004F81E0919
:101CB000E67766770020C7E7FFE70220C4E7000069
:101CC000020010000000FFFF2DE9FF4F83B0002548
:101CD000DDE910799A4693460446DDF84880009580
:101CE000FFF7B4FC064694F83D0020287CD1192368
:101CF000012288492046009601F080FE0028F5D197
:101D000094F83C0001286FD0012084F83C00206842
:101D10000168C90703D1016841F001010160206831
:101D2000016821F400610160222084F83D00402018
:101D300084F83E0025646762A4F82A90608D2085AF
:101D40007548E062CDE9008653465A46204604991C
:101D500001F056FD00287CD1208DDFF8C0912027AE
:101D600068B1012814D00228206801681ED041F40F
:101D7000806101602068416980690090BCE0206852
:101D8000416981690091016841F400710160B3E02B
:101D90002068016821F48061016072B620684169A1
:101DA00081690091016841F400710AE041F4006129
:101DB000016072B62068416981690091016821F46F
:101DC0008061016062B697E0032865D801280CD0D5
:101DD000022843464FF000024946204600960BD0A9
:101DE00001F00CFEA8BB0CE091E0324641462046D3
:101DF00001F0AAFE68BB72E001F000FE48BB72B6BB
:101E000033E02068016821F48061016072B62068C7
:101E10000069616A0870606A401C6062208D401E23
:101E20002085608D401E60853D4846F2A8110068FF
:101E3000B0FBF1F0C0EBC00000EB80000090401E52
:101E4000009007D020684069C04340070DD5009836
:101E5000F5E727E044F8305F6773A573206940F029
:101E60002000206162B625731CE02068016841F4FF
:101E70000071016020680069616A0870606A401C36
:101E80006062218D491E2185618D491E618562B682
:101E900021680969017026E032464146204601F07A
:101EA00053FE18B1012007B0BDE8F08F206800692B
:101EB000616A0870606A401C6062208D401E81B2B9
:101EC0002185608D401E608520684269D24352079B
:101ED00012D4032903D1016821F4806101602068D4
:101EE0000069616A0870606A401C6062208D401E53
:101EF0002085608D401E6085208D00287FF464AFB2
:101F000084F83D7084F83E5084F83C50CBE70220C2
:101F1000C9E70000020010000000FFFF04000100FC
:101F2000000100202DE9FF4F83B09A46DDE91197AB
:101F300093460446DDF84080FFF788FB054694F899
:101F40003D0020287FD119230122404920460095D9
:101F500001F054FD002876D194F83C00012872D09D
:101F6000012084F83C0020680168C90703D101689A
:101F700041F0010101602068016821F40061016005
:101F8000212084F83D00402084F83E00002626648D
:101F9000C4F82480A4F82A90608D20852C48E06243
:101FA000CDE9007553465A462046049901F0A6FC37
:101FB00070B930E02A463946204601F0FDFD58B19F
:101FC000206C042804D12068016841F4007101608C
:101FD000012007B0BDE8F08F606A216800780861D1
:101FE000606A401C6062218D491E89B22185628D24
:101FF000521E628522685369DB435B070BD469B1CB
:1020000000781061606A401C6062208D401E20854F
:10201000608D401E6085208D0028CBD12A46394630
:10202000204601F0BFFC0028CAD154F83D0B0168DE
:1020300041F400710160202004F81E09E6776677FC
:102040000020C6E7FFE70220C3E7000002001000FF
:102050000000FFFF10B586B00021009101910291B0
:1020600003910068104988421BD1104CA06940F0D0
:102070000800A061A069694600F0080004904FF4D0
:102080004060009012200190032003900848FFF761
:10209000E3F9E06940F48000E061E06900F4800069
:1020A000049006B010BD000000580040001002402F
:1020B000000C014002488168027811448160704739
:1020C000F4000020074810B5016841F010010160DC
:1020D000032000F075F80F2000F006F800F024F857
:1020E000002010BD0020024070B50D4D04464FF495
:1020F0007A712878B1FBF0F00A490968B1FBF0F079
:1021000001F08DFA48B9102C07D200222146501E4A
:1021100000F036F800206C6070BD012070BD00003A
:10212000F4000020000100200C4808B5816941F04E
:1021300001018161816901F001010091C16941F0F2
:102140008051C161C06900F080500090044841682E
:1021500021F0E06141F00071416008BD00100240D3
:1021600000000140002809DB00F01F02012191401E
:102170004009800000F1E020C0F800117047000025
:10218000F0B40E4B1B680C46C3F30223C3F10705E2
:10219000042D00D90425191D072901D2002300E0D0
:1021A000DB1E012606FA05F1491E214099409E409A
:1021B000761E16403143F0BC08F0AABE0CED00E0DC
:1021C000064900F0070208684FF6FF03184040EA8E
:1021D0000220034A10430860704700000CED00E045
:1021E0000000FA0510B50C0607D501F0070101EB58
:1021F000810100EBC100103005E001EB810100EB33
:10220000C10000F5A87099B232B1012202730181B8
:10221000190C4181002010BD00220273C180F9E732
:10222000704701EB810200EBC202D0F8D402526A7F
:1022300007F0E9BD01EB810200EBC202D0F8D40245
:10224000D2F8642107F042BE70B504460B0601F0D7
:10225000070000EB800104EBC1014FF001024FF0D9
:10226000000502D54A74103103E081F8515101F59F
:10227000A871087094F89002012808D084F8902280
:10228000206808F083FA84F89052002070BD022084
:1022900070BD70B5044601F00F002279904201D95B
:1022A000012070BD0B0601F0070000EB800104EB7C
:1022B000C1014FF001024FF0000502D54A74103100
:1022C00003E081F8515101F5A8718D70087094F800
:1022D0009002012808D084F89022206808F0F3FAD0
:1022E00084F89052002070BD022070BD2DE9F05F8F
:1022F00004685FEA424C0B788D69B4F850C04FF027
:1023000000064BF68F7948F2800A48F68F7B48F238
:10231000C00E4FF480672AD54FF0020808EBC308BF
:10232000C44407EB4C07E45BC4F30904A54203D3A0
:102330002D1B8D6101D00BE08E61066836F82350AD
:1023400005EA090585F4005545EA0A0526F82350F3
:10235000520609D50D78036833F8252002EA0B02EE
:1023600042EA0E0223F8252084B30A8929E04FF0BF
:10237000060808EBC308C44407EB4C07E45BC4F34E
:102380000904A54203D32D1B8D6101D00BE08E61A2
:10239000066836F8235005EA090585F4005545EA34
:1023A0000A0526F82350520609D40B78056835F83B
:1023B000232002EA0B0242EA0E0225F823202CB168
:1023C0004A8949690068234608F05CFD2046BDE85B
:1023D000F09F2DE9F05F054600680C465FEA426C0D
:1023E00016468B692278B0F850C048F68F774CF2C9
:1023F00080094FF4004B4FF6FF7E4FF4806A4FF098
:10240000000172D54FF0020808EBC208E0440AEB65
:10241000480C30F80C00C0F30900834211D91B1A94
:10242000A3610FD0730407D52E6836F822303B40E5
:1024300043EA090326F8223094F82420012A47D0E1
:1024400052E1A161607810B1012813D01AE0286828
:10245000B0F85030184400EB0210B0F80424C2F376
:102460000902A0F80424B0F8042442F40042A0F8C1
:10247000042407E02868B0F85030184400EB02103C
:10248000A0F804146278286812B1012A11D018E06B
:10249000B0F850100844217800EB0110B0F80C148B
:1024A000C1F30901A0F80C14B0F80C1441F4004178
:1024B00005E0B0F850201044227800EB0210A0F89C
:1024C0000C1421782846FFF7ACFE700472D40BE19F
:1024D000626902446261E2690244E2612369226A3C
:1024E0009A4203D31846111A04E03EE084F82410FF
:1024F0000AB110462162617811B1012929D031E079
:102500002968B1F850201144227801EB0211B1F88A
:102510000424C2F30902A1F8042401F204413E2874
:1025200007D94209C30600D1521E0B884BEA82220A
:1025300007E048B14208C30700D0521C0B880EEADE
:10254000822213430B800DE00A8842F400420A8085
:1025500008E02968B1F850201144227801EB0211FB
:10256000A1F8040483B22289BAE04FF0060808EB10
:10257000C208E0440AEB480C30F80C00C0F3090034
:10258000834211D31B1AA3610FD0730407D42E68A2
:1025900036F822303B4043EA090326F8223094F80B
:1025A0002420012A51D09FE0A161607818B1012850
:1025B00014D01BE03FE02868B0F85030184400EB1E
:1025C0000210B0F80424C2F30902A0F80424B0F801
:1025D000042442F40042A0F8042407E02868B0F87C
:1025E0005030184400EB0210A0F8041462782868F8
:1025F00012B1012A11D018E0B0F850100844217827
:1026000000EB0110B0F80C14C1F30901A0F80C1490
:10261000B0F80C1441F4004105E0B0F8502010442B
:10262000227800EB0210A0F80C1421782846FFF75E
:10263000F8FD700458D42278296831F82200384017
:1026400040EA090021F822004EE06269024462611A
:10265000E2690244E2612369226A9A4203D318467E
:10266000111A216204E00AB11046216284F8241094
:102670006278296812B1012A28D02FE0B1F85020E1
:102680001144227801EB0211B1F80C24C2F30902C3
:10269000A1F80C2401F20C413E2807D94209C306D7
:1026A00000D1521E0B884BEA822207E048B1420853
:1026B000C30700D0521C0B880EEA822213430B8002
:1026C0000CE00A8842F400420A8007E0B1F850208A
:1026D0001144227801EB0211A1F80C04628983B243
:1026E0006169286808F000FC2278296831F8220026
:1026F00048F6BF73184080F0300048F2800318435A
:1027000021F822000020BDE8F09F01F0070101EB55
:10271000810100EBC100D0F86C0170472DE9F04158
:1027200004460F0601F0070000EB800104EBC10135
:102730004FF001064FF0000502D54E74103103E052
:1027400081F8515101F5A871022B08700A61CB7014
:1027500000D10D7194F89002012809D084F890629C
:10276000206807F0C3FE284684F89052BDE8F08147
:102770000220FBE710B501F0070404EB840100EB35
:10278000C101C1E959230022C1F86C2181F851210E
:1027900081F85041006801F5A87108F0E9F80020BF
:1027A00010BD70B504460D4601F00700217988423E
:1027B00001D9012070BD29064FF000064FF001023B
:1027C00006D500EB800104EBC1014A74103107E02B
:1027D00005EB850104EBC10181F8516101F5A87198
:1027E0008A70087094F89002012807D084F890222B
:1027F000206808F0A4F8680702D006E0022070BD47
:1028000004F52671206808F05CF884F890620020D6
:1028100070BD10B501F0070404EB840100EBC101A9
:10282000C1E90923012281F834200B630023CB6224
:102830004A7401F8104F006808F09AF8002010BDA3
:102840001FB50446006808F019FB010403D52046B3
:1028500003F048FC1FBD41050DD5206830F8441F2A
:1028600021F480610180204600F000F9002120461B
:1028700000F017F91FBD410405D5206830F8441F4A
:1028800021F4804174E0810405D5206830F8441FAC
:1028900021F400516CE0C10414D5206830F8401FC9
:1028A00021F004010180206830F8401F21F0080168
:1028B0000180204600F0EDF8206830F8441F21F434
:1028C000805155E0010540D5D4F80020002069462C
:1028D00032F8203021F81030401CC0B20828F7D35D
:1028E00032F8400F40F001001080206830F8402F8F
:1028F00022F0010202802068B0F844205205FBD586
:1029000030F8442F22F4806202800020236831F8DE
:10291000102023F82020401CC0B20828F6D32068DD
:1029200030F8401F41F008010180206830F8441F52
:1029300021F400610180206830F8401F41F004015B
:102940000180204600F0E0F81FBD810509D5206810
:1029500030F8441F21F400710180204600F09DF8FA
:102960001FBDC005FCD5206830F8441F21F48071DC
:1029700001801FBD2DE9F041040004D094F89102BC
:10298000002518B107E00120BDE8F08184F89052DD
:10299000204600F04DF8032084F89102657120680C
:1029A00007F088FF94E80F0007F0EEFE022698BBC0
:1029B0000021206808F090FA70BB002001270BE08E
:1029C00000EB800104EBC1014F740874CD740D62FB
:1029D0004D62401CC0B28D6221798142F0D8002046
:1029E00012E000BF00EB800104EBC10181F85151FE
:1029F00081F8500181F85351C1F86051C1F8645118
:102A0000401CC0B2C1F8685121798142EAD894E8EB
:102A10000F0007F046FF10B184F89162B3E76573C9
:102A200084F89172206807F03AFF0020ACE70000BC
:102A300008B500680B49884212D10B48C16941F4BE
:102A40000001C161C069002200F40000009011463D
:102A50001420FFF795FBBDE808401420FFF782BB68
:102A600008BD0000005C00400010024070B5044644
:102A700080790125022801D0FEF76AFC2946D4F8A6
:102A8000D40207F00BFBD4F8D402BDE8704007F085
:102A9000C7BAD0F8D40207F0EBBAD0F8D40207F0E6
:102AA000F1BA10B5044690F8900201280AD001202E
:102AB00084F890026173206808F010FA002084F80E
:102AC000900210BD022010BDD0F8D42200F526716E
:102AD000104607F0EFBA10B5044690F890020128AE
:102AE00010D0012084F89002206808F0B2F901218A
:102AF0002046FFF795FB206807F0CFFE002084F802
:102B0000900210BD022010BD10B50446D0F8D402CA
:102B100007F00FFBA07A002804D00348016841F0B9
:102B20000601016010BD000010ED00E02DE9F84342
:102B300005460078354CC00754D0E0690026C00037
:102B400008D4E06940F08050E061E069012600F0BF
:102B5000805000902E480168C90512D40168804653
:102B600041F480710160FEF771FD074605E000BF8A
:102B7000FEF76CFDC01B642823D8D8F80000C00500
:102B8000F6D5206A10F4407021D0A98801F4407174
:102B900081421CD0206A1F49012220F440700A6043
:102BA00000220A602062C00711D0FEF74FFD0746E1
:102BB00041F2883808E000BFFEF748FDC11B4145DF
:102BC00002D90320BDE8F883206A8007F4D5206A83
:102BD000696820F44070084320621EB1E06920F06B
:102BE0008050E0612878800705D56068A96820F4E6
:102BF0004040084360602878C00605D56068E968F1
:102C000020F48000084360600020DBE700100240F1
:102C100000700040400442422DE9F0470F46050095
:102C200061D0434E306800F00700B84209D23068E6
:102C300020F0070038433060306800F00700B842E9
:102C400051D128683B4C810712D5400703D56068F5
:102C500040F4E06060602878000703D5606840F4C5
:102C6000605060606068A96820F0F0000843606010
:102C70002878C00728D06868012810D02168022869
:102C800010D0890700292EDA616821F00301014381
:102C90006160FEF7DBFC804641F288390DE0216877
:102CA0008903EFE78901EDE7FEF7D0FCA0EB08010F
:102CB000494502D90320BDE8F0876068696800F0E3
:102CC0000C00B0EB810FEFD1306800F00700B84284
:102CD0000BD9306820F0070038433060306800F0CE
:102CE0000700B84201D00120E5E72878400705D564
:102CF0006068E96820F4E0600843606028780007B5
:102D000006D56068296920F4605040EAC10060601F
:102D100000F028F86168084AC1F30311515CC8400B
:102D20000649086006480068FFF7DEF90020C2E7A0
:102D300000200240001002400EB0000800010020F8
:102D4000F80000200448054900684968044AC1F3B6
:102D50000221515CC8407047000100200010024071
:102D60001EB000080E4A51680E4801F00C03042BF7
:102D700011D0082B0FD10C48C1F38343C903C05CA9
:102D80000AD55168084AC1F34041921E515C054A78
:102D90005043B0FBF1F070470449484370470000CE
:102DA0000010024000127A00FEAF000800093D004A
:102DB0002DE9F84F040070D02078C04DC00749D0ED
:102DC0006868C0F38100012807D06868C0F38100FB
:102DD000022809D16868C00306D52868800339D560
:102DE00060680028E7D035E06068B0F5803F0BD020
:102DF00010B1B0F5A02F11D0286820F480302860E1
:102E0000286820F4802002E0286840F480302860A0
:102E1000606890B1FEF71AFC06460AE0286840F4A4
:102E200080202860F0E700BFFEF710FC801B6428BC
:102E300073D828688003F7D50CE0FEF707FC064638
:102E400005E000BFFEF702FC801B6428F0D828686C
:102E50008003F7D420789A4E80074FF001094FF095
:102E6000000839D5686810F00C0F07D06868C0F307
:102E70008100022809D16868C00306D42868800749
:102E800014D52069012808D110E02069B0B1C6F836
:102E90000090FEF7DBFB074605E00AE1FEF7D6FBF4
:102EA000C01B0228C4D828688007F7D52868616944
:102EB00020F0F80040EAC10028600DE0C6F800806C
:102EC000FEF7C4FB074604E0FEF7C0FBC01B022868
:102ED00023D828688007F7D4207800072CD57948B4
:102EE000A169D9B1C0F80090FEF7B0FB074604E035
:102EF000FEF7ACFBC01B02280FD8686A8007F7D525
:102F000071484FF4FA510068B0FBF1F0009000BF37
:102F10000098411E0091FAD20EE080E0C0F80080D7
:102F2000FEF794FB074604E0FEF790FBC01B022867
:102F300075D8686A8007F7D42078400760D5E869BB
:102F40000027C00008D4E86940F08050E861E869D3
:102F5000012700F0805000905C480168C90513D437
:102F60000168834641F480710160FEF76FFB824681
:102F700006E000BFFEF76AFBA0EB0A0064284ED80B
:102F8000DBF80000C005F5D5E06801280AD008B1DB
:102F9000052813D0286A20F001002862286A20F052
:102FA000040002E0286A40F001002862E06841F273
:102FB000883B98B1FEF74AFB82460BE0286A40F056
:102FC00004002862EEE700BFFEF740FBA0EB0A0119
:102FD00059455AD8286A8007F6D50CE0FEF736FB2B
:102FE000824605E0FEF732FBA0EB0A0159454CD8BA
:102FF000286A8007F6D41FB1E86920F08050E861A4
:10300000E06988B36968C1F38101022944D00228CC
:10301000C6F8608004D0FEF719FB044638E034E0BF
:10302000FEF714FB074604E0FEF710FBC01B022866
:103030002BD828688001F7D4206AB0F5803F05D1ED
:103040006868A16820F4003008436860D4E908018A
:103050000843696821F4741108436860C6F86090F9
:10306000FEF7F4FA044606E025E000BFFEF7EEFAAC
:10307000001B022809D828688001F7D51BE000BF93
:10308000FEF7E4FA001B022802D90320BDE8F88FFE
:1030900028688001F4D40EE00128F7D06868226A1D
:1030A00000F48031914204D1616A00F470108842CA
:1030B00001D00120EAE70020E8E70000001002400C
:1030C00000004242800442420001002000700040A3
:1030D0002DE9FC410446434845F6C05100260068EE
:1030E000B0FBF1F0642148430190009020684168F2
:1030F00021F0200141602068416809060CD53A4959
:103100006164009900295AD0491E009194F8511029
:103110000729F6D101990091416849060BD5334939
:1031200021640099F1B3491E009194F851100729C8
:10313000F7D10199009140684FF0400780074FF0A8
:10314000000514D5A06C90B14563A06CFEF702F9A0
:1031500000B167652068416821F002014160206884
:10316000009989B3491E009181688907F8D52068C4
:103170004068C00711D0E06C78B14563E06CFEF7A1
:10318000E9F800B167652068016821F0400101603D
:103190002068416821F001014160E587E586606DA6
:1031A000402800E011E01AD065652068C168806899
:1031B0000090012084F851003046BDE8FC81616D2B
:1031C00041F040016165A5E704E0616D41F0400117
:1031D0006165AEE7606D40F040006065C7E70126BD
:1031E000E3E7000000010020AD94000855940008BA
:1031F00000680B4982B0884210D10A4A1188491CE4
:103200001180094A00211170C16880680090074848
:103210000078002802D002B002F07CBB02B07047F8
:103220000030014090000020840000207E0000203B
:1032300038B50446006842688168C9434B0606D524
:10324000CB0704D1D3435B0601D4216C05E08B0787
:1032500008D4D3431B0605D4616C01B02046BDE8F9
:10326000304008478B0601D54B0646D4D3439B0616
:1032700043D44B060AD494F85130032B3ED0636DEF
:1032800043F004036365C36883680093890609D427
:10329000616D41F00101616581680091016821F073
:1032A00040010160606D002827D02068416821F04E
:1032B000E0014160012084F85100900722D020688D
:1032C000416821F003014160104DE06C40B145635D
:1032D000E06CFEF763F818B1606D40F04000606587
:1032E000A06C002809D04563A06CFEF757F80028B1
:1032F00003D0606D40F04000606538BDC1688068F3
:10330000009038BD2046FFF773FF38BDA595000833
:1033100070B5040009D0606A002540B1256165617F
:10332000A56294F8510040B10CE0012070BD6068C6
:10333000B0F5827FF4D0E561F2E784F85050204682
:1033400000F040F8022084F851002068016821F064
:1033500040010160A088218900F4827001F40441D9
:103360000843A18901F400610843217C01F00201B6
:103370000843217D01F001010843218B01F4007114
:103380000843217F01F03801084394F8201001F030
:1033900080010843218D01F4005108432168086031
:1033A000A069042101EA1040216848602068C169D1
:1033B00021F40061C1616565012084F8510000209D
:1033C00070BD000000B585B000210091019102910F
:1033D00003910068114988421ED11148816941F466
:1033E00080518161816901F480510491816941F0CA
:1033F000040181618069694600F004000490B020F6
:1034000000900848FEF728F8002201212320FEF74B
:10341000B7FE2320FEF7A6FE05B000BD0030014038
:10342000001002400008014030B4134690F85120CB
:10343000012A27D1846804221CB94568B5F5827F2A
:1034400017D0E1B1DBB190F85050012D1AD0012511
:1034500080F8505080F851200022426581638387B4
:10346000C38702638286C2864264C16861B116491D
:103470000BE080F8512030BC0A4600F081B80120F2
:1034800030BC70470220FBE710490164B4F5004FDF
:1034900009D101680B6823F040030B6001680B68D9
:1034A00023F480430B6001680B685B0603D40B6850
:1034B00043F040030B6080F850200068416841F001
:1034C000600141600020DBE7459600086596000832
:1034D0002DE9F04100681E49884236D1FEF7B6F862
:1034E0001C49086010211C48FEF7A6F8012819D0D5
:1034F00000231A490888401CC0F30A0218480088B3
:10350000824211D0174C184D00200F88265C2F44A2
:103510003E54401C0004000CF7D014480C8803559E
:103520000A8005E00123E4E711490888401C08806F
:1035300010480078104D002430B1012209490F488D
:10354000FFF772FF002800D02C70BDE8F08100006A
:10355000003001408C00002000080140860000205F
:1035600088000020E90000206A1100206A1900206C
:103570008A0000207E0000208400002070020020CD
:1035800030B590F851404568012C06D0B5F5827FE2
:1035900024D1856815BB042C20D1E9B1E2B1DBB19F
:1035A00090F85040012C19D0012480F8504090F838
:1035B0005140042C02D0052480F851400024446579
:1035C00001638386C38682638387C387C16839B1F9
:1035D0000E4901640E4906E0012030BD022030BDD5
:1035E0000C4901640C49416401680A68520603D41D
:1035F0000A6842F040020A6080F850400068416862
:1036000041F0E0014160002030BD000095930008CA
:10361000F5930008C593000825940008704710B57D
:10362000401EB0F1807F01D3012010BD4FF0E02497
:1036300060610F21601707F06BFC0020A06107207C
:103640002061002010BDFEE701684A69D24352059F
:103650000FD46FF480624A61002140F8301F2022AD
:1036600042738173026942F0040202610173012016
:1036700070470020704700002DE9F84F0446C06AEB
:103680001E4693460D4621680A6842F480620A602D
:10369000082807D0012805D010F5803F02D0206B04
:1036A000112804D12068016841F4807101604FF055
:1036B00001195B46002249462046009600F09EF91B
:1036C0004FF4007840B120680068C00501D5C4F807
:1036D00040800320BDE8F88F2069DFF884A0B0F5B2
:1036E000804F0FD00620216800EAD51747F0F00080
:1036F000086133465A460AF10601204600F0C6F931
:1037000058BB03E0E8B240F001001CE02168E8B2D9
:10371000086133465A465146204600F0B7F9E0B9F1
:103720002068416981690091016841F480710160FC
:103730005B46002249462046009600F05FF90028CB
:10374000C1D147F0F1002168086133465A4651461D
:10375000204600F09BF90028BCD00120BAE7000009
:1037600002000100F8B50446C06A1E460D46174621
:10377000082807D0012805D010F5803F02D0206B23
:10378000122804D12068016841F480710160134659
:1037900000224FF001112046009600F02FF940B1B1
:1037A00020680068C00502D54FF400702064032033
:1037B000F8BD2069B0F5804F0ED00620216800EAE0
:1037C000D51040F0F000086133463A460B492046D8
:1037D00000F05CF978B902E005F0FE0000E0E8B224
:1037E00021680861054933463A46891F204600F0A2
:1037F0004DF90028DCD00120F8BD000008000100D0
:103800002DE9F84F0446006889460B9D01689846EB
:10381000174641F4806101602068016841F48071BD
:10382000016000954FF0011B0022594620460A9B7B
:1038300000F0E4F84FF4007A40B120680068C00559
:1038400001D5C4F840A00320BDE8F88F216809F035
:10385000FE0008612B46284920460A9A00F016F916
:10386000F0BB20684169806900902A4620460A9989
:1038700000F0A2F940B1206C04283AD12068016818
:1038800041F40071016034E0FEB2B8F1010F09D0DB
:103890002168380A08612A4620460A9900F08CF906
:1038A0000028E8D1206806612A4620460A9900F0DF
:1038B00083F90028DFD12068016841F4807101603C
:1038C00000950022594620460A9B00F097F80028F0
:1038D000B3D1216809F0FF0040F00100086100E069
:1038E00007E02B46044920460A9A00F0CFF800284A
:1038F000AAD00120A8E70000020001002DE9F8434A
:10390000044600680D46DDE90897016898461646AA
:1039100041F4807101604B4600224FF001112046B6
:10392000009700F06BF848B120680068C00502D528
:103930004FF4007020640320BDE8F883216805F08F
:10394000FE0008613B464A461549204600F09EF8B5
:1039500088B920684169806900903A464946204606
:1039600000F02AF948B1206C042804D120680168CD
:1039700041F4007101600120DEE7F5B2B8F1010FFA
:1039800009D02168300A08613A464946204600F0CD
:1039900013F90028E7D1206805610020CCE700007A
:1039A0000200010070B516460D4604461EE0204692
:1039B000FFF74AFE08B1012070BD681C16D0FDF764
:1039C00045FE801BA84200D885B920684069C043E5
:1039D00040070BD5002044F8300F20216173A073FD
:1039E000216941F0200121612073E4E720684069EA
:1039F000C0434007DBD4002070BD00002DE9F04734
:103A0000984617460D460446C1F30746DDF8209058
:103A10002AE000BFB8F1FF3F26D0FDF717FEA0EB6C
:103A20000901414502D8B8F1000F1DD12068012ECF
:103A300016D0806925EA00000004000C12D0002096
:103A4000B84211D1002044F8300F20216173A073D7
:103A5000216941F02001216120730120BDE8F08738
:103A60004069E7E70120EBE72068012E0AD0806972
:103A700025EA00000004000C06D00020B842C9D09E
:103A80000020EBE74069F3E70120F7E72DE9F04775
:103A9000984616460D4604464FF000094FF0200A9E
:103AA000C1F3074723E020684069C043400515D4AF
:103AB0002068016841F40071016021686FF4806042
:103AC0004861C4F8309084F83DA084F83E90216CA1
:103AD00041F00401216484F83C9021E0701C06D080
:103AE000FDF7B4FDA0EB0800B04203D816B1012FDA
:103AF0001FD021E02068012F15D0806925EA000041
:103B00000004000C18D000BF44F8309F84F80DA0CA
:103B100084F80E90216941F02001216184F80C9015
:103B20000120BDE8F087406925EA00000004000C90
:103B3000EAD12068406901E02068806925EA000038
:103B40000004000CAFD1ECE72DE9F04100259046D0
:103B50000E460446202728E04069C043C0060CD426
:103B600054F8301B6FF01000486144F81059677723
:103B7000A577206A2062257714E0FDF767FDA0EBAA
:103B80000800B04200D886B920684069C0434006AA
:103B90000BD544F8305F6773A573206940F02000AF
:103BA000206125730120BDE8F08120684169C94387
:103BB0004906D1D40020F6E770B516460D460446F6
:103BC0001EE02046FFF740FD08B1012070BD681CD3
:103BD00016D0FDF73BFD801BA84200D885B92068B0
:103BE0004069C04300060BD5002044F8300F202167
:103BF0006173A073216941F0200121612073E4E722
:103C000020684069C0430006DBD4002070BD00007E
:103C1000F0B500230A24302537261F4611E000BFE7
:103C2000B4EB107F02D905EB107C01E006EB107CB1
:103C300001F813C001EB430C00015B1C8CF8017010
:103C4000DBB29342ECD3F0BD70B5264E3088264CE3
:103C50002188884209D0254890F89C12032904D174
:103C6000D0F8B802D0F8140208B1002070BD204886
:103C7000007808B1802000E04020318822889142FD
:103C800003D931882288891A02E02188C1F5806130
:103C90008DB2854200D9054600201649164A07E034
:103CA00023880344C3F30903CB5C1354401C80B244
:103CB000A842F5D329461048FDF7CAFA20B9208852
:103CC0002844C0F3090020800C48017841B13188B4
:103CD0002288914204D100210170094807F0E8F8D8
:103CE000012070BDCC000020CE000020C8020020C2
:103CF0007F0000208A3700208C080020D0000020A0
:103D000034B200082DE9F05F060030D0FCF794FCD7
:103D100085B2FDF79BFCDFF88490214CDFF884B07E
:103D2000DFF8848082460127B8F8001040462288D8
:103D3000914206D301882288891AA1F2FF314942B3
:103D400003E021880288891A491E89B28D4202D86F
:103D50000021164A1FE09BF89C02032805D1FDF7BD
:103D600075FCA0EB0A00C82803D989F80070BDE8EB
:103D7000F09FFFF769FF0028D6D10120FDF75AFB1D
:103D8000D2E7735C0488135503885B1CC3F30903F3
:103D90000380491C89B2A942F3D3E8E7D000002090
:103DA000CE000020C8020020CC0000208A3700206E
:103DB00038B520208DF800001148007838B111483E
:103DC000008820B1104C217819B1002038BD0120A5
:103DD00038BD001D81B20D4801236A46007800F00D
:103DE00019FC20B10AA007F063F8022038BD104981
:103DF0000120207008700FA007F05AF8E5E70000D6
:103E000066000020AA0000207D0000206200002043
:103E10004552523A205772697465204445425547CD
:103E20004354524C206661696C65640D0A000000C1
:103E30007E000020494E464F3A20444542554743B4
:103E400054524C20656E61626C656420284279741E
:103E500065343D30783230205349474E414C290D6E
:103E60000A0000002DE9F04F68488DB00078684CDA
:103E7000002618B126700DB0BDE8F08F65480078B7
:103E80000128F8D16448DFF89491007899F800107F
:103E90000843F0D0624800780028ECD1FDF7D6FB4B
:103EA000054620785F4F18B93868281A3228E2D3BF
:103EB000207828B908215C48FDF7BEFB0028DAD13C
:103EC00026703D600A272C2000F022FB05460520C5
:103ED00000F01EFB044605B184B95448007848B18F
:103EE00001F05EFA2C2000F013FB0546052000F0DF
:103EF0000FFB0446002DBED0002CBCD0DFF830A153
:103F0000DFF830B17F1EFFB2B5D38DF830600123EA
:103F10000CAA2946D0469AF8000000F05BFB002866
:103F2000A9D19DF830000028A5D00B2306AA214670
:103F300098F8000000F04EFB80BB9DF8180001903F
:103F4000FF2898D099F8000048B39BF80000019929
:103F500081423CD300F11201CAB201998A4236D99A
:103F6000081AC0B2022832D39DF81910801E01F041
:103F70000F0CBDF81A10BDF81C200023C0B2BCF114
:103F8000010F09D0BCF1040F0AD0BCF1050F09D014
:103F9000BCF1090F09D107E0022306E02DE016E08D
:103FA000012302E0032300E00423DFF88CC08CF837
:103FB0000000ACF80210ACF804208CF80630DFF8F2
:103FC0007C804FF0010C88F800C001F0FFFE1C4817
:103FD000007890B106A8009000214FF400721948B3
:103FE000019B00F055FE174AC0F50071104416A25F
:103FF000FCF720F91348FFF785FE08210A48FDF772
:104000001BFB01287FF47EAF35E700007F00002016
:10401000C900002063000020CA000020DD0000204D
:10402000E8000020C40000200008014064000020D7
:1040300062000020B9000020EA000020C00000203B
:10404000C8000020CA3B00200D0A00000649074AAC
:104050000968B1FBF2F141430520B1FBF0F000E04B
:1040600000BF401EFCD270470001002040420F00FC
:104070000149087070470000650000202DE9F04FED
:10408000524C89B0207818B900F0E4FA207860B179
:1040900000200290014603904D48072302AA0078B1
:1040A00000F098FA18B14BA026E052A024E09DF849
:1040B0000E805FEA08001ED0B8F1800F01D94FF0E2
:1040C00080085448A02101709DF8081041709DF8A7
:1040D000091081709DF80A10C1709DF80B100171D4
:1040E00080F80580062105F02BFB07204FF0000B20
:1040F000079058465DE048A006F0DAFE09B0BDE83A
:10410000F08F00BF07980AEB4A0100EB41013048ED
:1041100006236A46007800F05DFA08B1012027E026
:104120009DF800000690BDF8010005909DF8040080
:104130009DF80370401CC0B200267F1C049032E042
:104140000598002406FB07001FFA80F927E0381BBA
:10415000C5B2382D00D9382509EB040081B21C48BE
:104160002C4A2B460832007800F034FA10B10220B5
:10417000834621E02748A12101700699417086708D
:1041800080F803904FEA192101714471210A81716D
:10419000C57105F1080105F0D3FA601984B2BC427B
:1041A000D5D3761CF6B204988642C9D30AF1010031
:1041B000C0B282464045A5D31648A221017080F8BE
:1041C00001B0022105F0BCFA98E70000660000206B
:1041D000620000204552523A205265616420496EC7
:1041E000666F20426C6F636B206661696C65640D5D
:1041F0000A0000004552523A20546F756368206EE1
:104200006F7420696E697469616C697A65640D0AFE
:1042100000000000CA3B00204552523A204F626A1B
:1042200065637420636F756E7420697320300D0AA6
:10423000000000002DE9F0413A4C8CB0207818B90C
:1042400000F008FA207860B10020374F0590014651
:104250000690072305AA387800F0BCF918B133A0FE
:104260005BE03AA059E09DF81A50F5B1802D00D9D5
:1042700080253EA006F01CFE9DF817009DF8161044
:104280009DF8152000920395CDE901104FF40078B8
:104290009DF814303EA241464A48FBF7CBFF4948FF
:1042A00006F006FE0726002434E047A035E000BFF4
:1042B00004EB440006EB4001062308AA387800F01E
:1042C00089F948B1234647A241463E48FBF7B2FF71
:1042D0003C4806F0EDFD1FE09DF82420BDF82110BC
:1042E0009DF82300521C0DF1040E00919DF8203022
:1042F000D2B29DF825C0401C8EE8051044A241466C
:104300003048FBF797FF2F4806F0D2FD00F0D6F8B3
:10431000641CE4B2AC42CBD348A006F0C9FD0CB09B
:10432000BDE8F08166000020620000204552523A4C
:10433000205265616420496E666F20426C6F636B2A
:10434000206661696C65640D0A0000004552523AAE
:1043500020546F756368206E6F7420696E6974698C
:10436000616C697A65640D0A000000003D3D3D20E6
:104370004558504F525454585420434F4D50414388
:1043800054205354415254203D3D3D0D0A0000003D
:1043900049442066616D696C793D257520766172AE
:1043A00069616E743D2575207665723D25752062C4
:1043B00075696C643D2575206F626A733D25750DC6
:1043C0000A000000CA3B00204552523A204F626A60
:1043D00065637420636F756E7420697320300D0AF5
:1043E000000000004552523A2052656164206F621D
:1043F0006A656374207461626C6520696E646578B7
:104400003D2575206661696C65640D0A0000000039
:1044100054257520616464723D307825303458200D
:1044200073697A653D257520696E73743D25752025
:104430007269643D25750D0A000000003D3D3D2078
:104440004558504F525454585420434F4D504143B7
:104450005420454E44203D3D3D0D0A0010B54B20F3
:1044600000F0AAF8144CA8B14A2000F0A5F8A0B1B9
:10447000272000F0A1F898B1252000F09DF890B118
:10448000242000F099F888B1262000F095F880B13A
:10449000812010BD4B20207010BD4A20207010BD1F
:1044A0002720207010BD2520207010BD24202070F2
:1044B00010BD2620207010BD6200002010B5002421
:1044C000FFF7C2FB002802D0641CFF2CF8DD10BDF2
:1044D00070B586B014460D46A8B1A5B19CB1C1789F
:1044E0000DF1080C8679437902798CE84E008278C8
:1044F0004178CDE900120378044A21462846FBF7AB
:1045000099FE06B070BD0020FBE70000D8B100089E
:104510002DE9F0470024224E224FDFF88C80DFF88F
:104520008C90DFF88CA00546252811D004DC052DE1
:1045300007D0062D12D106E02C2D06D0642D0DD10A
:1045400009E0348809E03C8807E0B8F8004004E05E
:10455000B9F8004001E0BAF80040ECB9154800781D
:10456000D0B100F01DFF252D11D004DC052D07D0A2
:10457000062D11D106E02C2D06D0642D0CD109E0BA
:10458000348809E03C8807E0B8F8004004E0B9F856
:10459000004001E0BAF800402046BDE8F087000086
:1045A000AE000020AA000020AC000020B0000020D7
:1045B000B20000206400002010B541000A2303224D
:1045C0000348FDF70DF9002800D0012010BD0000C0
:1045D0001C0200203EB50A248DE81C004ABA4100A6
:1045E00010230348FDF770FB002800D001203EBDDA
:1045F0001C02002008B50A230093134640000A4617
:1046000001460348FDF7A2F9002800D0012008BDAB
:104610001C0200203EB50A248DE81C004ABA410065
:1046200010230348FDF77EFC002800D001203EBD8A
:104630001C02002008B50A230093134640000A46D6
:1046400001460348FDF7AAFA002800D0012008BD62
:104650001C0200201CB5164807236A46002100787A
:10466000FFF7B8FF002822D112499DF804004FF44B
:104670000072087010499DF8050008700F499DF8F8
:10468000060008700E496846FFF722FF0C48FFF746
:1046900039FB00F085FE002809D10A490120087085
:1046A000094900200870BDE81C40FFF781BB1CBD14
:1046B000620000204E0000204F0000206400002017
:1046C000CA3B0020660000207D00002001480078E1
:1046D00070470000650000202DE9F047DFF85081A9
:1046E000D8F8000000287DD0524F3878002879D0C3
:1046F000514C2078002875D05048DFF8449100785C
:10470000F72809D0F82807D0F52805D04DA006F0E5
:10471000CFFB0026A2467FE000244FA006F0C8FB96
:10472000002547464E463868C4F500714BA230F963
:1047300015303019FBF77EFD0444132D06D2C4F565
:104740000071301946A2FBF775FD04446D1CEDB2F3
:10475000142DE8D3C4F50071301942A2FBF76AFDAD
:10476000374806F0A5FB40A006F0A2FB0024254632
:104770003868C4F5007100EB450038A2B0F9283064
:104780003019FBF757FD04441F2D06D2C4F5007104
:10479000301933A2FBF74EFD04446D1CEDB2202D01
:1047A000E6D3C4F50071301930A2FBF743FD24486D
:1047B00037E00024254620E09AF80000D8F80010E1
:1047C00005FB006080B22BA231F91030C4F50071F6
:1047D00009EB0400FBF72EFD04443878401E8542A7
:1047E00009DA00E021E0C4F5007109EB04001CA225
:1047F000FBF720FD04446D1CEDB238788542DBD315
:10480000C4F5007109EB040016A2FBF713FD0C4878
:1048100006F04EFB761CF6B29AF800108E42C8D312
:1048200010A0BDE8F04706F043BBBDE8F0870000EC
:10483000BC0000204E0000204F000020BA000020E5
:10484000CA3B00203D3D3D20524157203332783253
:1048500030203D3D3D0D0A00593A0000256400001E
:104860002C0000000D0A0000583A00000D0A0D0A45
:1048700000000000253664002DE9F05FDFF8ACA0F1
:10488000DAF8000000284ED029480678002E4AD0D9
:1048900028490878002846D0102E00D310268B46D1
:1048A000102800D31020804623A0FFF72BFA002702
:1048B000DFF8A8902EE0002425461DE09BF80000BC
:1048C000DAF8001005FB007080B225A231F9103033
:1048D000C4F5007109EB0400FBF7ACFC0444701E46
:1048E000854207DAC4F5007109EB04001DA2FBF74D
:1048F000A1FC04446D1CEDB2B542DFD3C4F50071D8
:1049000009EB040018A2FBF795FC1448FFF7FAF92D
:104910007F1CFFB24745CED314A0FFF7F3F9BDE8E3
:10492000F05FFFF7CBBDBDE8F09F0000BC000020AA
:104930004E0000204F0000203D3D3D204D415031B4
:1049400036202831367831362C20696E646578201F
:10495000302D313529203D3D3D0D0A00CA3B002058
:10496000253664002C0000000D0A00003D3D3D206E
:104970004652414D455F454E44203D3D3D0D0A0D9B
:104980000A0000002DE9FC5F4C4C80460F46206871
:1049900000287DD04A480078102879D3494E3078D5
:1049A000102875D3B8F1010F07D0B8F1020F06D067
:1049B00045A3F80705D045A104E045A3F9E745A3C1
:1049C000F7E741A1B80701D543A000E03EA01A785F
:1049D0004FF400751AB90A780AB902783AB1CDE9EC
:1049E00000103EA229464748FBF724FC04E046A2FB
:1049F00029464448FBF71EFC4248FFF783F94BA0C9
:104A0000FFF780F9DFF8FC900025A246B3460026A8
:104A1000344621462846FA0702D0C4F10F01C9B234
:104A2000BA0702D5C5F10F00C0B20A46B8F1010FAE
:104A300003D0B8F1020F05D008E00246C1F10F0023
:104A4000C0B203E0C0F10F00C2B208469BF80010EC
:104A500002FB0100DAF8001080B235A231F9103003
:104A6000C6F5007109EB0600FBF7E4FB06440F2CCA
:104A700007D2C6F5007109EB06002EA2FBF7DAFBA0
:104A80000644641CE4B2102CC3D3C6F5007100E0E8
:104A900012E009EB060025A2FBF7CCFB1948FFF753
:104AA00031F96D1CEDB2102DB1D323A0FFF72AF917
:104AB000BDE8FC5FFFF702BDBDE8FC9FBC00002025
:104AC0004E0000204F0000200000000058000000B1
:104AD000523930004C393000590000003D3D3D2036
:104AE0004D415031362573257325732028726F741C
:104AF000617465207468656E20666C697029203D5C
:104B00003D3D0000CA3B00203D3D3D204D41503120
:104B1000362028726F74617465207468656E206633
:104B20006C697029203D3D3D000000000D0A000029
:104B3000253664002C0000003D3D3D204652414D8D
:104B4000455F454E44203D3D3D0D0A0D0A000000E5
:104B50002DE9F047DFF8A890D9F8000000284CD0E4
:104B6000284F3878002848D0274C2078002844D097
:104B700026A0FFF7C7F80026DFF8A480A24631E0A0
:104B8000002425461FE000BF9AF80000D9F8001065
:104B900005FB006080B223A231F91030C4F500712A
:104BA00008EB0400FBF746FB04443878401E8542BE
:104BB00007DAC4F5007108EB04001BA2FBF73AFB0F
:104BC00004446D1CEDB238788542DDD3C4F5007124
:104BD00008EB040015A2FBF72DFB1148FFF792F834
:104BE000761CF6B29AF800108E42C9D310A0FFF7D7
:104BF00089F8BDE8F047FFF761BCBDE8F087000029
:104C0000BC0000204E0000204F0000203D3D3D2014
:104C10004D4150414C4C203D3D3D0D0A00000000EF
:104C2000CA3B0020253664002C0000000D0A00005D
:104C30003D3D3D204652414D455F454E44203D3D62
:104C40003D0D0A0D0A000000D8B1D1B10F4A12780B
:104C5000CAB10278E02A16D0822A14D0022904D3DD
:104C6000012A02D1407851280DD0032903D3512ABB
:104C700009D0802A07D0D02A05D0D12A03D0D22A41
:104C800001D0002070470120704700006300002021
:104C90002DE9F04385B007468A481646DDF8308096
:104CA0000C46027898F80150311B381993423FD1D5
:104CB00085A2FBF7BFFA0444280605D5311B381935
:104CC00084A2FBF7B7FA0444680605D5311B3819EE
:104CD00082A2FBF7AFFA0444A80605D5311B3819A8
:104CE00080A2FBF7A7FA0444E80605D5311B381962
:104CF0007EA2FBF79FFA0444280705D5311B38191B
:104D00007CA2FBF797FA0444680705D5311B3819D4
:104D10007AA2FBF78FFA044498F80410B8F802302E
:104D2000381961F31F43311B77A2FBF783FAC3E005
:104D3000784A1278934268D302F1120C634564D228
:104D40009A1A12F0FF0216D0012A26D0921E02F003
:104D5000FF09EE09C5F30212B8F802C0B8F80470F2
:104D600005F00F056CA3072A24D2DFE802F01A1C15
:104D70001E232320220069A2FBF75CFA04442806C4
:104D800005D5311B381969A2FBF754FA04446806AB
:104D900073D5311B381967A200E068A2FBF74AFA05
:104DA0008AE06AA306E06AA304E06AA302E06AA3B9
:104DB00000E06AA358A20A2D19D2DFE805F0050722
:104DC000090B0D0F1113151765A210E066A20EE076
:104DD00067A20CE068A20AE068A208E069A206E007
:104DE00069A204E06BA202E06CA200E06DA20EB129
:104DF0003BA500E06DA5CDE90232CDE900C70495E1
:104E00004B466EA2FBF716FA56E005F00F06C5F307
:104E10000212092E08D862B1012A0AD0022A08D04B
:104E2000052A06D0062A04D06DA20095FBF702FAE7
:104E300042E04FEAD51CB8F80230B8F8047036A545
:104E4000072A0ED2DFE802F00406080D0D0A0C0056
:104E50003EA506E03EA504E03EA502E03EA500E03A
:104E60003EA52DA20A2E1AD2DFE806F005080A0C8C
:104E70000E10121416183AA211E01EE03AA20EE02B
:104E80003BA20CE03CA20AE03CA208E03DA206E006
:104E90003DA204E03FA202E040A200E041A2BCF13A
:104EA000000F01D00EA600E040A600970396CDE9C2
:104EB000015250A2FBF7BEF9044405B02046BDE8FC
:104EC000F0830000B800002020205B543620434DC2
:104ED000445D00002052455345540000204F464C8D
:104EE0000000000020534947455252002043414CE6
:104EF00000000000204346474552520020434F4DDA
:104F0000534552520000000020434B533D3078255A
:104F100030365800B90000203F3F3F0020205B544E
:104F2000313030205343525D00000000204445548E
:104F300045435400205355500000000020205B548E
:104F4000313030205253565D00000000525356005D
:104F5000464E470053545900474C56004C524700A8
:104F60004E4F4E45000000004D4F564500000000DA
:104F7000554E53555000000053555000444F574E66
:104F80000000000055500000554E535550535550E9
:104F900000000000554E535550555000444F574E99
:104FA00053555000444F574E5550000020286E6F07
:104FB000206465746563742900000000543130304A
:104FC00020205B54434825645D2020583D25642003
:104FD000593D25642020257320257325730000008A
:104FE00020205B52494425645D2073743D30782550
:104FF000303258005443483F20583D256420593DE5
:1050000025642020257320257325730070B50024A6
:105010000F4D03E001F034FE641CE4B2287808B1BF
:10502000042CF7D30B48017800290FD00021017020
:105030000948FBF701FB421C07490848FBF766FBE0
:1050400001202870BDE8704001F01ABE70BD00005C
:10505000E0000020610000208C0C00208A3B002032
:105060002DE9F84325480078002833D1244D2878CD
:1050700000282FD0234E307828B1FCF7E7FA2249D8
:105080000968884226D3214FDFF8848000243888BD
:1050900010B198F8000048B9FFF7E0F981281BD05B
:1050A00088F80040FFF7D6FA3888A8B111208DF8AB
:1050B000000038880123401C81B216486A460078F7
:1050C000FFF7A8FA02000BD034702C700021D42016
:1050D000FCF7E5F8BDE8F8832C7034708122F5E721
:1050E0000D49012008700D4804700D48048034708B
:1050F0002C7000221146D320EAE700007F00002038
:105100007C0000207600002078000020AA0000200B
:10511000660000206200002063000020E100002003
:10512000740000202DE9F05F354C207820B900F0A4
:10513000F1FB2078002860D0FCF788FA3149096833
:10514000401A642803D900F01FFC00F0E3FB2E4E48
:105150003088DFF8B880B8F80040DFF8B4B0DFF886
:10516000B4A0DFF8B49032E02C4807192C48055D54
:105170002C48007838B19AF8000078B19BF800000C
:1051800060B11DB10AE08BF800501AE026490120F9
:1051900008700020A9F8000003F0F8FF8BF8005019
:1051A00000259AF80010785D21B304F02DF800BFB7
:1051B000B9F80010491C6D1C2D04A9F800102D0C25
:1051C000EFD0641CC4F30A04A8F80040308884427D
:1051D000CAD1164C208848B1FCF738FA14490A683D
:1051E000821AC82A02D3086000202080BDE8F05F40
:1051F00004F0B4B803F048FFDAE7BDE8F09F000020
:10520000840000208C000020860000208800002000
:105210009800002080000020820000206A110020F9
:105220006A1900207F000020810000208A000020F1
:1052300094000020002000F001B800002DE9F84F94
:10524000DFF8FCB0064600259BF8000058B1DFF8F7
:10525000F490D9F8000030B13B4F3C4C387828B17D
:10526000208818B10BE0FF20BDE8F88F384800789F
:1052700008B100F095F83878A0B1208890B1DFF837
:10528000D4800121344888F8001034490078097826
:10529000484341002B480068FBF7BFFA0024A246B0
:1052A000B9463CE016B92E4805F002FEFD20DBE7CA
:1052B000324621469BF8000000F018FA07000FD094
:1052C00056B9234627A24FF4007131480097FAF7E8
:1052D000B1FF2F4805F0ECFD88F800A03846C3E781
:1052E0002D49184B2B480A7800211B68DFF868E02D
:1052F00007E047183F8823F815706D1C891CADB274
:10530000C9B2914209D2DFF854C09EF800709CF8EF
:1053100000C007FB0CF7AF42EBD8641CE4B299F86D
:1053200000008442C4D388F800A036B908211B4885
:10533000FCF782F908B9FEF795FD002094E700001C
:10534000BA000020BC000020B7000020B000002000
:1053500064000020E80000204E0000204F000020E4
:105360004CB100084552523A2054333720726561DF
:1053700064206661696C65642070616765202564DE
:105380002C20636F6465203078253032580D0A0078
:10539000CA3B0020CE0C0020B600002000080140CF
:1053A0002DE9F04F4A4885B04FF0070B06780124ED
:1053B0000EB1002574E040265FF0000505EB4501C5
:1053C0000BEB410081B24348062303AA0078FFF7A4
:1053D00001F9002867D19DF810109DF80F00491CB5
:1053E0009DF80C20401CBDF80D3001F0FF099DF820
:1053F0001170C0B24FF40071052A08D0062A0BD0F4
:105400002C2A13D0252A16D0642A4FD043E0324AE2
:10541000138032A2009005E039483BA2038039484E
:10542000047000944148FAF705FF31E0404A1380C8
:1054300040A20090F6E7484A9A4603281380474A5C
:10544000107001D3821E00E00122D3B2444ADFF87B
:1054500018C11370434A12787AB1DFF8108198F8B6
:105460000080B8F1000F08D03BB102FB08F203EB5B
:105470004202521E92FBF3F200E001228CF800205F
:10548000D2B2CDE90002534639A22848FAF7D2FE3B
:10549000264805F00DFD09FB07406D1CC4B2EDB2B6
:1054A000B5428BD3002005B0BDE8F08F3C4A138095
:1054B0003C4A10703C4A1470621E09FB072200909F
:1054C000CDE9014239A21948FAF7B4FEE0E700003D
:1054D0006400002062000020AE000020466F756E60
:1054E0006420543520617420616464723D307825F5
:1054F0003034582C2073697A653D25640D0A00000C
:10550000AA000020B8000020466F756E6420543653
:1055100020617420616464723D3078253034582CE9
:10552000205249443D25640D0A000000CA3B00207A
:10553000AC000020466F756E6420543434206174D2
:1055400020616464723D3078253034582C207369B2
:105550007A653D25640D0A00B0000020B4000020EB
:10556000B60000204E000020B70000204F000020B1
:10557000466F756E64205433372061742061646413
:10558000723D3078253034582C2073697A653D257A
:10559000642C2070616765733D25640D0A0000006E
:1055A000B2000020B5000020B9000020466F756EE3
:1055B00064205431303020617420616464723D3065
:1055C00078253034582C2073697A653D25642C2069
:1055D0005249443D25642D25640D0A00FEB5642022
:1055E000FEF796FF0500174804780AD04FF40076BE
:1055F000152C08D2234614A231461E48FAF71AFE8B
:105600001BE01DA01AE0802C01D925A016E02D4832
:105610002346184A29460078FEF7DCFF08B12AA085
:105620000CE014482B46304A017D407A0094CDE9C5
:10563000010131460F48FAF7FDFD0E48BDE8FE4076
:1056400005F036BCB50000204552523A20543130A6
:10565000302073697A6520746F6F20736D616C6C94
:1056600020282564292C206E656564203E3D20326B
:10567000310D0A00CA3B00204552523A20543130C5
:1056800030206E6F7420666F756E6420696E206FB7
:10569000626A656374207461626C650D0A000000C3
:1056A0004552523A20543130302073697A65207463
:1056B0006F6F206C6172676520746F207265616422
:1056C0000D0A0000620000204552523A20526561E6
:1056D0006420543130302064617461206661696CEB
:1056E00065640D0A0000000090B100082DE9F74F35
:1056F00086B016465FEA010915D00120DFF81C814B
:10570000474D8DF80C000024B8F800000123401D1F
:1057100081B203AA2878FEF77DFF0746012804D04E
:105720006FB156B149E00698E8E76420FEF78EFCB9
:10573000641CE4B20A2CE7D3F3E73AA014E0002497
:105740004FF4FA6A6420FEF781FCB8F800000123E8
:10575000401D81B204AA2878FEF73CFF07460128C5
:1057600008D027B14EBB36A005F0A2FB25E09DF87E
:10577000100018B1641CA4B25445E3D3B4F57A7F89
:1057800007D316B937A005F093FBFF2009B0BDE899
:10579000F08FDFF8E880DFF8E8A0DFF8E8B0002459
:1057A00098F80030374ABAF800102878FEF712FF50
:1057B0000746012803D047B12EB13846E6E76420FA
:1057C000FEF744FC0FE030A0CEE79BF800200699DE
:1057D0008A4205D19BF80110494501D10020D5E747
:1057E0000120FBF727FE641CA4B2B4F5FA7FD7D3DF
:1057F0008EB99BF801109BF80000CDF80090CDE920
:10580000010128A24FF400713348069BFAF712FDFC
:10581000314805F04DFBFE20B8E70000AA0000204B
:10582000620000204552523A205433372077726983
:10583000746520636D64206661696C65640D0A009F
:105840004552523A20543337207265616420636DAB
:105850006420737461747573206661696C65640D8E
:105860000A0000004552523A2054333720636D64D9
:105870002074696D656F75740D0A0000B400002016
:10588000B0000020CC0C00204552523A205433374F
:1058900020726561642070616765206661696C656E
:1058A000640D0A004552523A20543337206D697313
:1058B0006D6174636820286578703D3078253032DA
:1058C000582F25642C20676F743D3078253032586E
:1058D0002F2564290D0A0000CA3B00200B4910B592
:1058E0000978044609B9FEF7B5FEFEF761FAFEF73E
:1058F000E5FDC82000F0A8FA204603F0F7FB0449B4
:1059000001200870BDE8104000F004B866000020D7
:105910007E000020F8B5154D2878002824D11449C0
:1059200008801449088014490880FBF78FFE13494A
:105930000860134C2068C1688068009001221149FA
:105940002046FDF771FD012668B12046FDF7C0FB3A
:105950002068C1688068009001220A492046FDF74E
:1059600063FD002800D12E70F8BD000084000020E7
:1059700086000020880000208A0000208C00002083
:1059800070020020E900002008B50748FDF7A0FBE1
:10599000054900200968CA688968009103490870B0
:1059A0000349086008BD0000700200208400002048
:1059B0008C0000202DE9F04F8246754895B089464D
:1059C000006800287ED0DFF8CCB19BF80060102E74
:1059D00000D9102670480778102F00D910276F487B
:1059E000007800B106206E4D00F12808AA2028702A
:1059F000102068703320A87085F803802A71002475
:105A0000BFE0202101A8FAF72AFF002231E0114669
:105A100020465FEAC97302D0B11A491EC9B25FEAD3
:105A2000897302D5381B401EC0B20B46BAF1010F74
:105A300003D0BAF1020F05D008E00346701A401EE9
:105A4000C0B203E0381A401EC3B208469BF80010EB
:105A50008B420CD250490978884208D203FB0101DD
:105A60004B48006830F8111001A820F81210521CA1
:105A7000D2B2B242CBD36C71002001AA32F810101E
:105A80000B0A05EB40018B7112F81030401CC0B2BC
:105A9000CB711028F2D341480078E8B3FF200A9078
:105AA00000200D900C900B9012A800F06BF968B1DB
:105AB0009DF848000A90BDF84A000D90BDF84C00D2
:105AC0000C9000E060E09DF84E000AE03548007858
:105AD00088B3354801780A9141880D9181880C91ED
